{
  "_format": "hh-sol-artifact-1",
  "contractName": "VulcanoCoin",
  "sourceName": "contracts/ethdenver_lessons/D8/VulcanoCoin.sol",
  "abi": [
    {
      "inputs": [],
      "stateMutability": "nonpayable",
      "type": "constructor"
    },
    {
      "anonymous": false,
      "inputs": [
        {
          "indexed": true,
          "internalType": "address",
          "name": "previousOwner",
          "type": "address"
        },
        {
          "indexed": true,
          "internalType": "address",
          "name": "newOwner",
          "type": "address"
        }
      ],
      "name": "OwnershipTransferred",
      "type": "event"
    },
    {
      "anonymous": false,
      "inputs": [
        {
          "indexed": false,
          "internalType": "string",
          "name": "",
          "type": "string"
        },
        {
          "indexed": false,
          "internalType": "uint256",
          "name": "",
          "type": "uint256"
        }
      ],
      "name": "eventTotalSupplyChanged",
      "type": "event"
    },
    {
      "anonymous": false,
      "inputs": [
        {
          "indexed": false,
          "internalType": "string",
          "name": "",
          "type": "string"
        },
        {
          "indexed": false,
          "internalType": "uint256",
          "name": "",
          "type": "uint256"
        }
      ],
      "name": "eventTransfer",
      "type": "event"
    },
    {
      "inputs": [],
      "name": "TOTAL_SUPPLY",
      "outputs": [
        {
          "internalType": "uint256",
          "name": "",
          "type": "uint256"
        }
      ],
      "stateMutability": "view",
      "type": "function"
    },
    {
      "inputs": [],
      "name": "getTotalSupply",
      "outputs": [
        {
          "internalType": "uint256",
          "name": "",
          "type": "uint256"
        }
      ],
      "stateMutability": "view",
      "type": "function"
    },
    {
      "inputs": [
        {
          "internalType": "address",
          "name": "_user",
          "type": "address"
        }
      ],
      "name": "getUserBalance",
      "outputs": [
        {
          "internalType": "uint256",
          "name": "",
          "type": "uint256"
        }
      ],
      "stateMutability": "view",
      "type": "function"
    },
    {
      "inputs": [
        {
          "internalType": "address",
          "name": "_user",
          "type": "address"
        }
      ],
      "name": "getUserPayment",
      "outputs": [
        {
          "components": [
            {
              "internalType": "address",
              "name": "to",
              "type": "address"
            },
            {
              "internalType": "uint256",
              "name": "amount",
              "type": "uint256"
            }
          ],
          "internalType": "struct VulcanoCoin.Payment[]",
          "name": "",
          "type": "tuple[]"
        }
      ],
      "stateMutability": "view",
      "type": "function"
    },
    {
      "inputs": [],
      "name": "increaseTotalSupply",
      "outputs": [],
      "stateMutability": "nonpayable",
      "type": "function"
    },
    {
      "inputs": [],
      "name": "owner",
      "outputs": [
        {
          "internalType": "address",
          "name": "",
          "type": "address"
        }
      ],
      "stateMutability": "view",
      "type": "function"
    },
    {
      "inputs": [],
      "name": "renounceOwnership",
      "outputs": [],
      "stateMutability": "nonpayable",
      "type": "function"
    },
    {
      "inputs": [
        {
          "internalType": "address",
          "name": "_to",
          "type": "address"
        },
        {
          "internalType": "uint256",
          "name": "_amount",
          "type": "uint256"
        }
      ],
      "name": "transfer",
      "outputs": [],
      "stateMutability": "nonpayable",
      "type": "function"
    },
    {
      "inputs": [
        {
          "internalType": "address",
          "name": "newOwner",
          "type": "address"
        }
      ],
      "name": "transferOwnership",
      "outputs": [],
      "stateMutability": "nonpayable",
      "type": "function"
    }
  ],
  "bytecode": "0x608060405261271060015534801561001657600080fd5b506100336100286100a560201b60201c565b6100ad60201b60201c565b3373ffffffffffffffffffffffffffffffffffffffff1661005861017160201b60201c565b5050600154600260003373ffffffffffffffffffffffffffffffffffffffff1673ffffffffffffffffffffffffffffffffffffffff1681526020019081526020016000208190555061019a565b600033905090565b60008060009054906101000a900473ffffffffffffffffffffffffffffffffffffffff169050816000806101000a81548173ffffffffffffffffffffffffffffffffffffffff021916908373ffffffffffffffffffffffffffffffffffffffff1602179055508173ffffffffffffffffffffffffffffffffffffffff168173ffffffffffffffffffffffffffffffffffffffff167f8be0079c531659141344cd1fd0a4f28419497f9722a3daafe3b4186f6b6457e060405160405180910390a35050565b60008060009054906101000a900473ffffffffffffffffffffffffffffffffffffffff16905090565b610f03806101a96000396000f3fe608060405234801561001057600080fd5b50600436106100935760003560e01c8063902d55a511610066578063902d55a514610120578063a9059cbb1461013e578063c4e41b221461015a578063de0f2be114610178578063f2fde38b1461018257610093565b806334aac9961461009857806347734892146100c8578063715018a6146100f85780638da5cb5b14610102575b600080fd5b6100b260048036038101906100ad91906108d8565b61019e565b6040516100bf9190610a0b565b60405180910390f35b6100e260048036038101906100dd91906108d8565b61029c565b6040516100ef9190610a3c565b60405180910390f35b6101006102e5565b005b61010a6102f9565b6040516101179190610a66565b60405180910390f35b610128610322565b6040516101359190610a3c565b60405180910390f35b61015860048036038101906101539190610aad565b610328565b005b6101626104df565b60405161016f9190610a3c565b60405180910390f35b6101806104e9565b005b61019c600480360381019061019791906108d8565b6105bc565b005b6060600360008373ffffffffffffffffffffffffffffffffffffffff1673ffffffffffffffffffffffffffffffffffffffff168152602001908152602001600020805480602002602001604051908101604052809291908181526020016000905b8282101561029157838290600052602060002090600202016040518060400160405290816000820160009054906101000a900473ffffffffffffffffffffffffffffffffffffffff1673ffffffffffffffffffffffffffffffffffffffff1673ffffffffffffffffffffffffffffffffffffffff168152602001600182015481525050815260200190600101906101ff565b505050509050919050565b6000600260008373ffffffffffffffffffffffffffffffffffffffff1673ffffffffffffffffffffffffffffffffffffffff168152602001908152602001600020549050919050565b6102ed610640565b6102f760006106be565b565b60008060009054906101000a900473ffffffffffffffffffffffffffffffffffffffff16905090565b60015481565b80600260003373ffffffffffffffffffffffffffffffffffffffff1673ffffffffffffffffffffffffffffffffffffffff1681526020019081526020016000205410156103aa576040517f08c379a00000000000000000000000000000000000000000000000000000000081526004016103a190610b70565b60405180910390fd5b600081116103ed576040517f08c379a00000000000000000000000000000000000000000000000000000000081526004016103e490610c02565b60405180910390fd5b80600260003373ffffffffffffffffffffffffffffffffffffffff1673ffffffffffffffffffffffffffffffffffffffff168152602001908152602001600020600082825461043c9190610c51565b9250508190555080600260008473ffffffffffffffffffffffffffffffffffffffff1673ffffffffffffffffffffffffffffffffffffffff16815260200190815260200160002060008282546104929190610c85565b925050819055506104a4338383610782565b7f5a2050e3f02d2781f60eea7b6796becb3dd7507e14fce659f8f395d1bcce5fc9816040516104d39190610d27565b60405180910390a15050565b6000600154905090565b6104f1610640565b3373ffffffffffffffffffffffffffffffffffffffff166105106102f9565b73ffffffffffffffffffffffffffffffffffffffff1614610566576040517f08c379a000000000000000000000000000000000000000000000000000000000815260040161055d90610da1565b60405180910390fd5b6103e86001600082825461057a9190610c85565b925050819055507f36a6bfb04e36ebe40c1792d122008a16ba8db271eec24c015129bf170ffb44846001546040516105b29190610e0d565b60405180910390a1565b6105c4610640565b600073ffffffffffffffffffffffffffffffffffffffff168173ffffffffffffffffffffffffffffffffffffffff161415610634576040517f08c379a000000000000000000000000000000000000000000000000000000000815260040161062b90610ead565b60405180910390fd5b61063d816106be565b50565b61064861086d565b73ffffffffffffffffffffffffffffffffffffffff166106666102f9565b73ffffffffffffffffffffffffffffffffffffffff16146106bc576040517f08c379a00000000000000000000000000000000000000000000000000000000081526004016106b390610da1565b60405180910390fd5b565b60008060009054906101000a900473ffffffffffffffffffffffffffffffffffffffff169050816000806101000a81548173ffffffffffffffffffffffffffffffffffffffff021916908373ffffffffffffffffffffffffffffffffffffffff1602179055508173ffffffffffffffffffffffffffffffffffffffff168173ffffffffffffffffffffffffffffffffffffffff167f8be0079c531659141344cd1fd0a4f28419497f9722a3daafe3b4186f6b6457e060405160405180910390a35050565b600360008473ffffffffffffffffffffffffffffffffffffffff1673ffffffffffffffffffffffffffffffffffffffff16815260200190815260200160002060405180604001604052808473ffffffffffffffffffffffffffffffffffffffff16815260200183815250908060018154018082558091505060019003906000526020600020906002020160009091909190915060008201518160000160006101000a81548173ffffffffffffffffffffffffffffffffffffffff021916908373ffffffffffffffffffffffffffffffffffffffff160217905550602082015181600101555050505050565b600033905090565b600080fd5b600073ffffffffffffffffffffffffffffffffffffffff82169050919050565b60006108a58261087a565b9050919050565b6108b58161089a565b81146108c057600080fd5b50565b6000813590506108d2816108ac565b92915050565b6000602082840312156108ee576108ed610875565b5b60006108fc848285016108c3565b91505092915050565b600081519050919050565b600082825260208201905092915050565b6000819050602082019050919050565b61093a8161089a565b82525050565b6000819050919050565b61095381610940565b82525050565b60408201600082015161096f6000850182610931565b506020820151610982602085018261094a565b50505050565b60006109948383610959565b60408301905092915050565b6000602082019050919050565b60006109b882610905565b6109c28185610910565b93506109cd83610921565b8060005b838110156109fe5781516109e58882610988565b97506109f0836109a0565b9250506001810190506109d1565b5085935050505092915050565b60006020820190508181036000830152610a2581846109ad565b905092915050565b610a3681610940565b82525050565b6000602082019050610a516000830184610a2d565b92915050565b610a608161089a565b82525050565b6000602082019050610a7b6000830184610a57565b92915050565b610a8a81610940565b8114610a9557600080fd5b50565b600081359050610aa781610a81565b92915050565b60008060408385031215610ac457610ac3610875565b5b6000610ad2858286016108c3565b9250506020610ae385828601610a98565b9150509250929050565b600082825260208201905092915050565b7f4e6f7420656e6f7567682062616c616e636520746f206578656375746520796f60008201527f7572207472616e736665722e0000000000000000000000000000000000000000602082015250565b6000610b5a602c83610aed565b9150610b6582610afe565b604082019050919050565b60006020820190508181036000830152610b8981610b4d565b9050919050565b7f7472616e7366657220616d6f756e74206d75737420626520677265617465722060008201527f7468616e20300000000000000000000000000000000000000000000000000000602082015250565b6000610bec602683610aed565b9150610bf782610b90565b604082019050919050565b60006020820190508181036000830152610c1b81610bdf565b9050919050565b7f4e487b7100000000000000000000000000000000000000000000000000000000600052601160045260246000fd5b6000610c5c82610940565b9150610c6783610940565b925082821015610c7a57610c79610c22565b5b828203905092915050565b6000610c9082610940565b9150610c9b83610940565b9250827fffffffffffffffffffffffffffffffffffffffffffffffffffffffffffffffff03821115610cd057610ccf610c22565b5b828201905092915050565b7f416d6f756e74207472616e736665726564203d20000000000000000000000000600082015250565b6000610d11601483610aed565b9150610d1c82610cdb565b602082019050919050565b60006040820190508181036000830152610d4081610d04565b9050610d4f6020830184610a2d565b92915050565b7f4f776e61626c653a2063616c6c6572206973206e6f7420746865206f776e6572600082015250565b6000610d8b602083610aed565b9150610d9682610d55565b602082019050919050565b60006020820190508181036000830152610dba81610d7e565b9050919050565b7f4e657720546f74616c20537570706c79203d2000000000000000000000000000600082015250565b6000610df7601383610aed565b9150610e0282610dc1565b602082019050919050565b60006040820190508181036000830152610e2681610dea565b9050610e356020830184610a2d565b92915050565b7f4f776e61626c653a206e6577206f776e657220697320746865207a65726f206160008201527f6464726573730000000000000000000000000000000000000000000000000000602082015250565b6000610e97602683610aed565b9150610ea282610e3b565b604082019050919050565b60006020820190508181036000830152610ec681610e8a565b905091905056fea2646970667358221220a749d4dfa21d1376ca974176c44915f11eb384a25b9dd3f77021a973546ce02e64736f6c63430008090033",
  "linkReferences": {},
  "deployedLinkReferences": {}
}