{
  "_format": "hh-sol-artifact-1",
  "contractName": "VulcanoCoin",
  "sourceName": "contracts/ethdenver_lessons/D8/VulcanoCoin.sol",
  "abi": [
    {
      "inputs": [],
      "stateMutability": "nonpayable",
      "type": "constructor"
    },
    {
      "anonymous": false,
      "inputs": [
        {
          "indexed": true,
          "internalType": "address",
          "name": "previousOwner",
          "type": "address"
        },
        {
          "indexed": true,
          "internalType": "address",
          "name": "newOwner",
          "type": "address"
        }
      ],
      "name": "OwnershipTransferred",
      "type": "event"
    },
    {
      "anonymous": false,
      "inputs": [
        {
          "indexed": false,
          "internalType": "string",
          "name": "",
          "type": "string"
        },
        {
          "indexed": false,
          "internalType": "uint256",
          "name": "",
          "type": "uint256"
        }
      ],
      "name": "eventTotalSupplyChanged",
      "type": "event"
    },
    {
      "anonymous": false,
      "inputs": [
        {
          "indexed": false,
          "internalType": "string",
          "name": "",
          "type": "string"
        },
        {
          "indexed": false,
          "internalType": "uint256",
          "name": "",
          "type": "uint256"
        }
      ],
      "name": "eventTransfer",
      "type": "event"
    },
    {
      "inputs": [],
      "name": "TOTAL_SUPPLY",
      "outputs": [
        {
          "internalType": "uint256",
          "name": "",
          "type": "uint256"
        }
      ],
      "stateMutability": "view",
      "type": "function"
    },
    {
      "inputs": [],
      "name": "getTotalSupply",
      "outputs": [
        {
          "internalType": "uint256",
          "name": "",
          "type": "uint256"
        }
      ],
      "stateMutability": "view",
      "type": "function"
    },
    {
      "inputs": [
        {
          "internalType": "address",
          "name": "_user",
          "type": "address"
        }
      ],
      "name": "getUserBalance",
      "outputs": [
        {
          "internalType": "uint256",
          "name": "",
          "type": "uint256"
        }
      ],
      "stateMutability": "view",
      "type": "function"
    },
    {
      "inputs": [
        {
          "internalType": "address",
          "name": "_user",
          "type": "address"
        }
      ],
      "name": "getUserPayment",
      "outputs": [
        {
          "components": [
            {
              "internalType": "address",
              "name": "to",
              "type": "address"
            },
            {
              "internalType": "uint256",
              "name": "amount",
              "type": "uint256"
            }
          ],
          "internalType": "struct VulcanoCoin.Payment[]",
          "name": "",
          "type": "tuple[]"
        }
      ],
      "stateMutability": "view",
      "type": "function"
    },
    {
      "inputs": [],
      "name": "increaseTotalSupply",
      "outputs": [],
      "stateMutability": "nonpayable",
      "type": "function"
    },
    {
      "inputs": [],
      "name": "owner",
      "outputs": [
        {
          "internalType": "address",
          "name": "",
          "type": "address"
        }
      ],
      "stateMutability": "view",
      "type": "function"
    },
    {
      "inputs": [],
      "name": "renounceOwnership",
      "outputs": [],
      "stateMutability": "nonpayable",
      "type": "function"
    },
    {
      "inputs": [
        {
          "internalType": "address",
          "name": "_to",
          "type": "address"
        },
        {
          "internalType": "uint256",
          "name": "_amount",
          "type": "uint256"
        }
      ],
      "name": "transfer",
      "outputs": [],
      "stateMutability": "nonpayable",
      "type": "function"
    },
    {
      "inputs": [
        {
          "internalType": "address",
          "name": "newOwner",
          "type": "address"
        }
      ],
      "name": "transferOwnership",
      "outputs": [],
      "stateMutability": "nonpayable",
      "type": "function"
    }
  ],
  "bytecode": "0x608060405261271060015534801561001657600080fd5b5061003361002861007e60201b60201c565b61008660201b60201c565b600154600260003373ffffffffffffffffffffffffffffffffffffffff1673ffffffffffffffffffffffffffffffffffffffff1681526020019081526020016000208190555061014a565b600033905090565b60008060009054906101000a900473ffffffffffffffffffffffffffffffffffffffff169050816000806101000a81548173ffffffffffffffffffffffffffffffffffffffff021916908373ffffffffffffffffffffffffffffffffffffffff1602179055508173ffffffffffffffffffffffffffffffffffffffff168173ffffffffffffffffffffffffffffffffffffffff167f8be0079c531659141344cd1fd0a4f28419497f9722a3daafe3b4186f6b6457e060405160405180910390a35050565b610e8e806101596000396000f3fe608060405234801561001057600080fd5b50600436106100935760003560e01c8063902d55a511610066578063902d55a514610120578063a9059cbb1461013e578063c4e41b221461015a578063de0f2be114610178578063f2fde38b1461018257610093565b806334aac9961461009857806347734892146100c8578063715018a6146100f85780638da5cb5b14610102575b600080fd5b6100b260048036038101906100ad9190610863565b61019e565b6040516100bf9190610996565b60405180910390f35b6100e260048036038101906100dd9190610863565b61029c565b6040516100ef91906109c7565b60405180910390f35b6101006102e5565b005b61010a6102f9565b60405161011791906109f1565b60405180910390f35b610128610322565b60405161013591906109c7565b60405180910390f35b61015860048036038101906101539190610a38565b610328565b005b6101626104df565b60405161016f91906109c7565b60405180910390f35b6101806104e9565b005b61019c60048036038101906101979190610863565b610547565b005b6060600360008373ffffffffffffffffffffffffffffffffffffffff1673ffffffffffffffffffffffffffffffffffffffff168152602001908152602001600020805480602002602001604051908101604052809291908181526020016000905b8282101561029157838290600052602060002090600202016040518060400160405290816000820160009054906101000a900473ffffffffffffffffffffffffffffffffffffffff1673ffffffffffffffffffffffffffffffffffffffff1673ffffffffffffffffffffffffffffffffffffffff168152602001600182015481525050815260200190600101906101ff565b505050509050919050565b6000600260008373ffffffffffffffffffffffffffffffffffffffff1673ffffffffffffffffffffffffffffffffffffffff168152602001908152602001600020549050919050565b6102ed6105cb565b6102f76000610649565b565b60008060009054906101000a900473ffffffffffffffffffffffffffffffffffffffff16905090565b60015481565b80600260003373ffffffffffffffffffffffffffffffffffffffff1673ffffffffffffffffffffffffffffffffffffffff1681526020019081526020016000205410156103aa576040517f08c379a00000000000000000000000000000000000000000000000000000000081526004016103a190610afb565b60405180910390fd5b600081116103ed576040517f08c379a00000000000000000000000000000000000000000000000000000000081526004016103e490610b8d565b60405180910390fd5b80600260003373ffffffffffffffffffffffffffffffffffffffff1673ffffffffffffffffffffffffffffffffffffffff168152602001908152602001600020600082825461043c9190610bdc565b9250508190555080600260008473ffffffffffffffffffffffffffffffffffffffff1673ffffffffffffffffffffffffffffffffffffffff16815260200190815260200160002060008282546104929190610c10565b925050819055506104a433838361070d565b7f5a2050e3f02d2781f60eea7b6796becb3dd7507e14fce659f8f395d1bcce5fc9816040516104d39190610cb2565b60405180910390a15050565b6000600154905090565b6104f16105cb565b6103e8600160008282546105059190610c10565b925050819055507f36a6bfb04e36ebe40c1792d122008a16ba8db271eec24c015129bf170ffb448460015460405161053d9190610d2c565b60405180910390a1565b61054f6105cb565b600073ffffffffffffffffffffffffffffffffffffffff168173ffffffffffffffffffffffffffffffffffffffff1614156105bf576040517f08c379a00000000000000000000000000000000000000000000000000000000081526004016105b690610dcc565b60405180910390fd5b6105c881610649565b50565b6105d36107f8565b73ffffffffffffffffffffffffffffffffffffffff166105f16102f9565b73ffffffffffffffffffffffffffffffffffffffff1614610647576040517f08c379a000000000000000000000000000000000000000000000000000000000815260040161063e90610e38565b60405180910390fd5b565b60008060009054906101000a900473ffffffffffffffffffffffffffffffffffffffff169050816000806101000a81548173ffffffffffffffffffffffffffffffffffffffff021916908373ffffffffffffffffffffffffffffffffffffffff1602179055508173ffffffffffffffffffffffffffffffffffffffff168173ffffffffffffffffffffffffffffffffffffffff167f8be0079c531659141344cd1fd0a4f28419497f9722a3daafe3b4186f6b6457e060405160405180910390a35050565b600360008473ffffffffffffffffffffffffffffffffffffffff1673ffffffffffffffffffffffffffffffffffffffff16815260200190815260200160002060405180604001604052808473ffffffffffffffffffffffffffffffffffffffff16815260200183815250908060018154018082558091505060019003906000526020600020906002020160009091909190915060008201518160000160006101000a81548173ffffffffffffffffffffffffffffffffffffffff021916908373ffffffffffffffffffffffffffffffffffffffff160217905550602082015181600101555050505050565b600033905090565b600080fd5b600073ffffffffffffffffffffffffffffffffffffffff82169050919050565b600061083082610805565b9050919050565b61084081610825565b811461084b57600080fd5b50565b60008135905061085d81610837565b92915050565b60006020828403121561087957610878610800565b5b60006108878482850161084e565b91505092915050565b600081519050919050565b600082825260208201905092915050565b6000819050602082019050919050565b6108c581610825565b82525050565b6000819050919050565b6108de816108cb565b82525050565b6040820160008201516108fa60008501826108bc565b50602082015161090d60208501826108d5565b50505050565b600061091f83836108e4565b60408301905092915050565b6000602082019050919050565b600061094382610890565b61094d818561089b565b9350610958836108ac565b8060005b838110156109895781516109708882610913565b975061097b8361092b565b92505060018101905061095c565b5085935050505092915050565b600060208201905081810360008301526109b08184610938565b905092915050565b6109c1816108cb565b82525050565b60006020820190506109dc60008301846109b8565b92915050565b6109eb81610825565b82525050565b6000602082019050610a0660008301846109e2565b92915050565b610a15816108cb565b8114610a2057600080fd5b50565b600081359050610a3281610a0c565b92915050565b60008060408385031215610a4f57610a4e610800565b5b6000610a5d8582860161084e565b9250506020610a6e85828601610a23565b9150509250929050565b600082825260208201905092915050565b7f4e6f7420656e6f7567682062616c616e636520746f206578656375746520796f60008201527f7572207472616e736665722e0000000000000000000000000000000000000000602082015250565b6000610ae5602c83610a78565b9150610af082610a89565b604082019050919050565b60006020820190508181036000830152610b1481610ad8565b9050919050565b7f7472616e7366657220616d6f756e74206d75737420626520677265617465722060008201527f7468616e20300000000000000000000000000000000000000000000000000000602082015250565b6000610b77602683610a78565b9150610b8282610b1b565b604082019050919050565b60006020820190508181036000830152610ba681610b6a565b9050919050565b7f4e487b7100000000000000000000000000000000000000000000000000000000600052601160045260246000fd5b6000610be7826108cb565b9150610bf2836108cb565b925082821015610c0557610c04610bad565b5b828203905092915050565b6000610c1b826108cb565b9150610c26836108cb565b9250827fffffffffffffffffffffffffffffffffffffffffffffffffffffffffffffffff03821115610c5b57610c5a610bad565b5b828201905092915050565b7f416d6f756e74207472616e736665726564203d20000000000000000000000000600082015250565b6000610c9c601483610a78565b9150610ca782610c66565b602082019050919050565b60006040820190508181036000830152610ccb81610c8f565b9050610cda60208301846109b8565b92915050565b7f4e657720546f74616c20537570706c79203d2000000000000000000000000000600082015250565b6000610d16601383610a78565b9150610d2182610ce0565b602082019050919050565b60006040820190508181036000830152610d4581610d09565b9050610d5460208301846109b8565b92915050565b7f4f776e61626c653a206e6577206f776e657220697320746865207a65726f206160008201527f6464726573730000000000000000000000000000000000000000000000000000602082015250565b6000610db6602683610a78565b9150610dc182610d5a565b604082019050919050565b60006020820190508181036000830152610de581610da9565b9050919050565b7f4f776e61626c653a2063616c6c6572206973206e6f7420746865206f776e6572600082015250565b6000610e22602083610a78565b9150610e2d82610dec565b602082019050919050565b60006020820190508181036000830152610e5181610e15565b905091905056fea2646970667358221220a762182e763e2fe66911aa06c09cfad4623ee29f5d323ff5edc364664e93973f64736f6c63430008090033",
  "linkReferences": {},
  "deployedLinkReferences": {}
}