{
  "_format": "hh-sol-artifact-1",
  "contractName": "BootcampContract",
  "sourceName": "contracts/ethdenver_lessons/D3/Bootcamp.sol",
  "abi": [
    {
      "inputs": [],
      "stateMutability": "nonpayable",
      "type": "constructor"
    },
    {
      "inputs": [],
      "name": "owner",
      "outputs": [
        {
          "internalType": "address",
          "name": "",
          "type": "address"
        }
      ],
      "stateMutability": "view",
      "type": "function"
    },
    {
      "inputs": [],
      "name": "retrieve",
      "outputs": [
        {
          "internalType": "uint256",
          "name": "",
          "type": "uint256"
        }
      ],
      "stateMutability": "view",
      "type": "function"
    },
    {
      "inputs": [],
      "name": "setDeployerAddress",
      "outputs": [
        {
          "internalType": "address",
          "name": "",
          "type": "address"
        }
      ],
      "stateMutability": "view",
      "type": "function"
    },
    {
      "inputs": [
        {
          "internalType": "uint256",
          "name": "num",
          "type": "uint256"
        }
      ],
      "name": "store",
      "outputs": [],
      "stateMutability": "nonpayable",
      "type": "function"
    }
  ],
  "bytecode": "0x608060405261dead600260006101000a81548173ffffffffffffffffffffffffffffffffffffffff021916908373ffffffffffffffffffffffffffffffffffffffff16021790555034801561005357600080fd5b5033600160006101000a81548173ffffffffffffffffffffffffffffffffffffffff021916908373ffffffffffffffffffffffffffffffffffffffff1602179055506102cf806100a46000396000f3fe608060405234801561001057600080fd5b506004361061004c5760003560e01c80632e64cec1146100515780636057361d1461006f578063842b6c401461008b5780638da5cb5b146100a9575b600080fd5b6100596100c7565b60405161006691906101c4565b60405180910390f35b61008960048036038101906100849190610210565b6100d0565b005b6100936100da565b6040516100a0919061027e565b60405180910390f35b6100b1610185565b6040516100be919061027e565b60405180910390f35b60008054905090565b8060008190555050565b6000600160009054906101000a900473ffffffffffffffffffffffffffffffffffffffff1673ffffffffffffffffffffffffffffffffffffffff163373ffffffffffffffffffffffffffffffffffffffff16141561015c57600260009054906101000a900473ffffffffffffffffffffffffffffffffffffffff169050610182565b600160009054906101000a900473ffffffffffffffffffffffffffffffffffffffff1690505b90565b600160009054906101000a900473ffffffffffffffffffffffffffffffffffffffff1681565b6000819050919050565b6101be816101ab565b82525050565b60006020820190506101d960008301846101b5565b92915050565b600080fd5b6101ed816101ab565b81146101f857600080fd5b50565b60008135905061020a816101e4565b92915050565b600060208284031215610226576102256101df565b5b6000610234848285016101fb565b91505092915050565b600073ffffffffffffffffffffffffffffffffffffffff82169050919050565b60006102688261023d565b9050919050565b6102788161025d565b82525050565b6000602082019050610293600083018461026f565b9291505056fea2646970667358221220aa68043db47074b9016eb383912e290c38d2e70551b5cb8111140c04f712872c64736f6c63430008090033",
  "linkReferences": {},
  "deployedLinkReferences": {}
}