{
  "_format": "hh-sol-artifact-1",
  "contractName": "BootcampContract",
  "sourceName": "contracts/ethdenver_lessons/D3/Bootcamp.sol",
  "abi": [
    {
      "inputs": [],
      "stateMutability": "nonpayable",
      "type": "constructor"
    },
    {
      "inputs": [],
      "name": "owner",
      "outputs": [
        {
          "internalType": "address",
          "name": "",
          "type": "address"
        }
      ],
      "stateMutability": "view",
      "type": "function"
    },
    {
      "inputs": [],
      "name": "retrieve",
      "outputs": [
        {
          "internalType": "uint256",
          "name": "",
          "type": "uint256"
        }
      ],
      "stateMutability": "view",
      "type": "function"
    },
    {
      "inputs": [],
      "name": "setDeployerAddress",
      "outputs": [
        {
          "internalType": "address",
          "name": "",
          "type": "address"
        }
      ],
      "stateMutability": "view",
      "type": "function"
    },
    {
      "inputs": [
        {
          "internalType": "uint256",
          "name": "num",
          "type": "uint256"
        }
      ],
      "name": "store",
      "outputs": [],
      "stateMutability": "nonpayable",
      "type": "function"
    }
  ],
  "bytecode": "0x608060405261dead600260006101000a81548173ffffffffffffffffffffffffffffffffffffffff021916908373ffffffffffffffffffffffffffffffffffffffff16021790555034801561005357600080fd5b5033600160006101000a81548173ffffffffffffffffffffffffffffffffffffffff021916908373ffffffffffffffffffffffffffffffffffffffff1602179055506102ce806100a46000396000f3fe608060405234801561001057600080fd5b506004361061004c5760003560e01c80632e64cec1146100515780636057361d1461006f578063842b6c401461008b5780638da5cb5b146100a9575b600080fd5b6100596100c7565b60405161006691906101c3565b60405180910390f35b6100896004803603810190610084919061020f565b6100d0565b005b6100936100da565b6040516100a0919061027d565b60405180910390f35b6100b1610184565b6040516100be919061027d565b60405180910390f35b60008054905090565b8060008190555050565b6000600160009054906101000a900473ffffffffffffffffffffffffffffffffffffffff1673ffffffffffffffffffffffffffffffffffffffff163373ffffffffffffffffffffffffffffffffffffffff160361015b57600260009054906101000a900473ffffffffffffffffffffffffffffffffffffffff169050610181565b600160009054906101000a900473ffffffffffffffffffffffffffffffffffffffff1690505b90565b600160009054906101000a900473ffffffffffffffffffffffffffffffffffffffff1681565b6000819050919050565b6101bd816101aa565b82525050565b60006020820190506101d860008301846101b4565b92915050565b600080fd5b6101ec816101aa565b81146101f757600080fd5b50565b600081359050610209816101e3565b92915050565b600060208284031215610225576102246101de565b5b6000610233848285016101fa565b91505092915050565b600073ffffffffffffffffffffffffffffffffffffffff82169050919050565b60006102678261023c565b9050919050565b6102778161025c565b82525050565b6000602082019050610292600083018461026e565b9291505056fea2646970667358221220ea64f1192900e593345266a6fc28caa0c257425380bb212c89bb49eadb08f7be64736f6c63430008110033",
  "linkReferences": {},
  "deployedLinkReferences": {}
}