{
  "_format": "hh-sol-artifact-1",
  "contractName": "CallerBootcampContract",
  "sourceName": "contracts/ethdenver_lessons/D3/Bootcamp.sol",
  "abi": [
    {
      "inputs": [],
      "name": "deployAddress",
      "outputs": [
        {
          "internalType": "address",
          "name": "",
          "type": "address"
        }
      ],
      "stateMutability": "view",
      "type": "function"
    },
    {
      "inputs": [
        {
          "internalType": "address",
          "name": "_bcaddr",
          "type": "address"
        }
      ],
      "name": "storeAddress",
      "outputs": [],
      "stateMutability": "nonpayable",
      "type": "function"
    }
  ],
  "bytecode": "0x608060405234801561001057600080fd5b50610281806100206000396000f3fe608060405234801561001057600080fd5b50600436106100365760003560e01c80637128666b1461003b578063993a86bd14610057575b600080fd5b610055600480360381019061005091906101b2565b610075565b005b61005f6100b8565b60405161006c91906101ee565b60405180910390f35b806000806101000a81548173ffffffffffffffffffffffffffffffffffffffff021916908373ffffffffffffffffffffffffffffffffffffffff16021790555050565b60008060009054906101000a900473ffffffffffffffffffffffffffffffffffffffff1673ffffffffffffffffffffffffffffffffffffffff1663842b6c406040518163ffffffff1660e01b8152600401602060405180830381865afa158015610126573d6000803e3d6000fd5b505050506040513d601f19601f8201168201806040525081019061014a919061021e565b905090565b600080fd5b600073ffffffffffffffffffffffffffffffffffffffff82169050919050565b600061017f82610154565b9050919050565b61018f81610174565b811461019a57600080fd5b50565b6000813590506101ac81610186565b92915050565b6000602082840312156101c8576101c761014f565b5b60006101d68482850161019d565b91505092915050565b6101e881610174565b82525050565b600060208201905061020360008301846101df565b92915050565b60008151905061021881610186565b92915050565b6000602082840312156102345761023361014f565b5b600061024284828501610209565b9150509291505056fea2646970667358221220fc2ba4476b9e2f3660e6b40574ce0324240a724a34cbdfced9f5c807e165aedd64736f6c63430008110033",
  "linkReferences": {},
  "deployedLinkReferences": {}
}