{
  "_format": "hh-sol-artifact-1",
  "contractName": "CallerBootcampContract",
  "sourceName": "contracts/ethdenver_lessons/D3/Bootcamp.sol",
  "abi": [
    {
      "inputs": [],
      "name": "deployAddress",
      "outputs": [
        {
          "internalType": "address",
          "name": "",
          "type": "address"
        }
      ],
      "stateMutability": "view",
      "type": "function"
    },
    {
      "inputs": [
        {
          "internalType": "address",
          "name": "_bcaddr",
          "type": "address"
        }
      ],
      "name": "storeAddress",
      "outputs": [],
      "stateMutability": "nonpayable",
      "type": "function"
    }
  ],
  "bytecode": "0x608060405234801561001057600080fd5b50610290806100206000396000f3fe608060405234801561001057600080fd5b50600436106100365760003560e01c80637128666b1461003b578063993a86bd14610057575b600080fd5b610055600480360381019061005091906101c1565b610075565b005b61005f6100b8565b60405161006c91906101fd565b60405180910390f35b806000806101000a81548173ffffffffffffffffffffffffffffffffffffffff021916908373ffffffffffffffffffffffffffffffffffffffff16021790555050565b60008060009054906101000a900473ffffffffffffffffffffffffffffffffffffffff1673ffffffffffffffffffffffffffffffffffffffff1663842b6c406040518163ffffffff1660e01b815260040160206040518083038186803b15801561012157600080fd5b505afa158015610135573d6000803e3d6000fd5b505050506040513d601f19601f82011682018060405250810190610159919061022d565b905090565b600080fd5b600073ffffffffffffffffffffffffffffffffffffffff82169050919050565b600061018e82610163565b9050919050565b61019e81610183565b81146101a957600080fd5b50565b6000813590506101bb81610195565b92915050565b6000602082840312156101d7576101d661015e565b5b60006101e5848285016101ac565b91505092915050565b6101f781610183565b82525050565b600060208201905061021260008301846101ee565b92915050565b60008151905061022781610195565b92915050565b6000602082840312156102435761024261015e565b5b600061025184828501610218565b9150509291505056fea26469706673582212200584067c253bb87c2cb862b0749685d506809e9d39742e378f917b9767426cf264736f6c63430008090033",
  "linkReferences": {},
  "deployedLinkReferences": {}
}