{
  "_format": "hh-sol-artifact-1",
  "contractName": "VolcanoCoin",
  "sourceName": "contracts/ethdenver_lessons/D4/VolcanoCoin.sol",
  "abi": [
    {
      "inputs": [],
      "stateMutability": "nonpayable",
      "type": "constructor"
    },
    {
      "anonymous": false,
      "inputs": [
        {
          "indexed": false,
          "internalType": "string",
          "name": "",
          "type": "string"
        },
        {
          "indexed": false,
          "internalType": "uint256",
          "name": "",
          "type": "uint256"
        }
      ],
      "name": "eventTotalSupplyChanged",
      "type": "event"
    },
    {
      "anonymous": false,
      "inputs": [
        {
          "indexed": false,
          "internalType": "string",
          "name": "",
          "type": "string"
        },
        {
          "indexed": false,
          "internalType": "uint256",
          "name": "",
          "type": "uint256"
        }
      ],
      "name": "eventTransfer",
      "type": "event"
    },
    {
      "inputs": [],
      "name": "TOTAL_SUPPLY",
      "outputs": [
        {
          "internalType": "uint256",
          "name": "",
          "type": "uint256"
        }
      ],
      "stateMutability": "view",
      "type": "function"
    },
    {
      "inputs": [
        {
          "internalType": "address",
          "name": "user",
          "type": "address"
        }
      ],
      "name": "getUserBalance",
      "outputs": [
        {
          "internalType": "uint256",
          "name": "",
          "type": "uint256"
        }
      ],
      "stateMutability": "view",
      "type": "function"
    },
    {
      "inputs": [],
      "name": "increaseTotalSupply",
      "outputs": [],
      "stateMutability": "nonpayable",
      "type": "function"
    },
    {
      "inputs": [],
      "name": "owner",
      "outputs": [
        {
          "internalType": "address",
          "name": "",
          "type": "address"
        }
      ],
      "stateMutability": "view",
      "type": "function"
    },
    {
      "inputs": [
        {
          "internalType": "address",
          "name": "",
          "type": "address"
        }
      ],
      "name": "payments",
      "outputs": [
        {
          "internalType": "address",
          "name": "user",
          "type": "address"
        },
        {
          "internalType": "uint256",
          "name": "amount",
          "type": "uint256"
        }
      ],
      "stateMutability": "view",
      "type": "function"
    },
    {
      "inputs": [
        {
          "internalType": "address",
          "name": "user",
          "type": "address"
        },
        {
          "internalType": "uint256",
          "name": "_amount",
          "type": "uint256"
        }
      ],
      "name": "transfer",
      "outputs": [],
      "stateMutability": "nonpayable",
      "type": "function"
    }
  ],
  "bytecode": "0x608060405261271060005534801561001657600080fd5b50600180546001600160a01b03191633908117909155600080549181526002602052604090205561044d8061004c6000396000f3fe608060405234801561001057600080fd5b50600436106100725760003560e01c8063a9059cbb11610050578063a9059cbb146100e7578063de0f2be1146100fc578063e2982c211461010457600080fd5b806347734892146100775780638da5cb5b146100b3578063902d55a5146100de575b600080fd5b6100a0610085366004610370565b6001600160a01b031660009081526002602052604090205490565b6040519081526020015b60405180910390f35b6001546100c6906001600160a01b031681565b6040516001600160a01b0390911681526020016100aa565b6100a060005481565b6100fa6100f5366004610392565b610156565b005b6100fa6102b4565b610137610112366004610370565b600360205260009081526040902080546001909101546001600160a01b039091169082565b604080516001600160a01b0390931683526020830191909152016100aa565b336000908152600260205260409020548111156101f9576040517f08c379a000000000000000000000000000000000000000000000000000000000815260206004820152602c60248201527f4e6f7420656e6f7567682062616c616e636520746f206578656375746520796f60448201527f7572207472616e736665722e0000000000000000000000000000000000000000606482015260840160405180910390fd5b33600090815260026020526040812080548392906102189084906103eb565b90915550506001600160a01b03821660009081526002602052604081208054839290610245908490610404565b9091555050604080518181526014818301527f416d6f756e74207472616e736665726564203d2000000000000000000000000060608201526020810183905290517f5a2050e3f02d2781f60eea7b6796becb3dd7507e14fce659f8f395d1bcce5fc99181900360800190a15050565b6001546001600160a01b03163303610352576103e86000808282546102d99190610404565b90915550506000546040517f36a6bfb04e36ebe40c1792d122008a16ba8db271eec24c015129bf170ffb4484916103499160408082526013908201527f4e657720546f74616c20537570706c79203d20000000000000000000000000006060820152602081019190915260800190565b60405180910390a15b565b80356001600160a01b038116811461036b57600080fd5b919050565b60006020828403121561038257600080fd5b61038b82610354565b9392505050565b600080604083850312156103a557600080fd5b6103ae83610354565b946020939093013593505050565b7f4e487b7100000000000000000000000000000000000000000000000000000000600052601160045260246000fd5b818103818111156103fe576103fe6103bc565b92915050565b808201808211156103fe576103fe6103bc56fea2646970667358221220e1d88c36ccaa2b6a93f8e8cf966ae33a6951046c076c13b954dd1745b5d2c66064736f6c63430008110033",
  "linkReferences": {},
  "deployedLinkReferences": {}
}