{
	"contracts/ethdenver_lessons/D4/VolcanoCoin.sol": {
		"VolcanoCoin": {
			"abi": [
				{
					"inputs": [],
					"stateMutability": "nonpayable",
					"type": "constructor"
				},
				{
					"anonymous": false,
					"inputs": [
						{
							"indexed": false,
							"internalType": "string",
							"name": "",
							"type": "string"
						},
						{
							"indexed": false,
							"internalType": "uint256",
							"name": "",
							"type": "uint256"
						}
					],
					"name": "TotalSupplyChanged",
					"type": "event"
				},
				{
					"inputs": [],
					"name": "TOTAL_SUPPLY",
					"outputs": [
						{
							"internalType": "uint256",
							"name": "",
							"type": "uint256"
						}
					],
					"stateMutability": "view",
					"type": "function"
				},
				{
					"inputs": [],
					"name": "increaseTotalSupply",
					"outputs": [],
					"stateMutability": "nonpayable",
					"type": "function"
				},
				{
					"inputs": [],
					"name": "owner",
					"outputs": [
						{
							"internalType": "address",
							"name": "",
							"type": "address"
						}
					],
					"stateMutability": "view",
					"type": "function"
				}
			],
			"devdoc": {
				"kind": "dev",
				"methods": {},
				"version": 1
			},
			"evm": {
				"assembly": "    /* \"contracts/ethdenver_lessons/D4/VolcanoCoin.sol\":65:534  contract VolcanoCoin {... */\n  mstore(0x40, 0x80)\n    /* \"contracts/ethdenver_lessons/D4/VolcanoCoin.sol\":122:127  10000 */\n  0x2710\n    /* \"contracts/ethdenver_lessons/D4/VolcanoCoin.sol\":92:127  uint256 public TOTAL_SUPPLY = 10000 */\n  0x00\n  sstore\n    /* \"contracts/ethdenver_lessons/D4/VolcanoCoin.sol\":229:278  constructor() {... */\n  callvalue\n  dup1\n  iszero\n  tag_1\n  jumpi\n  0x00\n  dup1\n  revert\ntag_1:\n  pop\n    /* \"contracts/ethdenver_lessons/D4/VolcanoCoin.sol\":261:271  msg.sender */\n  caller\n    /* \"contracts/ethdenver_lessons/D4/VolcanoCoin.sol\":253:258  owner */\n  0x01\n  0x00\n    /* \"contracts/ethdenver_lessons/D4/VolcanoCoin.sol\":253:271  owner = msg.sender */\n  0x0100\n  exp\n  dup2\n  sload\n  dup2\n  0xffffffffffffffffffffffffffffffffffffffff\n  mul\n  not\n  and\n  swap1\n  dup4\n  0xffffffffffffffffffffffffffffffffffffffff\n  and\n  mul\n  or\n  swap1\n  sstore\n  pop\n    /* \"contracts/ethdenver_lessons/D4/VolcanoCoin.sol\":65:534  contract VolcanoCoin {... */\n  dataSize(sub_0)\n  dup1\n  dataOffset(sub_0)\n  0x00\n  codecopy\n  0x00\n  return\nstop\n\nsub_0: assembly {\n        /* \"contracts/ethdenver_lessons/D4/VolcanoCoin.sol\":65:534  contract VolcanoCoin {... */\n      mstore(0x40, 0x80)\n      callvalue\n      dup1\n      iszero\n      tag_1\n      jumpi\n      0x00\n      dup1\n      revert\n    tag_1:\n      pop\n      jumpi(tag_2, lt(calldatasize, 0x04))\n      shr(0xe0, calldataload(0x00))\n      dup1\n      0x8da5cb5b\n      eq\n      tag_3\n      jumpi\n      dup1\n      0x902d55a5\n      eq\n      tag_4\n      jumpi\n      dup1\n      0xde0f2be1\n      eq\n      tag_5\n      jumpi\n    tag_2:\n      0x00\n      dup1\n      revert\n        /* \"contracts/ethdenver_lessons/D4/VolcanoCoin.sol\":133:153  address public owner */\n    tag_3:\n      tag_6\n      tag_7\n      jump\t// in\n    tag_6:\n      mload(0x40)\n      tag_8\n      swap2\n      swap1\n      tag_9\n      jump\t// in\n    tag_8:\n      mload(0x40)\n      dup1\n      swap2\n      sub\n      swap1\n      return\n        /* \"contracts/ethdenver_lessons/D4/VolcanoCoin.sol\":92:127  uint256 public TOTAL_SUPPLY = 10000 */\n    tag_4:\n      tag_10\n      tag_11\n      jump\t// in\n    tag_10:\n      mload(0x40)\n      tag_12\n      swap2\n      swap1\n      tag_13\n      jump\t// in\n    tag_12:\n      mload(0x40)\n      dup1\n      swap2\n      sub\n      swap1\n      return\n        /* \"contracts/ethdenver_lessons/D4/VolcanoCoin.sol\":376:532  function increaseTotalSupply() public onlyOwner {... */\n    tag_5:\n      tag_14\n      tag_15\n      jump\t// in\n    tag_14:\n      stop\n        /* \"contracts/ethdenver_lessons/D4/VolcanoCoin.sol\":133:153  address public owner */\n    tag_7:\n      0x01\n      0x00\n      swap1\n      sload\n      swap1\n      0x0100\n      exp\n      swap1\n      div\n      0xffffffffffffffffffffffffffffffffffffffff\n      and\n      dup2\n      jump\t// out\n        /* \"contracts/ethdenver_lessons/D4/VolcanoCoin.sol\":92:127  uint256 public TOTAL_SUPPLY = 10000 */\n    tag_11:\n      sload(0x00)\n      dup2\n      jump\t// out\n        /* \"contracts/ethdenver_lessons/D4/VolcanoCoin.sol\":376:532  function increaseTotalSupply() public onlyOwner {... */\n    tag_15:\n        /* \"contracts/ethdenver_lessons/D4/VolcanoCoin.sol\":331:336  owner */\n      0x01\n      0x00\n      swap1\n      sload\n      swap1\n      0x0100\n      exp\n      swap1\n      div\n      0xffffffffffffffffffffffffffffffffffffffff\n      and\n        /* \"contracts/ethdenver_lessons/D4/VolcanoCoin.sol\":317:336  msg.sender == owner */\n      0xffffffffffffffffffffffffffffffffffffffff\n      and\n        /* \"contracts/ethdenver_lessons/D4/VolcanoCoin.sol\":317:327  msg.sender */\n      caller\n        /* \"contracts/ethdenver_lessons/D4/VolcanoCoin.sol\":317:336  msg.sender == owner */\n      0xffffffffffffffffffffffffffffffffffffffff\n      and\n      eq\n        /* \"contracts/ethdenver_lessons/D4/VolcanoCoin.sol\":313:364  if (msg.sender == owner) {... */\n      iszero\n      tag_17\n      jumpi\n        /* \"contracts/ethdenver_lessons/D4/VolcanoCoin.sol\":450:454  1000 */\n      0x03e8\n        /* \"contracts/ethdenver_lessons/D4/VolcanoCoin.sol\":434:446  TOTAL_SUPPLY */\n      0x00\n      dup1\n        /* \"contracts/ethdenver_lessons/D4/VolcanoCoin.sol\":434:454  TOTAL_SUPPLY += 1000 */\n      dup3\n      dup3\n      sload\n      tag_19\n      swap2\n      swap1\n      tag_20\n      jump\t// in\n    tag_19:\n      swap3\n      pop\n      pop\n      dup2\n      swap1\n      sstore\n      pop\n        /* \"contracts/ethdenver_lessons/D4/VolcanoCoin.sol\":469:525  TotalSupplyChanged(\"New Total Supply = \" , TOTAL_SUPPLY) */\n      0x6ba82df64371c84d944c37346155f81ddd2d81b72fc7cc9b3f37ff87f9e6518f\n        /* \"contracts/ethdenver_lessons/D4/VolcanoCoin.sol\":512:524  TOTAL_SUPPLY */\n      sload(0x00)\n        /* \"contracts/ethdenver_lessons/D4/VolcanoCoin.sol\":469:525  TotalSupplyChanged(\"New Total Supply = \" , TOTAL_SUPPLY) */\n      mload(0x40)\n      tag_21\n      swap2\n      swap1\n      tag_22\n      jump\t// in\n    tag_21:\n      mload(0x40)\n      dup1\n      swap2\n      sub\n      swap1\n      log1\n        /* \"contracts/ethdenver_lessons/D4/VolcanoCoin.sol\":313:364  if (msg.sender == owner) {... */\n    tag_17:\n        /* \"contracts/ethdenver_lessons/D4/VolcanoCoin.sol\":376:532  function increaseTotalSupply() public onlyOwner {... */\n      jump\t// out\n        /* \"#utility.yul\":7:125   */\n    tag_24:\n        /* \"#utility.yul\":94:118   */\n      tag_26\n        /* \"#utility.yul\":112:117   */\n      dup2\n        /* \"#utility.yul\":94:118   */\n      tag_27\n      jump\t// in\n    tag_26:\n        /* \"#utility.yul\":89:92   */\n      dup3\n        /* \"#utility.yul\":82:119   */\n      mstore\n        /* \"#utility.yul\":7:125   */\n      pop\n      pop\n      jump\t// out\n        /* \"#utility.yul\":131:497   */\n    tag_28:\n        /* \"#utility.yul\":273:276   */\n      0x00\n        /* \"#utility.yul\":294:361   */\n      tag_30\n        /* \"#utility.yul\":358:360   */\n      0x13\n        /* \"#utility.yul\":353:356   */\n      dup4\n        /* \"#utility.yul\":294:361   */\n      tag_31\n      jump\t// in\n    tag_30:\n        /* \"#utility.yul\":287:361   */\n      swap2\n      pop\n        /* \"#utility.yul\":370:463   */\n      tag_32\n        /* \"#utility.yul\":459:462   */\n      dup3\n        /* \"#utility.yul\":370:463   */\n      tag_33\n      jump\t// in\n    tag_32:\n        /* \"#utility.yul\":488:490   */\n      0x20\n        /* \"#utility.yul\":483:486   */\n      dup3\n        /* \"#utility.yul\":479:491   */\n      add\n        /* \"#utility.yul\":472:491   */\n      swap1\n      pop\n        /* \"#utility.yul\":131:497   */\n      swap2\n      swap1\n      pop\n      jump\t// out\n        /* \"#utility.yul\":503:621   */\n    tag_34:\n        /* \"#utility.yul\":590:614   */\n      tag_36\n        /* \"#utility.yul\":608:613   */\n      dup2\n        /* \"#utility.yul\":590:614   */\n      tag_37\n      jump\t// in\n    tag_36:\n        /* \"#utility.yul\":585:588   */\n      dup3\n        /* \"#utility.yul\":578:615   */\n      mstore\n        /* \"#utility.yul\":503:621   */\n      pop\n      pop\n      jump\t// out\n        /* \"#utility.yul\":627:849   */\n    tag_9:\n        /* \"#utility.yul\":720:724   */\n      0x00\n        /* \"#utility.yul\":758:760   */\n      0x20\n        /* \"#utility.yul\":747:756   */\n      dup3\n        /* \"#utility.yul\":743:761   */\n      add\n        /* \"#utility.yul\":735:761   */\n      swap1\n      pop\n        /* \"#utility.yul\":771:842   */\n      tag_39\n        /* \"#utility.yul\":839:840   */\n      0x00\n        /* \"#utility.yul\":828:837   */\n      dup4\n        /* \"#utility.yul\":824:841   */\n      add\n        /* \"#utility.yul\":815:821   */\n      dup5\n        /* \"#utility.yul\":771:842   */\n      tag_24\n      jump\t// in\n    tag_39:\n        /* \"#utility.yul\":627:849   */\n      swap3\n      swap2\n      pop\n      pop\n      jump\t// out\n        /* \"#utility.yul\":855:1384   */\n    tag_22:\n        /* \"#utility.yul\":1049:1053   */\n      0x00\n        /* \"#utility.yul\":1087:1089   */\n      0x40\n        /* \"#utility.yul\":1076:1085   */\n      dup3\n        /* \"#utility.yul\":1072:1090   */\n      add\n        /* \"#utility.yul\":1064:1090   */\n      swap1\n      pop\n        /* \"#utility.yul\":1136:1145   */\n      dup2\n        /* \"#utility.yul\":1130:1134   */\n      dup2\n        /* \"#utility.yul\":1126:1146   */\n      sub\n        /* \"#utility.yul\":1122:1123   */\n      0x00\n        /* \"#utility.yul\":1111:1120   */\n      dup4\n        /* \"#utility.yul\":1107:1124   */\n      add\n        /* \"#utility.yul\":1100:1147   */\n      mstore\n        /* \"#utility.yul\":1164:1295   */\n      tag_41\n        /* \"#utility.yul\":1290:1294   */\n      dup2\n        /* \"#utility.yul\":1164:1295   */\n      tag_28\n      jump\t// in\n    tag_41:\n        /* \"#utility.yul\":1156:1295   */\n      swap1\n      pop\n        /* \"#utility.yul\":1305:1377   */\n      tag_42\n        /* \"#utility.yul\":1373:1375   */\n      0x20\n        /* \"#utility.yul\":1362:1371   */\n      dup4\n        /* \"#utility.yul\":1358:1376   */\n      add\n        /* \"#utility.yul\":1349:1355   */\n      dup5\n        /* \"#utility.yul\":1305:1377   */\n      tag_34\n      jump\t// in\n    tag_42:\n        /* \"#utility.yul\":855:1384   */\n      swap3\n      swap2\n      pop\n      pop\n      jump\t// out\n        /* \"#utility.yul\":1390:1612   */\n    tag_13:\n        /* \"#utility.yul\":1483:1487   */\n      0x00\n        /* \"#utility.yul\":1521:1523   */\n      0x20\n        /* \"#utility.yul\":1510:1519   */\n      dup3\n        /* \"#utility.yul\":1506:1524   */\n      add\n        /* \"#utility.yul\":1498:1524   */\n      swap1\n      pop\n        /* \"#utility.yul\":1534:1605   */\n      tag_44\n        /* \"#utility.yul\":1602:1603   */\n      0x00\n        /* \"#utility.yul\":1591:1600   */\n      dup4\n        /* \"#utility.yul\":1587:1604   */\n      add\n        /* \"#utility.yul\":1578:1584   */\n      dup5\n        /* \"#utility.yul\":1534:1605   */\n      tag_34\n      jump\t// in\n    tag_44:\n        /* \"#utility.yul\":1390:1612   */\n      swap3\n      swap2\n      pop\n      pop\n      jump\t// out\n        /* \"#utility.yul\":1618:1787   */\n    tag_31:\n        /* \"#utility.yul\":1702:1713   */\n      0x00\n        /* \"#utility.yul\":1736:1742   */\n      dup3\n        /* \"#utility.yul\":1731:1734   */\n      dup3\n        /* \"#utility.yul\":1724:1743   */\n      mstore\n        /* \"#utility.yul\":1776:1780   */\n      0x20\n        /* \"#utility.yul\":1771:1774   */\n      dup3\n        /* \"#utility.yul\":1767:1781   */\n      add\n        /* \"#utility.yul\":1752:1781   */\n      swap1\n      pop\n        /* \"#utility.yul\":1618:1787   */\n      swap3\n      swap2\n      pop\n      pop\n      jump\t// out\n        /* \"#utility.yul\":1793:2098   */\n    tag_20:\n        /* \"#utility.yul\":1833:1836   */\n      0x00\n        /* \"#utility.yul\":1852:1872   */\n      tag_47\n        /* \"#utility.yul\":1870:1871   */\n      dup3\n        /* \"#utility.yul\":1852:1872   */\n      tag_37\n      jump\t// in\n    tag_47:\n        /* \"#utility.yul\":1847:1872   */\n      swap2\n      pop\n        /* \"#utility.yul\":1886:1906   */\n      tag_48\n        /* \"#utility.yul\":1904:1905   */\n      dup4\n        /* \"#utility.yul\":1886:1906   */\n      tag_37\n      jump\t// in\n    tag_48:\n        /* \"#utility.yul\":1881:1906   */\n      swap3\n      pop\n        /* \"#utility.yul\":2040:2041   */\n      dup3\n        /* \"#utility.yul\":1972:2038   */\n      0xffffffffffffffffffffffffffffffffffffffffffffffffffffffffffffffff\n        /* \"#utility.yul\":1968:2042   */\n      sub\n        /* \"#utility.yul\":1965:1966   */\n      dup3\n        /* \"#utility.yul\":1962:2043   */\n      gt\n        /* \"#utility.yul\":1959:2066   */\n      iszero\n      tag_49\n      jumpi\n        /* \"#utility.yul\":2046:2064   */\n      tag_50\n      tag_51\n      jump\t// in\n    tag_50:\n        /* \"#utility.yul\":1959:2066   */\n    tag_49:\n        /* \"#utility.yul\":2090:2091   */\n      dup3\n        /* \"#utility.yul\":2087:2088   */\n      dup3\n        /* \"#utility.yul\":2083:2092   */\n      add\n        /* \"#utility.yul\":2076:2092   */\n      swap1\n      pop\n        /* \"#utility.yul\":1793:2098   */\n      swap3\n      swap2\n      pop\n      pop\n      jump\t// out\n        /* \"#utility.yul\":2104:2200   */\n    tag_27:\n        /* \"#utility.yul\":2141:2148   */\n      0x00\n        /* \"#utility.yul\":2170:2194   */\n      tag_53\n        /* \"#utility.yul\":2188:2193   */\n      dup3\n        /* \"#utility.yul\":2170:2194   */\n      tag_54\n      jump\t// in\n    tag_53:\n        /* \"#utility.yul\":2159:2194   */\n      swap1\n      pop\n        /* \"#utility.yul\":2104:2200   */\n      swap2\n      swap1\n      pop\n      jump\t// out\n        /* \"#utility.yul\":2206:2332   */\n    tag_54:\n        /* \"#utility.yul\":2243:2250   */\n      0x00\n        /* \"#utility.yul\":2283:2325   */\n      0xffffffffffffffffffffffffffffffffffffffff\n        /* \"#utility.yul\":2276:2281   */\n      dup3\n        /* \"#utility.yul\":2272:2326   */\n      and\n        /* \"#utility.yul\":2261:2326   */\n      swap1\n      pop\n        /* \"#utility.yul\":2206:2332   */\n      swap2\n      swap1\n      pop\n      jump\t// out\n        /* \"#utility.yul\":2338:2415   */\n    tag_37:\n        /* \"#utility.yul\":2375:2382   */\n      0x00\n        /* \"#utility.yul\":2404:2409   */\n      dup2\n        /* \"#utility.yul\":2393:2409   */\n      swap1\n      pop\n        /* \"#utility.yul\":2338:2415   */\n      swap2\n      swap1\n      pop\n      jump\t// out\n        /* \"#utility.yul\":2421:2601   */\n    tag_51:\n        /* \"#utility.yul\":2469:2546   */\n      0x4e487b7100000000000000000000000000000000000000000000000000000000\n        /* \"#utility.yul\":2466:2467   */\n      0x00\n        /* \"#utility.yul\":2459:2547   */\n      mstore\n        /* \"#utility.yul\":2566:2570   */\n      0x11\n        /* \"#utility.yul\":2563:2564   */\n      0x04\n        /* \"#utility.yul\":2556:2571   */\n      mstore\n        /* \"#utility.yul\":2590:2594   */\n      0x24\n        /* \"#utility.yul\":2587:2588   */\n      0x00\n        /* \"#utility.yul\":2580:2595   */\n      revert\n        /* \"#utility.yul\":2607:2776   */\n    tag_33:\n        /* \"#utility.yul\":2747:2768   */\n      0x4e657720546f74616c20537570706c79203d2000000000000000000000000000\n        /* \"#utility.yul\":2743:2744   */\n      0x00\n        /* \"#utility.yul\":2735:2741   */\n      dup3\n        /* \"#utility.yul\":2731:2745   */\n      add\n        /* \"#utility.yul\":2724:2769   */\n      mstore\n        /* \"#utility.yul\":2607:2776   */\n      pop\n      jump\t// out\n\n    auxdata: 0xa26469706673582212209ab20d2e472dd827bc48c627787e415ec8d8509c68db12fd24020842bcba725c64736f6c63430008070033\n}\n",
				"bytecode": {
					"linkReferences": {},
					"object": "608060405261271060005534801561001657600080fd5b5033600160006101000a81548173ffffffffffffffffffffffffffffffffffffffff021916908373ffffffffffffffffffffffffffffffffffffffff16021790555061033a806100676000396000f3fe608060405234801561001057600080fd5b50600436106100415760003560e01c80638da5cb5b14610046578063902d55a514610064578063de0f2be114610082575b600080fd5b61004e61008c565b60405161005b91906101a5565b60405180910390f35b61006c6100b2565b60405161007991906101ee565b60405180910390f35b61008a6100b8565b005b600160009054906101000a900473ffffffffffffffffffffffffffffffffffffffff1681565b60005481565b600160009054906101000a900473ffffffffffffffffffffffffffffffffffffffff1673ffffffffffffffffffffffffffffffffffffffff163373ffffffffffffffffffffffffffffffffffffffff161415610162576103e8600080828254610121919061021a565b925050819055507f6ba82df64371c84d944c37346155f81ddd2d81b72fc7cc9b3f37ff87f9e6518f60005460405161015991906101c0565b60405180910390a15b565b61016d81610270565b82525050565b6000610180601383610209565b915061018b826102db565b602082019050919050565b61019f816102a2565b82525050565b60006020820190506101ba6000830184610164565b92915050565b600060408201905081810360008301526101d981610173565b90506101e86020830184610196565b92915050565b60006020820190506102036000830184610196565b92915050565b600082825260208201905092915050565b6000610225826102a2565b9150610230836102a2565b9250827fffffffffffffffffffffffffffffffffffffffffffffffffffffffffffffffff03821115610265576102646102ac565b5b828201905092915050565b600061027b82610282565b9050919050565b600073ffffffffffffffffffffffffffffffffffffffff82169050919050565b6000819050919050565b7f4e487b7100000000000000000000000000000000000000000000000000000000600052601160045260246000fd5b7f4e657720546f74616c20537570706c79203d200000000000000000000000000060008201525056fea26469706673582212209ab20d2e472dd827bc48c627787e415ec8d8509c68db12fd24020842bcba725c64736f6c63430008070033",
					"opcodes": "PUSH1 0x80 PUSH1 0x40 MSTORE PUSH2 0x2710 PUSH1 0x0 SSTORE CALLVALUE DUP1 ISZERO PUSH2 0x16 JUMPI PUSH1 0x0 DUP1 REVERT JUMPDEST POP CALLER PUSH1 0x1 PUSH1 0x0 PUSH2 0x100 EXP DUP2 SLOAD DUP2 PUSH20 0xFFFFFFFFFFFFFFFFFFFFFFFFFFFFFFFFFFFFFFFF MUL NOT AND SWAP1 DUP4 PUSH20 0xFFFFFFFFFFFFFFFFFFFFFFFFFFFFFFFFFFFFFFFF AND MUL OR SWAP1 SSTORE POP PUSH2 0x33A DUP1 PUSH2 0x67 PUSH1 0x0 CODECOPY PUSH1 0x0 RETURN INVALID PUSH1 0x80 PUSH1 0x40 MSTORE CALLVALUE DUP1 ISZERO PUSH2 0x10 JUMPI PUSH1 0x0 DUP1 REVERT JUMPDEST POP PUSH1 0x4 CALLDATASIZE LT PUSH2 0x41 JUMPI PUSH1 0x0 CALLDATALOAD PUSH1 0xE0 SHR DUP1 PUSH4 0x8DA5CB5B EQ PUSH2 0x46 JUMPI DUP1 PUSH4 0x902D55A5 EQ PUSH2 0x64 JUMPI DUP1 PUSH4 0xDE0F2BE1 EQ PUSH2 0x82 JUMPI JUMPDEST PUSH1 0x0 DUP1 REVERT JUMPDEST PUSH2 0x4E PUSH2 0x8C JUMP JUMPDEST PUSH1 0x40 MLOAD PUSH2 0x5B SWAP2 SWAP1 PUSH2 0x1A5 JUMP JUMPDEST PUSH1 0x40 MLOAD DUP1 SWAP2 SUB SWAP1 RETURN JUMPDEST PUSH2 0x6C PUSH2 0xB2 JUMP JUMPDEST PUSH1 0x40 MLOAD PUSH2 0x79 SWAP2 SWAP1 PUSH2 0x1EE JUMP JUMPDEST PUSH1 0x40 MLOAD DUP1 SWAP2 SUB SWAP1 RETURN JUMPDEST PUSH2 0x8A PUSH2 0xB8 JUMP JUMPDEST STOP JUMPDEST PUSH1 0x1 PUSH1 0x0 SWAP1 SLOAD SWAP1 PUSH2 0x100 EXP SWAP1 DIV PUSH20 0xFFFFFFFFFFFFFFFFFFFFFFFFFFFFFFFFFFFFFFFF AND DUP2 JUMP JUMPDEST PUSH1 0x0 SLOAD DUP2 JUMP JUMPDEST PUSH1 0x1 PUSH1 0x0 SWAP1 SLOAD SWAP1 PUSH2 0x100 EXP SWAP1 DIV PUSH20 0xFFFFFFFFFFFFFFFFFFFFFFFFFFFFFFFFFFFFFFFF AND PUSH20 0xFFFFFFFFFFFFFFFFFFFFFFFFFFFFFFFFFFFFFFFF AND CALLER PUSH20 0xFFFFFFFFFFFFFFFFFFFFFFFFFFFFFFFFFFFFFFFF AND EQ ISZERO PUSH2 0x162 JUMPI PUSH2 0x3E8 PUSH1 0x0 DUP1 DUP3 DUP3 SLOAD PUSH2 0x121 SWAP2 SWAP1 PUSH2 0x21A JUMP JUMPDEST SWAP3 POP POP DUP2 SWAP1 SSTORE POP PUSH32 0x6BA82DF64371C84D944C37346155F81DDD2D81B72FC7CC9B3F37FF87F9E6518F PUSH1 0x0 SLOAD PUSH1 0x40 MLOAD PUSH2 0x159 SWAP2 SWAP1 PUSH2 0x1C0 JUMP JUMPDEST PUSH1 0x40 MLOAD DUP1 SWAP2 SUB SWAP1 LOG1 JUMPDEST JUMP JUMPDEST PUSH2 0x16D DUP2 PUSH2 0x270 JUMP JUMPDEST DUP3 MSTORE POP POP JUMP JUMPDEST PUSH1 0x0 PUSH2 0x180 PUSH1 0x13 DUP4 PUSH2 0x209 JUMP JUMPDEST SWAP2 POP PUSH2 0x18B DUP3 PUSH2 0x2DB JUMP JUMPDEST PUSH1 0x20 DUP3 ADD SWAP1 POP SWAP2 SWAP1 POP JUMP JUMPDEST PUSH2 0x19F DUP2 PUSH2 0x2A2 JUMP JUMPDEST DUP3 MSTORE POP POP JUMP JUMPDEST PUSH1 0x0 PUSH1 0x20 DUP3 ADD SWAP1 POP PUSH2 0x1BA PUSH1 0x0 DUP4 ADD DUP5 PUSH2 0x164 JUMP JUMPDEST SWAP3 SWAP2 POP POP JUMP JUMPDEST PUSH1 0x0 PUSH1 0x40 DUP3 ADD SWAP1 POP DUP2 DUP2 SUB PUSH1 0x0 DUP4 ADD MSTORE PUSH2 0x1D9 DUP2 PUSH2 0x173 JUMP JUMPDEST SWAP1 POP PUSH2 0x1E8 PUSH1 0x20 DUP4 ADD DUP5 PUSH2 0x196 JUMP JUMPDEST SWAP3 SWAP2 POP POP JUMP JUMPDEST PUSH1 0x0 PUSH1 0x20 DUP3 ADD SWAP1 POP PUSH2 0x203 PUSH1 0x0 DUP4 ADD DUP5 PUSH2 0x196 JUMP JUMPDEST SWAP3 SWAP2 POP POP JUMP JUMPDEST PUSH1 0x0 DUP3 DUP3 MSTORE PUSH1 0x20 DUP3 ADD SWAP1 POP SWAP3 SWAP2 POP POP JUMP JUMPDEST PUSH1 0x0 PUSH2 0x225 DUP3 PUSH2 0x2A2 JUMP JUMPDEST SWAP2 POP PUSH2 0x230 DUP4 PUSH2 0x2A2 JUMP JUMPDEST SWAP3 POP DUP3 PUSH32 0xFFFFFFFFFFFFFFFFFFFFFFFFFFFFFFFFFFFFFFFFFFFFFFFFFFFFFFFFFFFFFFFF SUB DUP3 GT ISZERO PUSH2 0x265 JUMPI PUSH2 0x264 PUSH2 0x2AC JUMP JUMPDEST JUMPDEST DUP3 DUP3 ADD SWAP1 POP SWAP3 SWAP2 POP POP JUMP JUMPDEST PUSH1 0x0 PUSH2 0x27B DUP3 PUSH2 0x282 JUMP JUMPDEST SWAP1 POP SWAP2 SWAP1 POP JUMP JUMPDEST PUSH1 0x0 PUSH20 0xFFFFFFFFFFFFFFFFFFFFFFFFFFFFFFFFFFFFFFFF DUP3 AND SWAP1 POP SWAP2 SWAP1 POP JUMP JUMPDEST PUSH1 0x0 DUP2 SWAP1 POP SWAP2 SWAP1 POP JUMP JUMPDEST PUSH32 0x4E487B7100000000000000000000000000000000000000000000000000000000 PUSH1 0x0 MSTORE PUSH1 0x11 PUSH1 0x4 MSTORE PUSH1 0x24 PUSH1 0x0 REVERT JUMPDEST PUSH32 0x4E657720546F74616C20537570706C79203D2000000000000000000000000000 PUSH1 0x0 DUP3 ADD MSTORE POP JUMP INVALID LOG2 PUSH5 0x6970667358 0x22 SLT KECCAK256 SWAP11 0xB2 0xD 0x2E SELFBALANCE 0x2D 0xD8 0x27 0xBC BASEFEE 0xC6 0x27 PUSH25 0x7E415EC8D8509C68DB12FD24020842BCBA725C64736F6C6343 STOP ADDMOD SMOD STOP CALLER "
				},
				"gasEstimates": {
					"creation": {
						"codeDepositCost": "165200",
						"executionCost": "46580",
						"totalCost": "211780"
					},
					"external": {
						"TOTAL_SUPPLY()": "2429",
						"increaseTotalSupply()": "infinite",
						"owner()": "2492"
					}
				},
				"methodIdentifiers": {
					"TOTAL_SUPPLY()": "902d55a5",
					"increaseTotalSupply()": "de0f2be1",
					"owner()": "8da5cb5b"
				}
			},
			"storageLayout": {
				"storage": [
					{
						"astId": 4,
						"contract": "contracts/ethdenver_lessons/D4/VolcanoCoin.sol:VolcanoCoin",
						"label": "TOTAL_SUPPLY",
						"offset": 0,
						"slot": "0",
						"type": "t_uint256"
					},
					{
						"astId": 6,
						"contract": "contracts/ethdenver_lessons/D4/VolcanoCoin.sol:VolcanoCoin",
						"label": "owner",
						"offset": 0,
						"slot": "1",
						"type": "t_address"
					},
					{
						"astId": 14,
						"contract": "contracts/ethdenver_lessons/D4/VolcanoCoin.sol:VolcanoCoin",
						"label": "balances",
						"offset": 0,
						"slot": "2",
						"type": "t_uint256"
					}
				],
				"types": {
					"t_address": {
						"encoding": "inplace",
						"label": "address",
						"numberOfBytes": "20"
					},
					"t_uint256": {
						"encoding": "inplace",
						"label": "uint256",
						"numberOfBytes": "32"
					}
				}
			},
			"userdoc": {
				"kind": "user",
				"methods": {},
				"version": 1
			}
		}
	}
}