{
	"contracts/ethdenver_lessons/D4/VolcanoCoin.sol": {
		"VolcanoCoin": {
			"abi": [
				{
					"inputs": [],
					"stateMutability": "nonpayable",
					"type": "constructor"
				},
				{
					"anonymous": false,
					"inputs": [
						{
							"indexed": false,
							"internalType": "string",
							"name": "",
							"type": "string"
						},
						{
							"indexed": false,
							"internalType": "uint256",
							"name": "",
							"type": "uint256"
						}
					],
					"name": "eventTotalSupplyChanged",
					"type": "event"
				},
				{
					"anonymous": false,
					"inputs": [
						{
							"indexed": false,
							"internalType": "string",
							"name": "",
							"type": "string"
						},
						{
							"indexed": false,
							"internalType": "uint256",
							"name": "",
							"type": "uint256"
						}
					],
					"name": "eventTransfer",
					"type": "event"
				},
				{
					"inputs": [],
					"name": "TOTAL_SUPPLY",
					"outputs": [
						{
							"internalType": "uint256",
							"name": "",
							"type": "uint256"
						}
					],
					"stateMutability": "view",
					"type": "function"
				},
				{
					"inputs": [
						{
							"internalType": "address",
							"name": "user",
							"type": "address"
						}
					],
					"name": "getUserBalance",
					"outputs": [
						{
							"internalType": "uint256",
							"name": "",
							"type": "uint256"
						}
					],
					"stateMutability": "view",
					"type": "function"
				},
				{
					"inputs": [],
					"name": "increaseTotalSupply",
					"outputs": [],
					"stateMutability": "nonpayable",
					"type": "function"
				},
				{
					"inputs": [],
					"name": "owner",
					"outputs": [
						{
							"internalType": "address",
							"name": "",
							"type": "address"
						}
					],
					"stateMutability": "view",
					"type": "function"
				},
				{
					"inputs": [
						{
							"internalType": "address",
							"name": "",
							"type": "address"
						}
					],
					"name": "payments",
					"outputs": [
						{
							"internalType": "address",
							"name": "user",
							"type": "address"
						},
						{
							"internalType": "uint256",
							"name": "amount",
							"type": "uint256"
						}
					],
					"stateMutability": "view",
					"type": "function"
				},
				{
					"inputs": [
						{
							"internalType": "address",
							"name": "user",
							"type": "address"
						},
						{
							"internalType": "uint256",
							"name": "_amount",
							"type": "uint256"
						}
					],
					"name": "transfer",
					"outputs": [],
					"stateMutability": "nonpayable",
					"type": "function"
				}
			],
			"devdoc": {
				"kind": "dev",
				"methods": {},
				"version": 1
			},
			"evm": {
				"assembly": "    /* \"contracts/ethdenver_lessons/D4/VolcanoCoin.sol\":65:1177  contract VolcanoCoin {... */\n  mstore(0x40, 0x80)\n    /* \"contracts/ethdenver_lessons/D4/VolcanoCoin.sol\":122:127  10000 */\n  0x2710\n    /* \"contracts/ethdenver_lessons/D4/VolcanoCoin.sol\":92:127  uint256 public TOTAL_SUPPLY = 10000 */\n  0x00\n  sstore\n    /* \"contracts/ethdenver_lessons/D4/VolcanoCoin.sol\":418:507  constructor() {... */\n  callvalue\n  dup1\n  iszero\n  tag_1\n  jumpi\n  0x00\n  dup1\n  revert\ntag_1:\n  pop\n    /* \"contracts/ethdenver_lessons/D4/VolcanoCoin.sol\":450:460  msg.sender */\n  caller\n    /* \"contracts/ethdenver_lessons/D4/VolcanoCoin.sol\":442:447  owner */\n  0x01\n  0x00\n    /* \"contracts/ethdenver_lessons/D4/VolcanoCoin.sol\":442:460  owner = msg.sender */\n  0x0100\n  exp\n  dup2\n  sload\n  dup2\n  0xffffffffffffffffffffffffffffffffffffffff\n  mul\n  not\n  and\n  swap1\n  dup4\n  0xffffffffffffffffffffffffffffffffffffffff\n  and\n  mul\n  or\n  swap1\n  sstore\n  pop\n    /* \"contracts/ethdenver_lessons/D4/VolcanoCoin.sol\":488:500  TOTAL_SUPPLY */\n  sload(0x00)\n    /* \"contracts/ethdenver_lessons/D4/VolcanoCoin.sol\":470:478  balances */\n  0x02\n    /* \"contracts/ethdenver_lessons/D4/VolcanoCoin.sol\":470:485  balances[owner] */\n  0x00\n    /* \"contracts/ethdenver_lessons/D4/VolcanoCoin.sol\":479:484  owner */\n  0x01\n  0x00\n  swap1\n  sload\n  swap1\n  0x0100\n  exp\n  swap1\n  div\n  0xffffffffffffffffffffffffffffffffffffffff\n  and\n    /* \"contracts/ethdenver_lessons/D4/VolcanoCoin.sol\":470:485  balances[owner] */\n  0xffffffffffffffffffffffffffffffffffffffff\n  and\n  0xffffffffffffffffffffffffffffffffffffffff\n  and\n  dup2\n  mstore\n  0x20\n  add\n  swap1\n  dup2\n  mstore\n  0x20\n  add\n  0x00\n  keccak256\n    /* \"contracts/ethdenver_lessons/D4/VolcanoCoin.sol\":470:500  balances[owner] = TOTAL_SUPPLY */\n  dup2\n  swap1\n  sstore\n  pop\n    /* \"contracts/ethdenver_lessons/D4/VolcanoCoin.sol\":65:1177  contract VolcanoCoin {... */\n  dataSize(sub_0)\n  dup1\n  dataOffset(sub_0)\n  0x00\n  codecopy\n  0x00\n  return\nstop\n\nsub_0: assembly {\n        /* \"contracts/ethdenver_lessons/D4/VolcanoCoin.sol\":65:1177  contract VolcanoCoin {... */\n      mstore(0x40, 0x80)\n      callvalue\n      dup1\n      iszero\n      tag_1\n      jumpi\n      0x00\n      dup1\n      revert\n    tag_1:\n      pop\n      jumpi(tag_2, lt(calldatasize, 0x04))\n      shr(0xe0, calldataload(0x00))\n      dup1\n      0x47734892\n      eq\n      tag_3\n      jumpi\n      dup1\n      0x8da5cb5b\n      eq\n      tag_4\n      jumpi\n      dup1\n      0x902d55a5\n      eq\n      tag_5\n      jumpi\n      dup1\n      0xa9059cbb\n      eq\n      tag_6\n      jumpi\n      dup1\n      0xde0f2be1\n      eq\n      tag_7\n      jumpi\n      dup1\n      0xe2982c21\n      eq\n      tag_8\n      jumpi\n    tag_2:\n      0x00\n      dup1\n      revert\n        /* \"contracts/ethdenver_lessons/D4/VolcanoCoin.sol\":772:874  function getUserBalance(address user) public view returns(uint) {... */\n    tag_3:\n      tag_9\n      0x04\n      dup1\n      calldatasize\n      sub\n      dup2\n      add\n      swap1\n      tag_10\n      swap2\n      swap1\n      tag_11\n      jump\t// in\n    tag_10:\n      tag_12\n      jump\t// in\n    tag_9:\n      mload(0x40)\n      tag_13\n      swap2\n      swap1\n      tag_14\n      jump\t// in\n    tag_13:\n      mload(0x40)\n      dup1\n      swap2\n      sub\n      swap1\n      return\n        /* \"contracts/ethdenver_lessons/D4/VolcanoCoin.sol\":133:153  address public owner */\n    tag_4:\n      tag_15\n      tag_16\n      jump\t// in\n    tag_15:\n      mload(0x40)\n      tag_17\n      swap2\n      swap1\n      tag_18\n      jump\t// in\n    tag_17:\n      mload(0x40)\n      dup1\n      swap2\n      sub\n      swap1\n      return\n        /* \"contracts/ethdenver_lessons/D4/VolcanoCoin.sol\":92:127  uint256 public TOTAL_SUPPLY = 10000 */\n    tag_5:\n      tag_19\n      tag_20\n      jump\t// in\n    tag_19:\n      mload(0x40)\n      tag_21\n      swap2\n      swap1\n      tag_14\n      jump\t// in\n    tag_21:\n      mload(0x40)\n      dup1\n      swap2\n      sub\n      swap1\n      return\n        /* \"contracts/ethdenver_lessons/D4/VolcanoCoin.sol\":880:1175  function transfer(address user, uint _amount) public {... */\n    tag_6:\n      tag_22\n      0x04\n      dup1\n      calldatasize\n      sub\n      dup2\n      add\n      swap1\n      tag_23\n      swap2\n      swap1\n      tag_24\n      jump\t// in\n    tag_23:\n      tag_25\n      jump\t// in\n    tag_22:\n      stop\n        /* \"contracts/ethdenver_lessons/D4/VolcanoCoin.sol\":605:766  function increaseTotalSupply() public onlyOwner {... */\n    tag_7:\n      tag_26\n      tag_27\n      jump\t// in\n    tag_26:\n      stop\n        /* \"contracts/ethdenver_lessons/D4/VolcanoCoin.sol\":368:411  mapping(address => Payment) public payments */\n    tag_8:\n      tag_28\n      0x04\n      dup1\n      calldatasize\n      sub\n      dup2\n      add\n      swap1\n      tag_29\n      swap2\n      swap1\n      tag_11\n      jump\t// in\n    tag_29:\n      tag_30\n      jump\t// in\n    tag_28:\n      mload(0x40)\n      tag_31\n      swap3\n      swap2\n      swap1\n      tag_32\n      jump\t// in\n    tag_31:\n      mload(0x40)\n      dup1\n      swap2\n      sub\n      swap1\n      return\n        /* \"contracts/ethdenver_lessons/D4/VolcanoCoin.sol\":772:874  function getUserBalance(address user) public view returns(uint) {... */\n    tag_12:\n        /* \"contracts/ethdenver_lessons/D4/VolcanoCoin.sol\":830:834  uint */\n      0x00\n        /* \"contracts/ethdenver_lessons/D4/VolcanoCoin.sol\":853:861  balances */\n      0x02\n        /* \"contracts/ethdenver_lessons/D4/VolcanoCoin.sol\":853:867  balances[user] */\n      0x00\n        /* \"contracts/ethdenver_lessons/D4/VolcanoCoin.sol\":862:866  user */\n      dup4\n        /* \"contracts/ethdenver_lessons/D4/VolcanoCoin.sol\":853:867  balances[user] */\n      0xffffffffffffffffffffffffffffffffffffffff\n      and\n      0xffffffffffffffffffffffffffffffffffffffff\n      and\n      dup2\n      mstore\n      0x20\n      add\n      swap1\n      dup2\n      mstore\n      0x20\n      add\n      0x00\n      keccak256\n      sload\n        /* \"contracts/ethdenver_lessons/D4/VolcanoCoin.sol\":846:867  return balances[user] */\n      swap1\n      pop\n        /* \"contracts/ethdenver_lessons/D4/VolcanoCoin.sol\":772:874  function getUserBalance(address user) public view returns(uint) {... */\n      swap2\n      swap1\n      pop\n      jump\t// out\n        /* \"contracts/ethdenver_lessons/D4/VolcanoCoin.sol\":133:153  address public owner */\n    tag_16:\n      0x01\n      0x00\n      swap1\n      sload\n      swap1\n      0x0100\n      exp\n      swap1\n      div\n      0xffffffffffffffffffffffffffffffffffffffff\n      and\n      dup2\n      jump\t// out\n        /* \"contracts/ethdenver_lessons/D4/VolcanoCoin.sol\":92:127  uint256 public TOTAL_SUPPLY = 10000 */\n    tag_20:\n      sload(0x00)\n      dup2\n      jump\t// out\n        /* \"contracts/ethdenver_lessons/D4/VolcanoCoin.sol\":880:1175  function transfer(address user, uint _amount) public {... */\n    tag_25:\n        /* \"contracts/ethdenver_lessons/D4/VolcanoCoin.sol\":975:982  _amount */\n      dup1\n        /* \"contracts/ethdenver_lessons/D4/VolcanoCoin.sol\":951:959  balances */\n      0x02\n        /* \"contracts/ethdenver_lessons/D4/VolcanoCoin.sol\":951:971  balances[msg.sender] */\n      0x00\n        /* \"contracts/ethdenver_lessons/D4/VolcanoCoin.sol\":960:970  msg.sender */\n      caller\n        /* \"contracts/ethdenver_lessons/D4/VolcanoCoin.sol\":951:971  balances[msg.sender] */\n      0xffffffffffffffffffffffffffffffffffffffff\n      and\n      0xffffffffffffffffffffffffffffffffffffffff\n      and\n      dup2\n      mstore\n      0x20\n      add\n      swap1\n      dup2\n      mstore\n      0x20\n      add\n      0x00\n      keccak256\n      sload\n        /* \"contracts/ethdenver_lessons/D4/VolcanoCoin.sol\":951:982  balances[msg.sender] >= _amount */\n      lt\n      iszero\n        /* \"contracts/ethdenver_lessons/D4/VolcanoCoin.sol\":943:1031  require(balances[msg.sender] >= _amount, \"Not enough balance to execute your transfer.\") */\n      tag_35\n      jumpi\n      mload(0x40)\n      0x08c379a000000000000000000000000000000000000000000000000000000000\n      dup2\n      mstore\n      0x04\n      add\n      tag_36\n      swap1\n      tag_37\n      jump\t// in\n    tag_36:\n      mload(0x40)\n      dup1\n      swap2\n      sub\n      swap1\n      revert\n    tag_35:\n        /* \"contracts/ethdenver_lessons/D4/VolcanoCoin.sol\":1065:1072  _amount */\n      dup1\n        /* \"contracts/ethdenver_lessons/D4/VolcanoCoin.sol\":1041:1049  balances */\n      0x02\n        /* \"contracts/ethdenver_lessons/D4/VolcanoCoin.sol\":1041:1061  balances[msg.sender] */\n      0x00\n        /* \"contracts/ethdenver_lessons/D4/VolcanoCoin.sol\":1050:1060  msg.sender */\n      caller\n        /* \"contracts/ethdenver_lessons/D4/VolcanoCoin.sol\":1041:1061  balances[msg.sender] */\n      0xffffffffffffffffffffffffffffffffffffffff\n      and\n      0xffffffffffffffffffffffffffffffffffffffff\n      and\n      dup2\n      mstore\n      0x20\n      add\n      swap1\n      dup2\n      mstore\n      0x20\n      add\n      0x00\n      keccak256\n      0x00\n        /* \"contracts/ethdenver_lessons/D4/VolcanoCoin.sol\":1041:1072  balances[msg.sender] -= _amount */\n      dup3\n      dup3\n      sload\n      tag_38\n      swap2\n      swap1\n      tag_39\n      jump\t// in\n    tag_38:\n      swap3\n      pop\n      pop\n      dup2\n      swap1\n      sstore\n      pop\n        /* \"contracts/ethdenver_lessons/D4/VolcanoCoin.sol\":1100:1107  _amount */\n      dup1\n        /* \"contracts/ethdenver_lessons/D4/VolcanoCoin.sol\":1082:1090  balances */\n      0x02\n        /* \"contracts/ethdenver_lessons/D4/VolcanoCoin.sol\":1082:1096  balances[user] */\n      0x00\n        /* \"contracts/ethdenver_lessons/D4/VolcanoCoin.sol\":1091:1095  user */\n      dup5\n        /* \"contracts/ethdenver_lessons/D4/VolcanoCoin.sol\":1082:1096  balances[user] */\n      0xffffffffffffffffffffffffffffffffffffffff\n      and\n      0xffffffffffffffffffffffffffffffffffffffff\n      and\n      dup2\n      mstore\n      0x20\n      add\n      swap1\n      dup2\n      mstore\n      0x20\n      add\n      0x00\n      keccak256\n      0x00\n        /* \"contracts/ethdenver_lessons/D4/VolcanoCoin.sol\":1082:1107  balances[user] += _amount */\n      dup3\n      dup3\n      sload\n      tag_40\n      swap2\n      swap1\n      tag_41\n      jump\t// in\n    tag_40:\n      swap3\n      pop\n      pop\n      dup2\n      swap1\n      sstore\n      pop\n        /* \"contracts/ethdenver_lessons/D4/VolcanoCoin.sol\":1122:1168  eventTransfer(\"Amount transfered = \", _amount) */\n      0x5a2050e3f02d2781f60eea7b6796becb3dd7507e14fce659f8f395d1bcce5fc9\n        /* \"contracts/ethdenver_lessons/D4/VolcanoCoin.sol\":1160:1167  _amount */\n      dup2\n        /* \"contracts/ethdenver_lessons/D4/VolcanoCoin.sol\":1122:1168  eventTransfer(\"Amount transfered = \", _amount) */\n      mload(0x40)\n      tag_42\n      swap2\n      swap1\n      tag_43\n      jump\t// in\n    tag_42:\n      mload(0x40)\n      dup1\n      swap2\n      sub\n      swap1\n      log1\n        /* \"contracts/ethdenver_lessons/D4/VolcanoCoin.sol\":880:1175  function transfer(address user, uint _amount) public {... */\n      pop\n      pop\n      jump\t// out\n        /* \"contracts/ethdenver_lessons/D4/VolcanoCoin.sol\":605:766  function increaseTotalSupply() public onlyOwner {... */\n    tag_27:\n        /* \"contracts/ethdenver_lessons/D4/VolcanoCoin.sol\":560:565  owner */\n      0x01\n      0x00\n      swap1\n      sload\n      swap1\n      0x0100\n      exp\n      swap1\n      div\n      0xffffffffffffffffffffffffffffffffffffffff\n      and\n        /* \"contracts/ethdenver_lessons/D4/VolcanoCoin.sol\":546:565  msg.sender == owner */\n      0xffffffffffffffffffffffffffffffffffffffff\n      and\n        /* \"contracts/ethdenver_lessons/D4/VolcanoCoin.sol\":546:556  msg.sender */\n      caller\n        /* \"contracts/ethdenver_lessons/D4/VolcanoCoin.sol\":546:565  msg.sender == owner */\n      0xffffffffffffffffffffffffffffffffffffffff\n      and\n      eq\n        /* \"contracts/ethdenver_lessons/D4/VolcanoCoin.sol\":542:593  if (msg.sender == owner) {... */\n      iszero\n      tag_45\n      jumpi\n        /* \"contracts/ethdenver_lessons/D4/VolcanoCoin.sol\":679:683  1000 */\n      0x03e8\n        /* \"contracts/ethdenver_lessons/D4/VolcanoCoin.sol\":663:675  TOTAL_SUPPLY */\n      0x00\n      dup1\n        /* \"contracts/ethdenver_lessons/D4/VolcanoCoin.sol\":663:683  TOTAL_SUPPLY += 1000 */\n      dup3\n      dup3\n      sload\n      tag_47\n      swap2\n      swap1\n      tag_41\n      jump\t// in\n    tag_47:\n      swap3\n      pop\n      pop\n      dup2\n      swap1\n      sstore\n      pop\n        /* \"contracts/ethdenver_lessons/D4/VolcanoCoin.sol\":698:759  eventTotalSupplyChanged(\"New Total Supply = \" , TOTAL_SUPPLY) */\n      0x36a6bfb04e36ebe40c1792d122008a16ba8db271eec24c015129bf170ffb4484\n        /* \"contracts/ethdenver_lessons/D4/VolcanoCoin.sol\":746:758  TOTAL_SUPPLY */\n      sload(0x00)\n        /* \"contracts/ethdenver_lessons/D4/VolcanoCoin.sol\":698:759  eventTotalSupplyChanged(\"New Total Supply = \" , TOTAL_SUPPLY) */\n      mload(0x40)\n      tag_48\n      swap2\n      swap1\n      tag_49\n      jump\t// in\n    tag_48:\n      mload(0x40)\n      dup1\n      swap2\n      sub\n      swap1\n      log1\n        /* \"contracts/ethdenver_lessons/D4/VolcanoCoin.sol\":542:593  if (msg.sender == owner) {... */\n    tag_45:\n        /* \"contracts/ethdenver_lessons/D4/VolcanoCoin.sol\":605:766  function increaseTotalSupply() public onlyOwner {... */\n      jump\t// out\n        /* \"contracts/ethdenver_lessons/D4/VolcanoCoin.sol\":368:411  mapping(address => Payment) public payments */\n    tag_30:\n      mstore(0x20, 0x03)\n      dup1\n      0x00\n      mstore\n      keccak256(0x00, 0x40)\n      0x00\n      swap2\n      pop\n      swap1\n      pop\n      dup1\n      0x00\n      add\n      0x00\n      swap1\n      sload\n      swap1\n      0x0100\n      exp\n      swap1\n      div\n      0xffffffffffffffffffffffffffffffffffffffff\n      and\n      swap1\n      dup1\n      0x01\n      add\n      sload\n      swap1\n      pop\n      dup3\n      jump\t// out\n        /* \"#utility.yul\":7:146   */\n    tag_51:\n        /* \"#utility.yul\":53:58   */\n      0x00\n        /* \"#utility.yul\":91:97   */\n      dup2\n        /* \"#utility.yul\":78:98   */\n      calldataload\n        /* \"#utility.yul\":69:98   */\n      swap1\n      pop\n        /* \"#utility.yul\":107:140   */\n      tag_53\n        /* \"#utility.yul\":134:139   */\n      dup2\n        /* \"#utility.yul\":107:140   */\n      tag_54\n      jump\t// in\n    tag_53:\n        /* \"#utility.yul\":7:146   */\n      swap3\n      swap2\n      pop\n      pop\n      jump\t// out\n        /* \"#utility.yul\":152:291   */\n    tag_55:\n        /* \"#utility.yul\":198:203   */\n      0x00\n        /* \"#utility.yul\":236:242   */\n      dup2\n        /* \"#utility.yul\":223:243   */\n      calldataload\n        /* \"#utility.yul\":214:243   */\n      swap1\n      pop\n        /* \"#utility.yul\":252:285   */\n      tag_57\n        /* \"#utility.yul\":279:284   */\n      dup2\n        /* \"#utility.yul\":252:285   */\n      tag_58\n      jump\t// in\n    tag_57:\n        /* \"#utility.yul\":152:291   */\n      swap3\n      swap2\n      pop\n      pop\n      jump\t// out\n        /* \"#utility.yul\":297:626   */\n    tag_11:\n        /* \"#utility.yul\":356:362   */\n      0x00\n        /* \"#utility.yul\":405:407   */\n      0x20\n        /* \"#utility.yul\":393:402   */\n      dup3\n        /* \"#utility.yul\":384:391   */\n      dup5\n        /* \"#utility.yul\":380:403   */\n      sub\n        /* \"#utility.yul\":376:408   */\n      slt\n        /* \"#utility.yul\":373:492   */\n      iszero\n      tag_60\n      jumpi\n        /* \"#utility.yul\":411:490   */\n      tag_61\n      tag_62\n      jump\t// in\n    tag_61:\n        /* \"#utility.yul\":373:492   */\n    tag_60:\n        /* \"#utility.yul\":531:532   */\n      0x00\n        /* \"#utility.yul\":556:609   */\n      tag_63\n        /* \"#utility.yul\":601:608   */\n      dup5\n        /* \"#utility.yul\":592:598   */\n      dup3\n        /* \"#utility.yul\":581:590   */\n      dup6\n        /* \"#utility.yul\":577:599   */\n      add\n        /* \"#utility.yul\":556:609   */\n      tag_51\n      jump\t// in\n    tag_63:\n        /* \"#utility.yul\":546:609   */\n      swap2\n      pop\n        /* \"#utility.yul\":502:619   */\n      pop\n        /* \"#utility.yul\":297:626   */\n      swap3\n      swap2\n      pop\n      pop\n      jump\t// out\n        /* \"#utility.yul\":632:1106   */\n    tag_24:\n        /* \"#utility.yul\":700:706   */\n      0x00\n        /* \"#utility.yul\":708:714   */\n      dup1\n        /* \"#utility.yul\":757:759   */\n      0x40\n        /* \"#utility.yul\":745:754   */\n      dup4\n        /* \"#utility.yul\":736:743   */\n      dup6\n        /* \"#utility.yul\":732:755   */\n      sub\n        /* \"#utility.yul\":728:760   */\n      slt\n        /* \"#utility.yul\":725:844   */\n      iszero\n      tag_65\n      jumpi\n        /* \"#utility.yul\":763:842   */\n      tag_66\n      tag_62\n      jump\t// in\n    tag_66:\n        /* \"#utility.yul\":725:844   */\n    tag_65:\n        /* \"#utility.yul\":883:884   */\n      0x00\n        /* \"#utility.yul\":908:961   */\n      tag_67\n        /* \"#utility.yul\":953:960   */\n      dup6\n        /* \"#utility.yul\":944:950   */\n      dup3\n        /* \"#utility.yul\":933:942   */\n      dup7\n        /* \"#utility.yul\":929:951   */\n      add\n        /* \"#utility.yul\":908:961   */\n      tag_51\n      jump\t// in\n    tag_67:\n        /* \"#utility.yul\":898:961   */\n      swap3\n      pop\n        /* \"#utility.yul\":854:971   */\n      pop\n        /* \"#utility.yul\":1010:1012   */\n      0x20\n        /* \"#utility.yul\":1036:1089   */\n      tag_68\n        /* \"#utility.yul\":1081:1088   */\n      dup6\n        /* \"#utility.yul\":1072:1078   */\n      dup3\n        /* \"#utility.yul\":1061:1070   */\n      dup7\n        /* \"#utility.yul\":1057:1079   */\n      add\n        /* \"#utility.yul\":1036:1089   */\n      tag_55\n      jump\t// in\n    tag_68:\n        /* \"#utility.yul\":1026:1089   */\n      swap2\n      pop\n        /* \"#utility.yul\":981:1099   */\n      pop\n        /* \"#utility.yul\":632:1106   */\n      swap3\n      pop\n      swap3\n      swap1\n      pop\n      jump\t// out\n        /* \"#utility.yul\":1112:1230   */\n    tag_69:\n        /* \"#utility.yul\":1199:1223   */\n      tag_71\n        /* \"#utility.yul\":1217:1222   */\n      dup2\n        /* \"#utility.yul\":1199:1223   */\n      tag_72\n      jump\t// in\n    tag_71:\n        /* \"#utility.yul\":1194:1197   */\n      dup3\n        /* \"#utility.yul\":1187:1224   */\n      mstore\n        /* \"#utility.yul\":1112:1230   */\n      pop\n      pop\n      jump\t// out\n        /* \"#utility.yul\":1236:1602   */\n    tag_73:\n        /* \"#utility.yul\":1378:1381   */\n      0x00\n        /* \"#utility.yul\":1399:1466   */\n      tag_75\n        /* \"#utility.yul\":1463:1465   */\n      0x2c\n        /* \"#utility.yul\":1458:1461   */\n      dup4\n        /* \"#utility.yul\":1399:1466   */\n      tag_76\n      jump\t// in\n    tag_75:\n        /* \"#utility.yul\":1392:1466   */\n      swap2\n      pop\n        /* \"#utility.yul\":1475:1568   */\n      tag_77\n        /* \"#utility.yul\":1564:1567   */\n      dup3\n        /* \"#utility.yul\":1475:1568   */\n      tag_78\n      jump\t// in\n    tag_77:\n        /* \"#utility.yul\":1593:1595   */\n      0x40\n        /* \"#utility.yul\":1588:1591   */\n      dup3\n        /* \"#utility.yul\":1584:1596   */\n      add\n        /* \"#utility.yul\":1577:1596   */\n      swap1\n      pop\n        /* \"#utility.yul\":1236:1602   */\n      swap2\n      swap1\n      pop\n      jump\t// out\n        /* \"#utility.yul\":1608:1974   */\n    tag_79:\n        /* \"#utility.yul\":1750:1753   */\n      0x00\n        /* \"#utility.yul\":1771:1838   */\n      tag_81\n        /* \"#utility.yul\":1835:1837   */\n      0x14\n        /* \"#utility.yul\":1830:1833   */\n      dup4\n        /* \"#utility.yul\":1771:1838   */\n      tag_76\n      jump\t// in\n    tag_81:\n        /* \"#utility.yul\":1764:1838   */\n      swap2\n      pop\n        /* \"#utility.yul\":1847:1940   */\n      tag_82\n        /* \"#utility.yul\":1936:1939   */\n      dup3\n        /* \"#utility.yul\":1847:1940   */\n      tag_83\n      jump\t// in\n    tag_82:\n        /* \"#utility.yul\":1965:1967   */\n      0x20\n        /* \"#utility.yul\":1960:1963   */\n      dup3\n        /* \"#utility.yul\":1956:1968   */\n      add\n        /* \"#utility.yul\":1949:1968   */\n      swap1\n      pop\n        /* \"#utility.yul\":1608:1974   */\n      swap2\n      swap1\n      pop\n      jump\t// out\n        /* \"#utility.yul\":1980:2346   */\n    tag_84:\n        /* \"#utility.yul\":2122:2125   */\n      0x00\n        /* \"#utility.yul\":2143:2210   */\n      tag_86\n        /* \"#utility.yul\":2207:2209   */\n      0x13\n        /* \"#utility.yul\":2202:2205   */\n      dup4\n        /* \"#utility.yul\":2143:2210   */\n      tag_76\n      jump\t// in\n    tag_86:\n        /* \"#utility.yul\":2136:2210   */\n      swap2\n      pop\n        /* \"#utility.yul\":2219:2312   */\n      tag_87\n        /* \"#utility.yul\":2308:2311   */\n      dup3\n        /* \"#utility.yul\":2219:2312   */\n      tag_88\n      jump\t// in\n    tag_87:\n        /* \"#utility.yul\":2337:2339   */\n      0x20\n        /* \"#utility.yul\":2332:2335   */\n      dup3\n        /* \"#utility.yul\":2328:2340   */\n      add\n        /* \"#utility.yul\":2321:2340   */\n      swap1\n      pop\n        /* \"#utility.yul\":1980:2346   */\n      swap2\n      swap1\n      pop\n      jump\t// out\n        /* \"#utility.yul\":2352:2470   */\n    tag_89:\n        /* \"#utility.yul\":2439:2463   */\n      tag_91\n        /* \"#utility.yul\":2457:2462   */\n      dup2\n        /* \"#utility.yul\":2439:2463   */\n      tag_92\n      jump\t// in\n    tag_91:\n        /* \"#utility.yul\":2434:2437   */\n      dup3\n        /* \"#utility.yul\":2427:2464   */\n      mstore\n        /* \"#utility.yul\":2352:2470   */\n      pop\n      pop\n      jump\t// out\n        /* \"#utility.yul\":2476:2698   */\n    tag_18:\n        /* \"#utility.yul\":2569:2573   */\n      0x00\n        /* \"#utility.yul\":2607:2609   */\n      0x20\n        /* \"#utility.yul\":2596:2605   */\n      dup3\n        /* \"#utility.yul\":2592:2610   */\n      add\n        /* \"#utility.yul\":2584:2610   */\n      swap1\n      pop\n        /* \"#utility.yul\":2620:2691   */\n      tag_94\n        /* \"#utility.yul\":2688:2689   */\n      0x00\n        /* \"#utility.yul\":2677:2686   */\n      dup4\n        /* \"#utility.yul\":2673:2690   */\n      add\n        /* \"#utility.yul\":2664:2670   */\n      dup5\n        /* \"#utility.yul\":2620:2691   */\n      tag_69\n      jump\t// in\n    tag_94:\n        /* \"#utility.yul\":2476:2698   */\n      swap3\n      swap2\n      pop\n      pop\n      jump\t// out\n        /* \"#utility.yul\":2704:3036   */\n    tag_32:\n        /* \"#utility.yul\":2825:2829   */\n      0x00\n        /* \"#utility.yul\":2863:2865   */\n      0x40\n        /* \"#utility.yul\":2852:2861   */\n      dup3\n        /* \"#utility.yul\":2848:2866   */\n      add\n        /* \"#utility.yul\":2840:2866   */\n      swap1\n      pop\n        /* \"#utility.yul\":2876:2947   */\n      tag_96\n        /* \"#utility.yul\":2944:2945   */\n      0x00\n        /* \"#utility.yul\":2933:2942   */\n      dup4\n        /* \"#utility.yul\":2929:2946   */\n      add\n        /* \"#utility.yul\":2920:2926   */\n      dup6\n        /* \"#utility.yul\":2876:2947   */\n      tag_69\n      jump\t// in\n    tag_96:\n        /* \"#utility.yul\":2957:3029   */\n      tag_97\n        /* \"#utility.yul\":3025:3027   */\n      0x20\n        /* \"#utility.yul\":3014:3023   */\n      dup4\n        /* \"#utility.yul\":3010:3028   */\n      add\n        /* \"#utility.yul\":3001:3007   */\n      dup5\n        /* \"#utility.yul\":2957:3029   */\n      tag_89\n      jump\t// in\n    tag_97:\n        /* \"#utility.yul\":2704:3036   */\n      swap4\n      swap3\n      pop\n      pop\n      pop\n      jump\t// out\n        /* \"#utility.yul\":3042:3461   */\n    tag_37:\n        /* \"#utility.yul\":3208:3212   */\n      0x00\n        /* \"#utility.yul\":3246:3248   */\n      0x20\n        /* \"#utility.yul\":3235:3244   */\n      dup3\n        /* \"#utility.yul\":3231:3249   */\n      add\n        /* \"#utility.yul\":3223:3249   */\n      swap1\n      pop\n        /* \"#utility.yul\":3295:3304   */\n      dup2\n        /* \"#utility.yul\":3289:3293   */\n      dup2\n        /* \"#utility.yul\":3285:3305   */\n      sub\n        /* \"#utility.yul\":3281:3282   */\n      0x00\n        /* \"#utility.yul\":3270:3279   */\n      dup4\n        /* \"#utility.yul\":3266:3283   */\n      add\n        /* \"#utility.yul\":3259:3306   */\n      mstore\n        /* \"#utility.yul\":3323:3454   */\n      tag_99\n        /* \"#utility.yul\":3449:3453   */\n      dup2\n        /* \"#utility.yul\":3323:3454   */\n      tag_73\n      jump\t// in\n    tag_99:\n        /* \"#utility.yul\":3315:3454   */\n      swap1\n      pop\n        /* \"#utility.yul\":3042:3461   */\n      swap2\n      swap1\n      pop\n      jump\t// out\n        /* \"#utility.yul\":3467:3996   */\n    tag_43:\n        /* \"#utility.yul\":3661:3665   */\n      0x00\n        /* \"#utility.yul\":3699:3701   */\n      0x40\n        /* \"#utility.yul\":3688:3697   */\n      dup3\n        /* \"#utility.yul\":3684:3702   */\n      add\n        /* \"#utility.yul\":3676:3702   */\n      swap1\n      pop\n        /* \"#utility.yul\":3748:3757   */\n      dup2\n        /* \"#utility.yul\":3742:3746   */\n      dup2\n        /* \"#utility.yul\":3738:3758   */\n      sub\n        /* \"#utility.yul\":3734:3735   */\n      0x00\n        /* \"#utility.yul\":3723:3732   */\n      dup4\n        /* \"#utility.yul\":3719:3736   */\n      add\n        /* \"#utility.yul\":3712:3759   */\n      mstore\n        /* \"#utility.yul\":3776:3907   */\n      tag_101\n        /* \"#utility.yul\":3902:3906   */\n      dup2\n        /* \"#utility.yul\":3776:3907   */\n      tag_79\n      jump\t// in\n    tag_101:\n        /* \"#utility.yul\":3768:3907   */\n      swap1\n      pop\n        /* \"#utility.yul\":3917:3989   */\n      tag_102\n        /* \"#utility.yul\":3985:3987   */\n      0x20\n        /* \"#utility.yul\":3974:3983   */\n      dup4\n        /* \"#utility.yul\":3970:3988   */\n      add\n        /* \"#utility.yul\":3961:3967   */\n      dup5\n        /* \"#utility.yul\":3917:3989   */\n      tag_89\n      jump\t// in\n    tag_102:\n        /* \"#utility.yul\":3467:3996   */\n      swap3\n      swap2\n      pop\n      pop\n      jump\t// out\n        /* \"#utility.yul\":4002:4531   */\n    tag_49:\n        /* \"#utility.yul\":4196:4200   */\n      0x00\n        /* \"#utility.yul\":4234:4236   */\n      0x40\n        /* \"#utility.yul\":4223:4232   */\n      dup3\n        /* \"#utility.yul\":4219:4237   */\n      add\n        /* \"#utility.yul\":4211:4237   */\n      swap1\n      pop\n        /* \"#utility.yul\":4283:4292   */\n      dup2\n        /* \"#utility.yul\":4277:4281   */\n      dup2\n        /* \"#utility.yul\":4273:4293   */\n      sub\n        /* \"#utility.yul\":4269:4270   */\n      0x00\n        /* \"#utility.yul\":4258:4267   */\n      dup4\n        /* \"#utility.yul\":4254:4271   */\n      add\n        /* \"#utility.yul\":4247:4294   */\n      mstore\n        /* \"#utility.yul\":4311:4442   */\n      tag_104\n        /* \"#utility.yul\":4437:4441   */\n      dup2\n        /* \"#utility.yul\":4311:4442   */\n      tag_84\n      jump\t// in\n    tag_104:\n        /* \"#utility.yul\":4303:4442   */\n      swap1\n      pop\n        /* \"#utility.yul\":4452:4524   */\n      tag_105\n        /* \"#utility.yul\":4520:4522   */\n      0x20\n        /* \"#utility.yul\":4509:4518   */\n      dup4\n        /* \"#utility.yul\":4505:4523   */\n      add\n        /* \"#utility.yul\":4496:4502   */\n      dup5\n        /* \"#utility.yul\":4452:4524   */\n      tag_89\n      jump\t// in\n    tag_105:\n        /* \"#utility.yul\":4002:4531   */\n      swap3\n      swap2\n      pop\n      pop\n      jump\t// out\n        /* \"#utility.yul\":4537:4759   */\n    tag_14:\n        /* \"#utility.yul\":4630:4634   */\n      0x00\n        /* \"#utility.yul\":4668:4670   */\n      0x20\n        /* \"#utility.yul\":4657:4666   */\n      dup3\n        /* \"#utility.yul\":4653:4671   */\n      add\n        /* \"#utility.yul\":4645:4671   */\n      swap1\n      pop\n        /* \"#utility.yul\":4681:4752   */\n      tag_107\n        /* \"#utility.yul\":4749:4750   */\n      0x00\n        /* \"#utility.yul\":4738:4747   */\n      dup4\n        /* \"#utility.yul\":4734:4751   */\n      add\n        /* \"#utility.yul\":4725:4731   */\n      dup5\n        /* \"#utility.yul\":4681:4752   */\n      tag_89\n      jump\t// in\n    tag_107:\n        /* \"#utility.yul\":4537:4759   */\n      swap3\n      swap2\n      pop\n      pop\n      jump\t// out\n        /* \"#utility.yul\":4846:5015   */\n    tag_76:\n        /* \"#utility.yul\":4930:4941   */\n      0x00\n        /* \"#utility.yul\":4964:4970   */\n      dup3\n        /* \"#utility.yul\":4959:4962   */\n      dup3\n        /* \"#utility.yul\":4952:4971   */\n      mstore\n        /* \"#utility.yul\":5004:5008   */\n      0x20\n        /* \"#utility.yul\":4999:5002   */\n      dup3\n        /* \"#utility.yul\":4995:5009   */\n      add\n        /* \"#utility.yul\":4980:5009   */\n      swap1\n      pop\n        /* \"#utility.yul\":4846:5015   */\n      swap3\n      swap2\n      pop\n      pop\n      jump\t// out\n        /* \"#utility.yul\":5021:5326   */\n    tag_41:\n        /* \"#utility.yul\":5061:5064   */\n      0x00\n        /* \"#utility.yul\":5080:5100   */\n      tag_112\n        /* \"#utility.yul\":5098:5099   */\n      dup3\n        /* \"#utility.yul\":5080:5100   */\n      tag_92\n      jump\t// in\n    tag_112:\n        /* \"#utility.yul\":5075:5100   */\n      swap2\n      pop\n        /* \"#utility.yul\":5114:5134   */\n      tag_113\n        /* \"#utility.yul\":5132:5133   */\n      dup4\n        /* \"#utility.yul\":5114:5134   */\n      tag_92\n      jump\t// in\n    tag_113:\n        /* \"#utility.yul\":5109:5134   */\n      swap3\n      pop\n        /* \"#utility.yul\":5268:5269   */\n      dup3\n        /* \"#utility.yul\":5200:5266   */\n      0xffffffffffffffffffffffffffffffffffffffffffffffffffffffffffffffff\n        /* \"#utility.yul\":5196:5270   */\n      sub\n        /* \"#utility.yul\":5193:5194   */\n      dup3\n        /* \"#utility.yul\":5190:5271   */\n      gt\n        /* \"#utility.yul\":5187:5294   */\n      iszero\n      tag_114\n      jumpi\n        /* \"#utility.yul\":5274:5292   */\n      tag_115\n      tag_116\n      jump\t// in\n    tag_115:\n        /* \"#utility.yul\":5187:5294   */\n    tag_114:\n        /* \"#utility.yul\":5318:5319   */\n      dup3\n        /* \"#utility.yul\":5315:5316   */\n      dup3\n        /* \"#utility.yul\":5311:5320   */\n      add\n        /* \"#utility.yul\":5304:5320   */\n      swap1\n      pop\n        /* \"#utility.yul\":5021:5326   */\n      swap3\n      swap2\n      pop\n      pop\n      jump\t// out\n        /* \"#utility.yul\":5332:5523   */\n    tag_39:\n        /* \"#utility.yul\":5372:5376   */\n      0x00\n        /* \"#utility.yul\":5392:5412   */\n      tag_118\n        /* \"#utility.yul\":5410:5411   */\n      dup3\n        /* \"#utility.yul\":5392:5412   */\n      tag_92\n      jump\t// in\n    tag_118:\n        /* \"#utility.yul\":5387:5412   */\n      swap2\n      pop\n        /* \"#utility.yul\":5426:5446   */\n      tag_119\n        /* \"#utility.yul\":5444:5445   */\n      dup4\n        /* \"#utility.yul\":5426:5446   */\n      tag_92\n      jump\t// in\n    tag_119:\n        /* \"#utility.yul\":5421:5446   */\n      swap3\n      pop\n        /* \"#utility.yul\":5465:5466   */\n      dup3\n        /* \"#utility.yul\":5462:5463   */\n      dup3\n        /* \"#utility.yul\":5459:5467   */\n      lt\n        /* \"#utility.yul\":5456:5490   */\n      iszero\n      tag_120\n      jumpi\n        /* \"#utility.yul\":5470:5488   */\n      tag_121\n      tag_116\n      jump\t// in\n    tag_121:\n        /* \"#utility.yul\":5456:5490   */\n    tag_120:\n        /* \"#utility.yul\":5515:5516   */\n      dup3\n        /* \"#utility.yul\":5512:5513   */\n      dup3\n        /* \"#utility.yul\":5508:5517   */\n      sub\n        /* \"#utility.yul\":5500:5517   */\n      swap1\n      pop\n        /* \"#utility.yul\":5332:5523   */\n      swap3\n      swap2\n      pop\n      pop\n      jump\t// out\n        /* \"#utility.yul\":5529:5625   */\n    tag_72:\n        /* \"#utility.yul\":5566:5573   */\n      0x00\n        /* \"#utility.yul\":5595:5619   */\n      tag_123\n        /* \"#utility.yul\":5613:5618   */\n      dup3\n        /* \"#utility.yul\":5595:5619   */\n      tag_124\n      jump\t// in\n    tag_123:\n        /* \"#utility.yul\":5584:5619   */\n      swap1\n      pop\n        /* \"#utility.yul\":5529:5625   */\n      swap2\n      swap1\n      pop\n      jump\t// out\n        /* \"#utility.yul\":5631:5757   */\n    tag_124:\n        /* \"#utility.yul\":5668:5675   */\n      0x00\n        /* \"#utility.yul\":5708:5750   */\n      0xffffffffffffffffffffffffffffffffffffffff\n        /* \"#utility.yul\":5701:5706   */\n      dup3\n        /* \"#utility.yul\":5697:5751   */\n      and\n        /* \"#utility.yul\":5686:5751   */\n      swap1\n      pop\n        /* \"#utility.yul\":5631:5757   */\n      swap2\n      swap1\n      pop\n      jump\t// out\n        /* \"#utility.yul\":5763:5840   */\n    tag_92:\n        /* \"#utility.yul\":5800:5807   */\n      0x00\n        /* \"#utility.yul\":5829:5834   */\n      dup2\n        /* \"#utility.yul\":5818:5834   */\n      swap1\n      pop\n        /* \"#utility.yul\":5763:5840   */\n      swap2\n      swap1\n      pop\n      jump\t// out\n        /* \"#utility.yul\":5846:6026   */\n    tag_116:\n        /* \"#utility.yul\":5894:5971   */\n      0x4e487b7100000000000000000000000000000000000000000000000000000000\n        /* \"#utility.yul\":5891:5892   */\n      0x00\n        /* \"#utility.yul\":5884:5972   */\n      mstore\n        /* \"#utility.yul\":5991:5995   */\n      0x11\n        /* \"#utility.yul\":5988:5989   */\n      0x04\n        /* \"#utility.yul\":5981:5996   */\n      mstore\n        /* \"#utility.yul\":6015:6019   */\n      0x24\n        /* \"#utility.yul\":6012:6013   */\n      0x00\n        /* \"#utility.yul\":6005:6020   */\n      revert\n        /* \"#utility.yul\":6155:6272   */\n    tag_62:\n        /* \"#utility.yul\":6264:6265   */\n      0x00\n        /* \"#utility.yul\":6261:6262   */\n      dup1\n        /* \"#utility.yul\":6254:6266   */\n      revert\n        /* \"#utility.yul\":6278:6509   */\n    tag_78:\n        /* \"#utility.yul\":6418:6452   */\n      0x4e6f7420656e6f7567682062616c616e636520746f206578656375746520796f\n        /* \"#utility.yul\":6414:6415   */\n      0x00\n        /* \"#utility.yul\":6406:6412   */\n      dup3\n        /* \"#utility.yul\":6402:6416   */\n      add\n        /* \"#utility.yul\":6395:6453   */\n      mstore\n        /* \"#utility.yul\":6487:6501   */\n      0x7572207472616e736665722e0000000000000000000000000000000000000000\n        /* \"#utility.yul\":6482:6484   */\n      0x20\n        /* \"#utility.yul\":6474:6480   */\n      dup3\n        /* \"#utility.yul\":6470:6485   */\n      add\n        /* \"#utility.yul\":6463:6502   */\n      mstore\n        /* \"#utility.yul\":6278:6509   */\n      pop\n      jump\t// out\n        /* \"#utility.yul\":6515:6685   */\n    tag_83:\n        /* \"#utility.yul\":6655:6677   */\n      0x416d6f756e74207472616e736665726564203d20000000000000000000000000\n        /* \"#utility.yul\":6651:6652   */\n      0x00\n        /* \"#utility.yul\":6643:6649   */\n      dup3\n        /* \"#utility.yul\":6639:6653   */\n      add\n        /* \"#utility.yul\":6632:6678   */\n      mstore\n        /* \"#utility.yul\":6515:6685   */\n      pop\n      jump\t// out\n        /* \"#utility.yul\":6691:6860   */\n    tag_88:\n        /* \"#utility.yul\":6831:6852   */\n      0x4e657720546f74616c20537570706c79203d2000000000000000000000000000\n        /* \"#utility.yul\":6827:6828   */\n      0x00\n        /* \"#utility.yul\":6819:6825   */\n      dup3\n        /* \"#utility.yul\":6815:6829   */\n      add\n        /* \"#utility.yul\":6808:6853   */\n      mstore\n        /* \"#utility.yul\":6691:6860   */\n      pop\n      jump\t// out\n        /* \"#utility.yul\":6866:6988   */\n    tag_54:\n        /* \"#utility.yul\":6939:6963   */\n      tag_135\n        /* \"#utility.yul\":6957:6962   */\n      dup2\n        /* \"#utility.yul\":6939:6963   */\n      tag_72\n      jump\t// in\n    tag_135:\n        /* \"#utility.yul\":6932:6937   */\n      dup2\n        /* \"#utility.yul\":6929:6964   */\n      eq\n        /* \"#utility.yul\":6919:6982   */\n      tag_136\n      jumpi\n        /* \"#utility.yul\":6978:6979   */\n      0x00\n        /* \"#utility.yul\":6975:6976   */\n      dup1\n        /* \"#utility.yul\":6968:6980   */\n      revert\n        /* \"#utility.yul\":6919:6982   */\n    tag_136:\n        /* \"#utility.yul\":6866:6988   */\n      pop\n      jump\t// out\n        /* \"#utility.yul\":6994:7116   */\n    tag_58:\n        /* \"#utility.yul\":7067:7091   */\n      tag_138\n        /* \"#utility.yul\":7085:7090   */\n      dup2\n        /* \"#utility.yul\":7067:7091   */\n      tag_92\n      jump\t// in\n    tag_138:\n        /* \"#utility.yul\":7060:7065   */\n      dup2\n        /* \"#utility.yul\":7057:7092   */\n      eq\n        /* \"#utility.yul\":7047:7110   */\n      tag_139\n      jumpi\n        /* \"#utility.yul\":7106:7107   */\n      0x00\n        /* \"#utility.yul\":7103:7104   */\n      dup1\n        /* \"#utility.yul\":7096:7108   */\n      revert\n        /* \"#utility.yul\":7047:7110   */\n    tag_139:\n        /* \"#utility.yul\":6994:7116   */\n      pop\n      jump\t// out\n\n    auxdata: 0xa26469706673582212205d57a89dce605f4811fed2b70a23b8a31ccce757d4bab86c0357375acd4870be64736f6c63430008070033\n}\n",
				"bytecode": {
					"linkReferences": {},
					"object": "608060405261271060005534801561001657600080fd5b5033600160006101000a81548173ffffffffffffffffffffffffffffffffffffffff021916908373ffffffffffffffffffffffffffffffffffffffff16021790555060005460026000600160009054906101000a900473ffffffffffffffffffffffffffffffffffffffff1673ffffffffffffffffffffffffffffffffffffffff1673ffffffffffffffffffffffffffffffffffffffff16815260200190815260200160002081905550610801806100cf6000396000f3fe608060405234801561001057600080fd5b50600436106100625760003560e01c806347734892146100675780638da5cb5b14610097578063902d55a5146100b5578063a9059cbb146100d3578063de0f2be1146100ef578063e2982c21146100f9575b600080fd5b610081600480360381019061007c9190610422565b61012a565b60405161008e91906105d6565b60405180910390f35b61009f610173565b6040516100ac9190610516565b60405180910390f35b6100bd610199565b6040516100ca91906105d6565b60405180910390f35b6100ed60048036038101906100e8919061044f565b61019f565b005b6100f7610308565b005b610113600480360381019061010e9190610422565b6103b4565b604051610121929190610531565b60405180910390f35b6000600260008373ffffffffffffffffffffffffffffffffffffffff1673ffffffffffffffffffffffffffffffffffffffff168152602001908152602001600020549050919050565b600160009054906101000a900473ffffffffffffffffffffffffffffffffffffffff1681565b60005481565b80600260003373ffffffffffffffffffffffffffffffffffffffff1673ffffffffffffffffffffffffffffffffffffffff168152602001908152602001600020541015610221576040517f08c379a00000000000000000000000000000000000000000000000000000000081526004016102189061055a565b60405180910390fd5b80600260003373ffffffffffffffffffffffffffffffffffffffff1673ffffffffffffffffffffffffffffffffffffffff16815260200190815260200160002060008282546102709190610658565b9250508190555080600260008473ffffffffffffffffffffffffffffffffffffffff1673ffffffffffffffffffffffffffffffffffffffff16815260200190815260200160002060008282546102c69190610602565b925050819055507f5a2050e3f02d2781f60eea7b6796becb3dd7507e14fce659f8f395d1bcce5fc9816040516102fc919061057a565b60405180910390a15050565b600160009054906101000a900473ffffffffffffffffffffffffffffffffffffffff1673ffffffffffffffffffffffffffffffffffffffff163373ffffffffffffffffffffffffffffffffffffffff1614156103b2576103e86000808282546103719190610602565b925050819055507f36a6bfb04e36ebe40c1792d122008a16ba8db271eec24c015129bf170ffb44846000546040516103a991906105a8565b60405180910390a15b565b60036020528060005260406000206000915090508060000160009054906101000a900473ffffffffffffffffffffffffffffffffffffffff16908060010154905082565b6000813590506104078161079d565b92915050565b60008135905061041c816107b4565b92915050565b600060208284031215610438576104376106f7565b5b6000610446848285016103f8565b91505092915050565b60008060408385031215610466576104656106f7565b5b6000610474858286016103f8565b92505060206104858582860161040d565b9150509250929050565b6104988161068c565b82525050565b60006104ab602c836105f1565b91506104b6826106fc565b604082019050919050565b60006104ce6014836105f1565b91506104d98261074b565b602082019050919050565b60006104f16013836105f1565b91506104fc82610774565b602082019050919050565b610510816106be565b82525050565b600060208201905061052b600083018461048f565b92915050565b6000604082019050610546600083018561048f565b6105536020830184610507565b9392505050565b600060208201905081810360008301526105738161049e565b9050919050565b60006040820190508181036000830152610593816104c1565b90506105a26020830184610507565b92915050565b600060408201905081810360008301526105c1816104e4565b90506105d06020830184610507565b92915050565b60006020820190506105eb6000830184610507565b92915050565b600082825260208201905092915050565b600061060d826106be565b9150610618836106be565b9250827fffffffffffffffffffffffffffffffffffffffffffffffffffffffffffffffff0382111561064d5761064c6106c8565b5b828201905092915050565b6000610663826106be565b915061066e836106be565b925082821015610681576106806106c8565b5b828203905092915050565b60006106978261069e565b9050919050565b600073ffffffffffffffffffffffffffffffffffffffff82169050919050565b6000819050919050565b7f4e487b7100000000000000000000000000000000000000000000000000000000600052601160045260246000fd5b600080fd5b7f4e6f7420656e6f7567682062616c616e636520746f206578656375746520796f60008201527f7572207472616e736665722e0000000000000000000000000000000000000000602082015250565b7f416d6f756e74207472616e736665726564203d20000000000000000000000000600082015250565b7f4e657720546f74616c20537570706c79203d2000000000000000000000000000600082015250565b6107a68161068c565b81146107b157600080fd5b50565b6107bd816106be565b81146107c857600080fd5b5056fea26469706673582212205d57a89dce605f4811fed2b70a23b8a31ccce757d4bab86c0357375acd4870be64736f6c63430008070033",
					"opcodes": "PUSH1 0x80 PUSH1 0x40 MSTORE PUSH2 0x2710 PUSH1 0x0 SSTORE CALLVALUE DUP1 ISZERO PUSH2 0x16 JUMPI PUSH1 0x0 DUP1 REVERT JUMPDEST POP CALLER PUSH1 0x1 PUSH1 0x0 PUSH2 0x100 EXP DUP2 SLOAD DUP2 PUSH20 0xFFFFFFFFFFFFFFFFFFFFFFFFFFFFFFFFFFFFFFFF MUL NOT AND SWAP1 DUP4 PUSH20 0xFFFFFFFFFFFFFFFFFFFFFFFFFFFFFFFFFFFFFFFF AND MUL OR SWAP1 SSTORE POP PUSH1 0x0 SLOAD PUSH1 0x2 PUSH1 0x0 PUSH1 0x1 PUSH1 0x0 SWAP1 SLOAD SWAP1 PUSH2 0x100 EXP SWAP1 DIV PUSH20 0xFFFFFFFFFFFFFFFFFFFFFFFFFFFFFFFFFFFFFFFF AND PUSH20 0xFFFFFFFFFFFFFFFFFFFFFFFFFFFFFFFFFFFFFFFF AND PUSH20 0xFFFFFFFFFFFFFFFFFFFFFFFFFFFFFFFFFFFFFFFF AND DUP2 MSTORE PUSH1 0x20 ADD SWAP1 DUP2 MSTORE PUSH1 0x20 ADD PUSH1 0x0 KECCAK256 DUP2 SWAP1 SSTORE POP PUSH2 0x801 DUP1 PUSH2 0xCF PUSH1 0x0 CODECOPY PUSH1 0x0 RETURN INVALID PUSH1 0x80 PUSH1 0x40 MSTORE CALLVALUE DUP1 ISZERO PUSH2 0x10 JUMPI PUSH1 0x0 DUP1 REVERT JUMPDEST POP PUSH1 0x4 CALLDATASIZE LT PUSH2 0x62 JUMPI PUSH1 0x0 CALLDATALOAD PUSH1 0xE0 SHR DUP1 PUSH4 0x47734892 EQ PUSH2 0x67 JUMPI DUP1 PUSH4 0x8DA5CB5B EQ PUSH2 0x97 JUMPI DUP1 PUSH4 0x902D55A5 EQ PUSH2 0xB5 JUMPI DUP1 PUSH4 0xA9059CBB EQ PUSH2 0xD3 JUMPI DUP1 PUSH4 0xDE0F2BE1 EQ PUSH2 0xEF JUMPI DUP1 PUSH4 0xE2982C21 EQ PUSH2 0xF9 JUMPI JUMPDEST PUSH1 0x0 DUP1 REVERT JUMPDEST PUSH2 0x81 PUSH1 0x4 DUP1 CALLDATASIZE SUB DUP2 ADD SWAP1 PUSH2 0x7C SWAP2 SWAP1 PUSH2 0x422 JUMP JUMPDEST PUSH2 0x12A JUMP JUMPDEST PUSH1 0x40 MLOAD PUSH2 0x8E SWAP2 SWAP1 PUSH2 0x5D6 JUMP JUMPDEST PUSH1 0x40 MLOAD DUP1 SWAP2 SUB SWAP1 RETURN JUMPDEST PUSH2 0x9F PUSH2 0x173 JUMP JUMPDEST PUSH1 0x40 MLOAD PUSH2 0xAC SWAP2 SWAP1 PUSH2 0x516 JUMP JUMPDEST PUSH1 0x40 MLOAD DUP1 SWAP2 SUB SWAP1 RETURN JUMPDEST PUSH2 0xBD PUSH2 0x199 JUMP JUMPDEST PUSH1 0x40 MLOAD PUSH2 0xCA SWAP2 SWAP1 PUSH2 0x5D6 JUMP JUMPDEST PUSH1 0x40 MLOAD DUP1 SWAP2 SUB SWAP1 RETURN JUMPDEST PUSH2 0xED PUSH1 0x4 DUP1 CALLDATASIZE SUB DUP2 ADD SWAP1 PUSH2 0xE8 SWAP2 SWAP1 PUSH2 0x44F JUMP JUMPDEST PUSH2 0x19F JUMP JUMPDEST STOP JUMPDEST PUSH2 0xF7 PUSH2 0x308 JUMP JUMPDEST STOP JUMPDEST PUSH2 0x113 PUSH1 0x4 DUP1 CALLDATASIZE SUB DUP2 ADD SWAP1 PUSH2 0x10E SWAP2 SWAP1 PUSH2 0x422 JUMP JUMPDEST PUSH2 0x3B4 JUMP JUMPDEST PUSH1 0x40 MLOAD PUSH2 0x121 SWAP3 SWAP2 SWAP1 PUSH2 0x531 JUMP JUMPDEST PUSH1 0x40 MLOAD DUP1 SWAP2 SUB SWAP1 RETURN JUMPDEST PUSH1 0x0 PUSH1 0x2 PUSH1 0x0 DUP4 PUSH20 0xFFFFFFFFFFFFFFFFFFFFFFFFFFFFFFFFFFFFFFFF AND PUSH20 0xFFFFFFFFFFFFFFFFFFFFFFFFFFFFFFFFFFFFFFFF AND DUP2 MSTORE PUSH1 0x20 ADD SWAP1 DUP2 MSTORE PUSH1 0x20 ADD PUSH1 0x0 KECCAK256 SLOAD SWAP1 POP SWAP2 SWAP1 POP JUMP JUMPDEST PUSH1 0x1 PUSH1 0x0 SWAP1 SLOAD SWAP1 PUSH2 0x100 EXP SWAP1 DIV PUSH20 0xFFFFFFFFFFFFFFFFFFFFFFFFFFFFFFFFFFFFFFFF AND DUP2 JUMP JUMPDEST PUSH1 0x0 SLOAD DUP2 JUMP JUMPDEST DUP1 PUSH1 0x2 PUSH1 0x0 CALLER PUSH20 0xFFFFFFFFFFFFFFFFFFFFFFFFFFFFFFFFFFFFFFFF AND PUSH20 0xFFFFFFFFFFFFFFFFFFFFFFFFFFFFFFFFFFFFFFFF AND DUP2 MSTORE PUSH1 0x20 ADD SWAP1 DUP2 MSTORE PUSH1 0x20 ADD PUSH1 0x0 KECCAK256 SLOAD LT ISZERO PUSH2 0x221 JUMPI PUSH1 0x40 MLOAD PUSH32 0x8C379A000000000000000000000000000000000000000000000000000000000 DUP2 MSTORE PUSH1 0x4 ADD PUSH2 0x218 SWAP1 PUSH2 0x55A JUMP JUMPDEST PUSH1 0x40 MLOAD DUP1 SWAP2 SUB SWAP1 REVERT JUMPDEST DUP1 PUSH1 0x2 PUSH1 0x0 CALLER PUSH20 0xFFFFFFFFFFFFFFFFFFFFFFFFFFFFFFFFFFFFFFFF AND PUSH20 0xFFFFFFFFFFFFFFFFFFFFFFFFFFFFFFFFFFFFFFFF AND DUP2 MSTORE PUSH1 0x20 ADD SWAP1 DUP2 MSTORE PUSH1 0x20 ADD PUSH1 0x0 KECCAK256 PUSH1 0x0 DUP3 DUP3 SLOAD PUSH2 0x270 SWAP2 SWAP1 PUSH2 0x658 JUMP JUMPDEST SWAP3 POP POP DUP2 SWAP1 SSTORE POP DUP1 PUSH1 0x2 PUSH1 0x0 DUP5 PUSH20 0xFFFFFFFFFFFFFFFFFFFFFFFFFFFFFFFFFFFFFFFF AND PUSH20 0xFFFFFFFFFFFFFFFFFFFFFFFFFFFFFFFFFFFFFFFF AND DUP2 MSTORE PUSH1 0x20 ADD SWAP1 DUP2 MSTORE PUSH1 0x20 ADD PUSH1 0x0 KECCAK256 PUSH1 0x0 DUP3 DUP3 SLOAD PUSH2 0x2C6 SWAP2 SWAP1 PUSH2 0x602 JUMP JUMPDEST SWAP3 POP POP DUP2 SWAP1 SSTORE POP PUSH32 0x5A2050E3F02D2781F60EEA7B6796BECB3DD7507E14FCE659F8F395D1BCCE5FC9 DUP2 PUSH1 0x40 MLOAD PUSH2 0x2FC SWAP2 SWAP1 PUSH2 0x57A JUMP JUMPDEST PUSH1 0x40 MLOAD DUP1 SWAP2 SUB SWAP1 LOG1 POP POP JUMP JUMPDEST PUSH1 0x1 PUSH1 0x0 SWAP1 SLOAD SWAP1 PUSH2 0x100 EXP SWAP1 DIV PUSH20 0xFFFFFFFFFFFFFFFFFFFFFFFFFFFFFFFFFFFFFFFF AND PUSH20 0xFFFFFFFFFFFFFFFFFFFFFFFFFFFFFFFFFFFFFFFF AND CALLER PUSH20 0xFFFFFFFFFFFFFFFFFFFFFFFFFFFFFFFFFFFFFFFF AND EQ ISZERO PUSH2 0x3B2 JUMPI PUSH2 0x3E8 PUSH1 0x0 DUP1 DUP3 DUP3 SLOAD PUSH2 0x371 SWAP2 SWAP1 PUSH2 0x602 JUMP JUMPDEST SWAP3 POP POP DUP2 SWAP1 SSTORE POP PUSH32 0x36A6BFB04E36EBE40C1792D122008A16BA8DB271EEC24C015129BF170FFB4484 PUSH1 0x0 SLOAD PUSH1 0x40 MLOAD PUSH2 0x3A9 SWAP2 SWAP1 PUSH2 0x5A8 JUMP JUMPDEST PUSH1 0x40 MLOAD DUP1 SWAP2 SUB SWAP1 LOG1 JUMPDEST JUMP JUMPDEST PUSH1 0x3 PUSH1 0x20 MSTORE DUP1 PUSH1 0x0 MSTORE PUSH1 0x40 PUSH1 0x0 KECCAK256 PUSH1 0x0 SWAP2 POP SWAP1 POP DUP1 PUSH1 0x0 ADD PUSH1 0x0 SWAP1 SLOAD SWAP1 PUSH2 0x100 EXP SWAP1 DIV PUSH20 0xFFFFFFFFFFFFFFFFFFFFFFFFFFFFFFFFFFFFFFFF AND SWAP1 DUP1 PUSH1 0x1 ADD SLOAD SWAP1 POP DUP3 JUMP JUMPDEST PUSH1 0x0 DUP2 CALLDATALOAD SWAP1 POP PUSH2 0x407 DUP2 PUSH2 0x79D JUMP JUMPDEST SWAP3 SWAP2 POP POP JUMP JUMPDEST PUSH1 0x0 DUP2 CALLDATALOAD SWAP1 POP PUSH2 0x41C DUP2 PUSH2 0x7B4 JUMP JUMPDEST SWAP3 SWAP2 POP POP JUMP JUMPDEST PUSH1 0x0 PUSH1 0x20 DUP3 DUP5 SUB SLT ISZERO PUSH2 0x438 JUMPI PUSH2 0x437 PUSH2 0x6F7 JUMP JUMPDEST JUMPDEST PUSH1 0x0 PUSH2 0x446 DUP5 DUP3 DUP6 ADD PUSH2 0x3F8 JUMP JUMPDEST SWAP2 POP POP SWAP3 SWAP2 POP POP JUMP JUMPDEST PUSH1 0x0 DUP1 PUSH1 0x40 DUP4 DUP6 SUB SLT ISZERO PUSH2 0x466 JUMPI PUSH2 0x465 PUSH2 0x6F7 JUMP JUMPDEST JUMPDEST PUSH1 0x0 PUSH2 0x474 DUP6 DUP3 DUP7 ADD PUSH2 0x3F8 JUMP JUMPDEST SWAP3 POP POP PUSH1 0x20 PUSH2 0x485 DUP6 DUP3 DUP7 ADD PUSH2 0x40D JUMP JUMPDEST SWAP2 POP POP SWAP3 POP SWAP3 SWAP1 POP JUMP JUMPDEST PUSH2 0x498 DUP2 PUSH2 0x68C JUMP JUMPDEST DUP3 MSTORE POP POP JUMP JUMPDEST PUSH1 0x0 PUSH2 0x4AB PUSH1 0x2C DUP4 PUSH2 0x5F1 JUMP JUMPDEST SWAP2 POP PUSH2 0x4B6 DUP3 PUSH2 0x6FC JUMP JUMPDEST PUSH1 0x40 DUP3 ADD SWAP1 POP SWAP2 SWAP1 POP JUMP JUMPDEST PUSH1 0x0 PUSH2 0x4CE PUSH1 0x14 DUP4 PUSH2 0x5F1 JUMP JUMPDEST SWAP2 POP PUSH2 0x4D9 DUP3 PUSH2 0x74B JUMP JUMPDEST PUSH1 0x20 DUP3 ADD SWAP1 POP SWAP2 SWAP1 POP JUMP JUMPDEST PUSH1 0x0 PUSH2 0x4F1 PUSH1 0x13 DUP4 PUSH2 0x5F1 JUMP JUMPDEST SWAP2 POP PUSH2 0x4FC DUP3 PUSH2 0x774 JUMP JUMPDEST PUSH1 0x20 DUP3 ADD SWAP1 POP SWAP2 SWAP1 POP JUMP JUMPDEST PUSH2 0x510 DUP2 PUSH2 0x6BE JUMP JUMPDEST DUP3 MSTORE POP POP JUMP JUMPDEST PUSH1 0x0 PUSH1 0x20 DUP3 ADD SWAP1 POP PUSH2 0x52B PUSH1 0x0 DUP4 ADD DUP5 PUSH2 0x48F JUMP JUMPDEST SWAP3 SWAP2 POP POP JUMP JUMPDEST PUSH1 0x0 PUSH1 0x40 DUP3 ADD SWAP1 POP PUSH2 0x546 PUSH1 0x0 DUP4 ADD DUP6 PUSH2 0x48F JUMP JUMPDEST PUSH2 0x553 PUSH1 0x20 DUP4 ADD DUP5 PUSH2 0x507 JUMP JUMPDEST SWAP4 SWAP3 POP POP POP JUMP JUMPDEST PUSH1 0x0 PUSH1 0x20 DUP3 ADD SWAP1 POP DUP2 DUP2 SUB PUSH1 0x0 DUP4 ADD MSTORE PUSH2 0x573 DUP2 PUSH2 0x49E JUMP JUMPDEST SWAP1 POP SWAP2 SWAP1 POP JUMP JUMPDEST PUSH1 0x0 PUSH1 0x40 DUP3 ADD SWAP1 POP DUP2 DUP2 SUB PUSH1 0x0 DUP4 ADD MSTORE PUSH2 0x593 DUP2 PUSH2 0x4C1 JUMP JUMPDEST SWAP1 POP PUSH2 0x5A2 PUSH1 0x20 DUP4 ADD DUP5 PUSH2 0x507 JUMP JUMPDEST SWAP3 SWAP2 POP POP JUMP JUMPDEST PUSH1 0x0 PUSH1 0x40 DUP3 ADD SWAP1 POP DUP2 DUP2 SUB PUSH1 0x0 DUP4 ADD MSTORE PUSH2 0x5C1 DUP2 PUSH2 0x4E4 JUMP JUMPDEST SWAP1 POP PUSH2 0x5D0 PUSH1 0x20 DUP4 ADD DUP5 PUSH2 0x507 JUMP JUMPDEST SWAP3 SWAP2 POP POP JUMP JUMPDEST PUSH1 0x0 PUSH1 0x20 DUP3 ADD SWAP1 POP PUSH2 0x5EB PUSH1 0x0 DUP4 ADD DUP5 PUSH2 0x507 JUMP JUMPDEST SWAP3 SWAP2 POP POP JUMP JUMPDEST PUSH1 0x0 DUP3 DUP3 MSTORE PUSH1 0x20 DUP3 ADD SWAP1 POP SWAP3 SWAP2 POP POP JUMP JUMPDEST PUSH1 0x0 PUSH2 0x60D DUP3 PUSH2 0x6BE JUMP JUMPDEST SWAP2 POP PUSH2 0x618 DUP4 PUSH2 0x6BE JUMP JUMPDEST SWAP3 POP DUP3 PUSH32 0xFFFFFFFFFFFFFFFFFFFFFFFFFFFFFFFFFFFFFFFFFFFFFFFFFFFFFFFFFFFFFFFF SUB DUP3 GT ISZERO PUSH2 0x64D JUMPI PUSH2 0x64C PUSH2 0x6C8 JUMP JUMPDEST JUMPDEST DUP3 DUP3 ADD SWAP1 POP SWAP3 SWAP2 POP POP JUMP JUMPDEST PUSH1 0x0 PUSH2 0x663 DUP3 PUSH2 0x6BE JUMP JUMPDEST SWAP2 POP PUSH2 0x66E DUP4 PUSH2 0x6BE JUMP JUMPDEST SWAP3 POP DUP3 DUP3 LT ISZERO PUSH2 0x681 JUMPI PUSH2 0x680 PUSH2 0x6C8 JUMP JUMPDEST JUMPDEST DUP3 DUP3 SUB SWAP1 POP SWAP3 SWAP2 POP POP JUMP JUMPDEST PUSH1 0x0 PUSH2 0x697 DUP3 PUSH2 0x69E JUMP JUMPDEST SWAP1 POP SWAP2 SWAP1 POP JUMP JUMPDEST PUSH1 0x0 PUSH20 0xFFFFFFFFFFFFFFFFFFFFFFFFFFFFFFFFFFFFFFFF DUP3 AND SWAP1 POP SWAP2 SWAP1 POP JUMP JUMPDEST PUSH1 0x0 DUP2 SWAP1 POP SWAP2 SWAP1 POP JUMP JUMPDEST PUSH32 0x4E487B7100000000000000000000000000000000000000000000000000000000 PUSH1 0x0 MSTORE PUSH1 0x11 PUSH1 0x4 MSTORE PUSH1 0x24 PUSH1 0x0 REVERT JUMPDEST PUSH1 0x0 DUP1 REVERT JUMPDEST PUSH32 0x4E6F7420656E6F7567682062616C616E636520746F206578656375746520796F PUSH1 0x0 DUP3 ADD MSTORE PUSH32 0x7572207472616E736665722E0000000000000000000000000000000000000000 PUSH1 0x20 DUP3 ADD MSTORE POP JUMP JUMPDEST PUSH32 0x416D6F756E74207472616E736665726564203D20000000000000000000000000 PUSH1 0x0 DUP3 ADD MSTORE POP JUMP JUMPDEST PUSH32 0x4E657720546F74616C20537570706C79203D2000000000000000000000000000 PUSH1 0x0 DUP3 ADD MSTORE POP JUMP JUMPDEST PUSH2 0x7A6 DUP2 PUSH2 0x68C JUMP JUMPDEST DUP2 EQ PUSH2 0x7B1 JUMPI PUSH1 0x0 DUP1 REVERT JUMPDEST POP JUMP JUMPDEST PUSH2 0x7BD DUP2 PUSH2 0x6BE JUMP JUMPDEST DUP2 EQ PUSH2 0x7C8 JUMPI PUSH1 0x0 DUP1 REVERT JUMPDEST POP JUMP INVALID LOG2 PUSH5 0x6970667358 0x22 SLT KECCAK256 0x5D JUMPI 0xA8 SWAP14 0xCE PUSH1 0x5F BASEFEE GT INVALID 0xD2 0xB7 EXP 0x23 0xB8 LOG3 SHR 0xCC 0xE7 JUMPI 0xD4 0xBA 0xB8 PUSH13 0x357375ACD4870BE64736F6C63 NUMBER STOP ADDMOD SMOD STOP CALLER "
				},
				"gasEstimates": {
					"creation": {
						"codeDepositCost": "409800",
						"executionCost": "73261",
						"totalCost": "483061"
					},
					"external": {
						"TOTAL_SUPPLY()": "2451",
						"getUserBalance(address)": "2819",
						"increaseTotalSupply()": "infinite",
						"owner()": "2514",
						"payments(address)": "infinite",
						"transfer(address,uint256)": "infinite"
					}
				},
				"methodIdentifiers": {
					"TOTAL_SUPPLY()": "902d55a5",
					"getUserBalance(address)": "47734892",
					"increaseTotalSupply()": "de0f2be1",
					"owner()": "8da5cb5b",
					"payments(address)": "e2982c21",
					"transfer(address,uint256)": "a9059cbb"
				}
			},
			"storageLayout": {
				"storage": [
					{
						"astId": 4,
						"contract": "contracts/ethdenver_lessons/D4/VolcanoCoin.sol:VolcanoCoin",
						"label": "TOTAL_SUPPLY",
						"offset": 0,
						"slot": "0",
						"type": "t_uint256"
					},
					{
						"astId": 6,
						"contract": "contracts/ethdenver_lessons/D4/VolcanoCoin.sol:VolcanoCoin",
						"label": "owner",
						"offset": 0,
						"slot": "1",
						"type": "t_address"
					},
					{
						"astId": 27,
						"contract": "contracts/ethdenver_lessons/D4/VolcanoCoin.sol:VolcanoCoin",
						"label": "balances",
						"offset": 0,
						"slot": "2",
						"type": "t_mapping(t_address,t_uint256)"
					},
					{
						"astId": 32,
						"contract": "contracts/ethdenver_lessons/D4/VolcanoCoin.sol:VolcanoCoin",
						"label": "payments",
						"offset": 0,
						"slot": "3",
						"type": "t_mapping(t_address,t_struct(Payment)23_storage)"
					}
				],
				"types": {
					"t_address": {
						"encoding": "inplace",
						"label": "address",
						"numberOfBytes": "20"
					},
					"t_mapping(t_address,t_struct(Payment)23_storage)": {
						"encoding": "mapping",
						"key": "t_address",
						"label": "mapping(address => struct VolcanoCoin.Payment)",
						"numberOfBytes": "32",
						"value": "t_struct(Payment)23_storage"
					},
					"t_mapping(t_address,t_uint256)": {
						"encoding": "mapping",
						"key": "t_address",
						"label": "mapping(address => uint256)",
						"numberOfBytes": "32",
						"value": "t_uint256"
					},
					"t_struct(Payment)23_storage": {
						"encoding": "inplace",
						"label": "struct VolcanoCoin.Payment",
						"members": [
							{
								"astId": 20,
								"contract": "contracts/ethdenver_lessons/D4/VolcanoCoin.sol:VolcanoCoin",
								"label": "user",
								"offset": 0,
								"slot": "0",
								"type": "t_address"
							},
							{
								"astId": 22,
								"contract": "contracts/ethdenver_lessons/D4/VolcanoCoin.sol:VolcanoCoin",
								"label": "amount",
								"offset": 0,
								"slot": "1",
								"type": "t_uint256"
							}
						],
						"numberOfBytes": "64"
					},
					"t_uint256": {
						"encoding": "inplace",
						"label": "uint256",
						"numberOfBytes": "32"
					}
				}
			},
			"userdoc": {
				"kind": "user",
				"methods": {},
				"version": 1
			}
		}
	}
}