{
	"contracts/ethdenver_lessons/D4/VolcanoCoin.sol": {
		"VolcanoCoin": {
			"abi": [
				{
					"inputs": [],
					"stateMutability": "nonpayable",
					"type": "constructor"
				},
				{
					"anonymous": false,
					"inputs": [
						{
							"indexed": false,
							"internalType": "string",
							"name": "",
							"type": "string"
						},
						{
							"indexed": false,
							"internalType": "uint256",
							"name": "",
							"type": "uint256"
						}
					],
					"name": "eventTotalSupplyChanged",
					"type": "event"
				},
				{
					"anonymous": false,
					"inputs": [
						{
							"indexed": false,
							"internalType": "string",
							"name": "",
							"type": "string"
						},
						{
							"indexed": false,
							"internalType": "uint256",
							"name": "",
							"type": "uint256"
						}
					],
					"name": "eventTransfer",
					"type": "event"
				},
				{
					"inputs": [],
					"name": "TOTAL_SUPPLY",
					"outputs": [
						{
							"internalType": "uint256",
							"name": "",
							"type": "uint256"
						}
					],
					"stateMutability": "view",
					"type": "function"
				},
				{
					"inputs": [
						{
							"internalType": "address",
							"name": "user",
							"type": "address"
						}
					],
					"name": "getUserBalance",
					"outputs": [
						{
							"internalType": "uint256",
							"name": "",
							"type": "uint256"
						}
					],
					"stateMutability": "view",
					"type": "function"
				},
				{
					"inputs": [],
					"name": "increaseTotalSupply",
					"outputs": [],
					"stateMutability": "nonpayable",
					"type": "function"
				},
				{
					"inputs": [],
					"name": "owner",
					"outputs": [
						{
							"internalType": "address",
							"name": "",
							"type": "address"
						}
					],
					"stateMutability": "view",
					"type": "function"
				},
				{
					"inputs": [
						{
							"internalType": "address",
							"name": "user",
							"type": "address"
						},
						{
							"internalType": "uint256",
							"name": "_amount",
							"type": "uint256"
						}
					],
					"name": "transfer",
					"outputs": [],
					"stateMutability": "nonpayable",
					"type": "function"
				}
			],
			"devdoc": {
				"kind": "dev",
				"methods": {},
				"version": 1
			},
			"evm": {
				"assembly": "    /* \"contracts/ethdenver_lessons/D4/VolcanoCoin.sol\":65:1122  contract VolcanoCoin {... */\n  mstore(0x40, 0x80)\n    /* \"contracts/ethdenver_lessons/D4/VolcanoCoin.sol\":122:127  10000 */\n  0x2710\n    /* \"contracts/ethdenver_lessons/D4/VolcanoCoin.sol\":92:127  uint256 public TOTAL_SUPPLY = 10000 */\n  0x00\n  sstore\n    /* \"contracts/ethdenver_lessons/D4/VolcanoCoin.sol\":363:452  constructor() {... */\n  callvalue\n  dup1\n  iszero\n  tag_1\n  jumpi\n  0x00\n  dup1\n  revert\ntag_1:\n  pop\n    /* \"contracts/ethdenver_lessons/D4/VolcanoCoin.sol\":395:405  msg.sender */\n  caller\n    /* \"contracts/ethdenver_lessons/D4/VolcanoCoin.sol\":387:392  owner */\n  0x01\n  0x00\n    /* \"contracts/ethdenver_lessons/D4/VolcanoCoin.sol\":387:405  owner = msg.sender */\n  0x0100\n  exp\n  dup2\n  sload\n  dup2\n  0xffffffffffffffffffffffffffffffffffffffff\n  mul\n  not\n  and\n  swap1\n  dup4\n  0xffffffffffffffffffffffffffffffffffffffff\n  and\n  mul\n  or\n  swap1\n  sstore\n  pop\n    /* \"contracts/ethdenver_lessons/D4/VolcanoCoin.sol\":433:445  TOTAL_SUPPLY */\n  sload(0x00)\n    /* \"contracts/ethdenver_lessons/D4/VolcanoCoin.sol\":415:423  balances */\n  0x02\n    /* \"contracts/ethdenver_lessons/D4/VolcanoCoin.sol\":415:430  balances[owner] */\n  0x00\n    /* \"contracts/ethdenver_lessons/D4/VolcanoCoin.sol\":424:429  owner */\n  0x01\n  0x00\n  swap1\n  sload\n  swap1\n  0x0100\n  exp\n  swap1\n  div\n  0xffffffffffffffffffffffffffffffffffffffff\n  and\n    /* \"contracts/ethdenver_lessons/D4/VolcanoCoin.sol\":415:430  balances[owner] */\n  0xffffffffffffffffffffffffffffffffffffffff\n  and\n  0xffffffffffffffffffffffffffffffffffffffff\n  and\n  dup2\n  mstore\n  0x20\n  add\n  swap1\n  dup2\n  mstore\n  0x20\n  add\n  0x00\n  keccak256\n    /* \"contracts/ethdenver_lessons/D4/VolcanoCoin.sol\":415:445  balances[owner] = TOTAL_SUPPLY */\n  dup2\n  swap1\n  sstore\n  pop\n    /* \"contracts/ethdenver_lessons/D4/VolcanoCoin.sol\":65:1122  contract VolcanoCoin {... */\n  dataSize(sub_0)\n  dup1\n  dataOffset(sub_0)\n  0x00\n  codecopy\n  0x00\n  return\nstop\n\nsub_0: assembly {\n        /* \"contracts/ethdenver_lessons/D4/VolcanoCoin.sol\":65:1122  contract VolcanoCoin {... */\n      mstore(0x40, 0x80)\n      callvalue\n      dup1\n      iszero\n      tag_1\n      jumpi\n      0x00\n      dup1\n      revert\n    tag_1:\n      pop\n      jumpi(tag_2, lt(calldatasize, 0x04))\n      shr(0xe0, calldataload(0x00))\n      dup1\n      0x47734892\n      eq\n      tag_3\n      jumpi\n      dup1\n      0x8da5cb5b\n      eq\n      tag_4\n      jumpi\n      dup1\n      0x902d55a5\n      eq\n      tag_5\n      jumpi\n      dup1\n      0xa9059cbb\n      eq\n      tag_6\n      jumpi\n      dup1\n      0xde0f2be1\n      eq\n      tag_7\n      jumpi\n    tag_2:\n      0x00\n      dup1\n      revert\n        /* \"contracts/ethdenver_lessons/D4/VolcanoCoin.sol\":717:819  function getUserBalance(address user) public view returns(uint) {... */\n    tag_3:\n      tag_8\n      0x04\n      dup1\n      calldatasize\n      sub\n      dup2\n      add\n      swap1\n      tag_9\n      swap2\n      swap1\n      tag_10\n      jump\t// in\n    tag_9:\n      tag_11\n      jump\t// in\n    tag_8:\n      mload(0x40)\n      tag_12\n      swap2\n      swap1\n      tag_13\n      jump\t// in\n    tag_12:\n      mload(0x40)\n      dup1\n      swap2\n      sub\n      swap1\n      return\n        /* \"contracts/ethdenver_lessons/D4/VolcanoCoin.sol\":133:153  address public owner */\n    tag_4:\n      tag_14\n      tag_15\n      jump\t// in\n    tag_14:\n      mload(0x40)\n      tag_16\n      swap2\n      swap1\n      tag_17\n      jump\t// in\n    tag_16:\n      mload(0x40)\n      dup1\n      swap2\n      sub\n      swap1\n      return\n        /* \"contracts/ethdenver_lessons/D4/VolcanoCoin.sol\":92:127  uint256 public TOTAL_SUPPLY = 10000 */\n    tag_5:\n      tag_18\n      tag_19\n      jump\t// in\n    tag_18:\n      mload(0x40)\n      tag_20\n      swap2\n      swap1\n      tag_13\n      jump\t// in\n    tag_20:\n      mload(0x40)\n      dup1\n      swap2\n      sub\n      swap1\n      return\n        /* \"contracts/ethdenver_lessons/D4/VolcanoCoin.sol\":825:1120  function transfer(address user, uint _amount) public {... */\n    tag_6:\n      tag_21\n      0x04\n      dup1\n      calldatasize\n      sub\n      dup2\n      add\n      swap1\n      tag_22\n      swap2\n      swap1\n      tag_23\n      jump\t// in\n    tag_22:\n      tag_24\n      jump\t// in\n    tag_21:\n      stop\n        /* \"contracts/ethdenver_lessons/D4/VolcanoCoin.sol\":550:711  function increaseTotalSupply() public onlyOwner {... */\n    tag_7:\n      tag_25\n      tag_26\n      jump\t// in\n    tag_25:\n      stop\n        /* \"contracts/ethdenver_lessons/D4/VolcanoCoin.sol\":717:819  function getUserBalance(address user) public view returns(uint) {... */\n    tag_11:\n        /* \"contracts/ethdenver_lessons/D4/VolcanoCoin.sol\":775:779  uint */\n      0x00\n        /* \"contracts/ethdenver_lessons/D4/VolcanoCoin.sol\":798:806  balances */\n      0x02\n        /* \"contracts/ethdenver_lessons/D4/VolcanoCoin.sol\":798:812  balances[user] */\n      0x00\n        /* \"contracts/ethdenver_lessons/D4/VolcanoCoin.sol\":807:811  user */\n      dup4\n        /* \"contracts/ethdenver_lessons/D4/VolcanoCoin.sol\":798:812  balances[user] */\n      0xffffffffffffffffffffffffffffffffffffffff\n      and\n      0xffffffffffffffffffffffffffffffffffffffff\n      and\n      dup2\n      mstore\n      0x20\n      add\n      swap1\n      dup2\n      mstore\n      0x20\n      add\n      0x00\n      keccak256\n      sload\n        /* \"contracts/ethdenver_lessons/D4/VolcanoCoin.sol\":791:812  return balances[user] */\n      swap1\n      pop\n        /* \"contracts/ethdenver_lessons/D4/VolcanoCoin.sol\":717:819  function getUserBalance(address user) public view returns(uint) {... */\n      swap2\n      swap1\n      pop\n      jump\t// out\n        /* \"contracts/ethdenver_lessons/D4/VolcanoCoin.sol\":133:153  address public owner */\n    tag_15:\n      0x01\n      0x00\n      swap1\n      sload\n      swap1\n      0x0100\n      exp\n      swap1\n      div\n      0xffffffffffffffffffffffffffffffffffffffff\n      and\n      dup2\n      jump\t// out\n        /* \"contracts/ethdenver_lessons/D4/VolcanoCoin.sol\":92:127  uint256 public TOTAL_SUPPLY = 10000 */\n    tag_19:\n      sload(0x00)\n      dup2\n      jump\t// out\n        /* \"contracts/ethdenver_lessons/D4/VolcanoCoin.sol\":825:1120  function transfer(address user, uint _amount) public {... */\n    tag_24:\n        /* \"contracts/ethdenver_lessons/D4/VolcanoCoin.sol\":920:927  _amount */\n      dup1\n        /* \"contracts/ethdenver_lessons/D4/VolcanoCoin.sol\":896:904  balances */\n      0x02\n        /* \"contracts/ethdenver_lessons/D4/VolcanoCoin.sol\":896:916  balances[msg.sender] */\n      0x00\n        /* \"contracts/ethdenver_lessons/D4/VolcanoCoin.sol\":905:915  msg.sender */\n      caller\n        /* \"contracts/ethdenver_lessons/D4/VolcanoCoin.sol\":896:916  balances[msg.sender] */\n      0xffffffffffffffffffffffffffffffffffffffff\n      and\n      0xffffffffffffffffffffffffffffffffffffffff\n      and\n      dup2\n      mstore\n      0x20\n      add\n      swap1\n      dup2\n      mstore\n      0x20\n      add\n      0x00\n      keccak256\n      sload\n        /* \"contracts/ethdenver_lessons/D4/VolcanoCoin.sol\":896:927  balances[msg.sender] >= _amount */\n      lt\n      iszero\n        /* \"contracts/ethdenver_lessons/D4/VolcanoCoin.sol\":888:976  require(balances[msg.sender] >= _amount, \"Not enough balance to execute your transfer.\") */\n      tag_29\n      jumpi\n      mload(0x40)\n      0x08c379a000000000000000000000000000000000000000000000000000000000\n      dup2\n      mstore\n      0x04\n      add\n      tag_30\n      swap1\n      tag_31\n      jump\t// in\n    tag_30:\n      mload(0x40)\n      dup1\n      swap2\n      sub\n      swap1\n      revert\n    tag_29:\n        /* \"contracts/ethdenver_lessons/D4/VolcanoCoin.sol\":1010:1017  _amount */\n      dup1\n        /* \"contracts/ethdenver_lessons/D4/VolcanoCoin.sol\":986:994  balances */\n      0x02\n        /* \"contracts/ethdenver_lessons/D4/VolcanoCoin.sol\":986:1006  balances[msg.sender] */\n      0x00\n        /* \"contracts/ethdenver_lessons/D4/VolcanoCoin.sol\":995:1005  msg.sender */\n      caller\n        /* \"contracts/ethdenver_lessons/D4/VolcanoCoin.sol\":986:1006  balances[msg.sender] */\n      0xffffffffffffffffffffffffffffffffffffffff\n      and\n      0xffffffffffffffffffffffffffffffffffffffff\n      and\n      dup2\n      mstore\n      0x20\n      add\n      swap1\n      dup2\n      mstore\n      0x20\n      add\n      0x00\n      keccak256\n      0x00\n        /* \"contracts/ethdenver_lessons/D4/VolcanoCoin.sol\":986:1017  balances[msg.sender] -= _amount */\n      dup3\n      dup3\n      sload\n      tag_32\n      swap2\n      swap1\n      tag_33\n      jump\t// in\n    tag_32:\n      swap3\n      pop\n      pop\n      dup2\n      swap1\n      sstore\n      pop\n        /* \"contracts/ethdenver_lessons/D4/VolcanoCoin.sol\":1045:1052  _amount */\n      dup1\n        /* \"contracts/ethdenver_lessons/D4/VolcanoCoin.sol\":1027:1035  balances */\n      0x02\n        /* \"contracts/ethdenver_lessons/D4/VolcanoCoin.sol\":1027:1041  balances[user] */\n      0x00\n        /* \"contracts/ethdenver_lessons/D4/VolcanoCoin.sol\":1036:1040  user */\n      dup5\n        /* \"contracts/ethdenver_lessons/D4/VolcanoCoin.sol\":1027:1041  balances[user] */\n      0xffffffffffffffffffffffffffffffffffffffff\n      and\n      0xffffffffffffffffffffffffffffffffffffffff\n      and\n      dup2\n      mstore\n      0x20\n      add\n      swap1\n      dup2\n      mstore\n      0x20\n      add\n      0x00\n      keccak256\n      0x00\n        /* \"contracts/ethdenver_lessons/D4/VolcanoCoin.sol\":1027:1052  balances[user] += _amount */\n      dup3\n      dup3\n      sload\n      tag_34\n      swap2\n      swap1\n      tag_35\n      jump\t// in\n    tag_34:\n      swap3\n      pop\n      pop\n      dup2\n      swap1\n      sstore\n      pop\n        /* \"contracts/ethdenver_lessons/D4/VolcanoCoin.sol\":1067:1113  eventTransfer(\"Amount transfered = \", _amount) */\n      0x5a2050e3f02d2781f60eea7b6796becb3dd7507e14fce659f8f395d1bcce5fc9\n        /* \"contracts/ethdenver_lessons/D4/VolcanoCoin.sol\":1105:1112  _amount */\n      dup2\n        /* \"contracts/ethdenver_lessons/D4/VolcanoCoin.sol\":1067:1113  eventTransfer(\"Amount transfered = \", _amount) */\n      mload(0x40)\n      tag_36\n      swap2\n      swap1\n      tag_37\n      jump\t// in\n    tag_36:\n      mload(0x40)\n      dup1\n      swap2\n      sub\n      swap1\n      log1\n        /* \"contracts/ethdenver_lessons/D4/VolcanoCoin.sol\":825:1120  function transfer(address user, uint _amount) public {... */\n      pop\n      pop\n      jump\t// out\n        /* \"contracts/ethdenver_lessons/D4/VolcanoCoin.sol\":550:711  function increaseTotalSupply() public onlyOwner {... */\n    tag_26:\n        /* \"contracts/ethdenver_lessons/D4/VolcanoCoin.sol\":505:510  owner */\n      0x01\n      0x00\n      swap1\n      sload\n      swap1\n      0x0100\n      exp\n      swap1\n      div\n      0xffffffffffffffffffffffffffffffffffffffff\n      and\n        /* \"contracts/ethdenver_lessons/D4/VolcanoCoin.sol\":491:510  msg.sender == owner */\n      0xffffffffffffffffffffffffffffffffffffffff\n      and\n        /* \"contracts/ethdenver_lessons/D4/VolcanoCoin.sol\":491:501  msg.sender */\n      caller\n        /* \"contracts/ethdenver_lessons/D4/VolcanoCoin.sol\":491:510  msg.sender == owner */\n      0xffffffffffffffffffffffffffffffffffffffff\n      and\n      eq\n        /* \"contracts/ethdenver_lessons/D4/VolcanoCoin.sol\":487:538  if (msg.sender == owner) {... */\n      iszero\n      tag_39\n      jumpi\n        /* \"contracts/ethdenver_lessons/D4/VolcanoCoin.sol\":624:628  1000 */\n      0x03e8\n        /* \"contracts/ethdenver_lessons/D4/VolcanoCoin.sol\":608:620  TOTAL_SUPPLY */\n      0x00\n      dup1\n        /* \"contracts/ethdenver_lessons/D4/VolcanoCoin.sol\":608:628  TOTAL_SUPPLY += 1000 */\n      dup3\n      dup3\n      sload\n      tag_41\n      swap2\n      swap1\n      tag_35\n      jump\t// in\n    tag_41:\n      swap3\n      pop\n      pop\n      dup2\n      swap1\n      sstore\n      pop\n        /* \"contracts/ethdenver_lessons/D4/VolcanoCoin.sol\":643:704  eventTotalSupplyChanged(\"New Total Supply = \" , TOTAL_SUPPLY) */\n      0x36a6bfb04e36ebe40c1792d122008a16ba8db271eec24c015129bf170ffb4484\n        /* \"contracts/ethdenver_lessons/D4/VolcanoCoin.sol\":691:703  TOTAL_SUPPLY */\n      sload(0x00)\n        /* \"contracts/ethdenver_lessons/D4/VolcanoCoin.sol\":643:704  eventTotalSupplyChanged(\"New Total Supply = \" , TOTAL_SUPPLY) */\n      mload(0x40)\n      tag_42\n      swap2\n      swap1\n      tag_43\n      jump\t// in\n    tag_42:\n      mload(0x40)\n      dup1\n      swap2\n      sub\n      swap1\n      log1\n        /* \"contracts/ethdenver_lessons/D4/VolcanoCoin.sol\":487:538  if (msg.sender == owner) {... */\n    tag_39:\n        /* \"contracts/ethdenver_lessons/D4/VolcanoCoin.sol\":550:711  function increaseTotalSupply() public onlyOwner {... */\n      jump\t// out\n        /* \"#utility.yul\":7:146   */\n    tag_45:\n        /* \"#utility.yul\":53:58   */\n      0x00\n        /* \"#utility.yul\":91:97   */\n      dup2\n        /* \"#utility.yul\":78:98   */\n      calldataload\n        /* \"#utility.yul\":69:98   */\n      swap1\n      pop\n        /* \"#utility.yul\":107:140   */\n      tag_47\n        /* \"#utility.yul\":134:139   */\n      dup2\n        /* \"#utility.yul\":107:140   */\n      tag_48\n      jump\t// in\n    tag_47:\n        /* \"#utility.yul\":7:146   */\n      swap3\n      swap2\n      pop\n      pop\n      jump\t// out\n        /* \"#utility.yul\":152:291   */\n    tag_49:\n        /* \"#utility.yul\":198:203   */\n      0x00\n        /* \"#utility.yul\":236:242   */\n      dup2\n        /* \"#utility.yul\":223:243   */\n      calldataload\n        /* \"#utility.yul\":214:243   */\n      swap1\n      pop\n        /* \"#utility.yul\":252:285   */\n      tag_51\n        /* \"#utility.yul\":279:284   */\n      dup2\n        /* \"#utility.yul\":252:285   */\n      tag_52\n      jump\t// in\n    tag_51:\n        /* \"#utility.yul\":152:291   */\n      swap3\n      swap2\n      pop\n      pop\n      jump\t// out\n        /* \"#utility.yul\":297:626   */\n    tag_10:\n        /* \"#utility.yul\":356:362   */\n      0x00\n        /* \"#utility.yul\":405:407   */\n      0x20\n        /* \"#utility.yul\":393:402   */\n      dup3\n        /* \"#utility.yul\":384:391   */\n      dup5\n        /* \"#utility.yul\":380:403   */\n      sub\n        /* \"#utility.yul\":376:408   */\n      slt\n        /* \"#utility.yul\":373:492   */\n      iszero\n      tag_54\n      jumpi\n        /* \"#utility.yul\":411:490   */\n      tag_55\n      tag_56\n      jump\t// in\n    tag_55:\n        /* \"#utility.yul\":373:492   */\n    tag_54:\n        /* \"#utility.yul\":531:532   */\n      0x00\n        /* \"#utility.yul\":556:609   */\n      tag_57\n        /* \"#utility.yul\":601:608   */\n      dup5\n        /* \"#utility.yul\":592:598   */\n      dup3\n        /* \"#utility.yul\":581:590   */\n      dup6\n        /* \"#utility.yul\":577:599   */\n      add\n        /* \"#utility.yul\":556:609   */\n      tag_45\n      jump\t// in\n    tag_57:\n        /* \"#utility.yul\":546:609   */\n      swap2\n      pop\n        /* \"#utility.yul\":502:619   */\n      pop\n        /* \"#utility.yul\":297:626   */\n      swap3\n      swap2\n      pop\n      pop\n      jump\t// out\n        /* \"#utility.yul\":632:1106   */\n    tag_23:\n        /* \"#utility.yul\":700:706   */\n      0x00\n        /* \"#utility.yul\":708:714   */\n      dup1\n        /* \"#utility.yul\":757:759   */\n      0x40\n        /* \"#utility.yul\":745:754   */\n      dup4\n        /* \"#utility.yul\":736:743   */\n      dup6\n        /* \"#utility.yul\":732:755   */\n      sub\n        /* \"#utility.yul\":728:760   */\n      slt\n        /* \"#utility.yul\":725:844   */\n      iszero\n      tag_59\n      jumpi\n        /* \"#utility.yul\":763:842   */\n      tag_60\n      tag_56\n      jump\t// in\n    tag_60:\n        /* \"#utility.yul\":725:844   */\n    tag_59:\n        /* \"#utility.yul\":883:884   */\n      0x00\n        /* \"#utility.yul\":908:961   */\n      tag_61\n        /* \"#utility.yul\":953:960   */\n      dup6\n        /* \"#utility.yul\":944:950   */\n      dup3\n        /* \"#utility.yul\":933:942   */\n      dup7\n        /* \"#utility.yul\":929:951   */\n      add\n        /* \"#utility.yul\":908:961   */\n      tag_45\n      jump\t// in\n    tag_61:\n        /* \"#utility.yul\":898:961   */\n      swap3\n      pop\n        /* \"#utility.yul\":854:971   */\n      pop\n        /* \"#utility.yul\":1010:1012   */\n      0x20\n        /* \"#utility.yul\":1036:1089   */\n      tag_62\n        /* \"#utility.yul\":1081:1088   */\n      dup6\n        /* \"#utility.yul\":1072:1078   */\n      dup3\n        /* \"#utility.yul\":1061:1070   */\n      dup7\n        /* \"#utility.yul\":1057:1079   */\n      add\n        /* \"#utility.yul\":1036:1089   */\n      tag_49\n      jump\t// in\n    tag_62:\n        /* \"#utility.yul\":1026:1089   */\n      swap2\n      pop\n        /* \"#utility.yul\":981:1099   */\n      pop\n        /* \"#utility.yul\":632:1106   */\n      swap3\n      pop\n      swap3\n      swap1\n      pop\n      jump\t// out\n        /* \"#utility.yul\":1112:1230   */\n    tag_63:\n        /* \"#utility.yul\":1199:1223   */\n      tag_65\n        /* \"#utility.yul\":1217:1222   */\n      dup2\n        /* \"#utility.yul\":1199:1223   */\n      tag_66\n      jump\t// in\n    tag_65:\n        /* \"#utility.yul\":1194:1197   */\n      dup3\n        /* \"#utility.yul\":1187:1224   */\n      mstore\n        /* \"#utility.yul\":1112:1230   */\n      pop\n      pop\n      jump\t// out\n        /* \"#utility.yul\":1236:1602   */\n    tag_67:\n        /* \"#utility.yul\":1378:1381   */\n      0x00\n        /* \"#utility.yul\":1399:1466   */\n      tag_69\n        /* \"#utility.yul\":1463:1465   */\n      0x2c\n        /* \"#utility.yul\":1458:1461   */\n      dup4\n        /* \"#utility.yul\":1399:1466   */\n      tag_70\n      jump\t// in\n    tag_69:\n        /* \"#utility.yul\":1392:1466   */\n      swap2\n      pop\n        /* \"#utility.yul\":1475:1568   */\n      tag_71\n        /* \"#utility.yul\":1564:1567   */\n      dup3\n        /* \"#utility.yul\":1475:1568   */\n      tag_72\n      jump\t// in\n    tag_71:\n        /* \"#utility.yul\":1593:1595   */\n      0x40\n        /* \"#utility.yul\":1588:1591   */\n      dup3\n        /* \"#utility.yul\":1584:1596   */\n      add\n        /* \"#utility.yul\":1577:1596   */\n      swap1\n      pop\n        /* \"#utility.yul\":1236:1602   */\n      swap2\n      swap1\n      pop\n      jump\t// out\n        /* \"#utility.yul\":1608:1974   */\n    tag_73:\n        /* \"#utility.yul\":1750:1753   */\n      0x00\n        /* \"#utility.yul\":1771:1838   */\n      tag_75\n        /* \"#utility.yul\":1835:1837   */\n      0x14\n        /* \"#utility.yul\":1830:1833   */\n      dup4\n        /* \"#utility.yul\":1771:1838   */\n      tag_70\n      jump\t// in\n    tag_75:\n        /* \"#utility.yul\":1764:1838   */\n      swap2\n      pop\n        /* \"#utility.yul\":1847:1940   */\n      tag_76\n        /* \"#utility.yul\":1936:1939   */\n      dup3\n        /* \"#utility.yul\":1847:1940   */\n      tag_77\n      jump\t// in\n    tag_76:\n        /* \"#utility.yul\":1965:1967   */\n      0x20\n        /* \"#utility.yul\":1960:1963   */\n      dup3\n        /* \"#utility.yul\":1956:1968   */\n      add\n        /* \"#utility.yul\":1949:1968   */\n      swap1\n      pop\n        /* \"#utility.yul\":1608:1974   */\n      swap2\n      swap1\n      pop\n      jump\t// out\n        /* \"#utility.yul\":1980:2346   */\n    tag_78:\n        /* \"#utility.yul\":2122:2125   */\n      0x00\n        /* \"#utility.yul\":2143:2210   */\n      tag_80\n        /* \"#utility.yul\":2207:2209   */\n      0x13\n        /* \"#utility.yul\":2202:2205   */\n      dup4\n        /* \"#utility.yul\":2143:2210   */\n      tag_70\n      jump\t// in\n    tag_80:\n        /* \"#utility.yul\":2136:2210   */\n      swap2\n      pop\n        /* \"#utility.yul\":2219:2312   */\n      tag_81\n        /* \"#utility.yul\":2308:2311   */\n      dup3\n        /* \"#utility.yul\":2219:2312   */\n      tag_82\n      jump\t// in\n    tag_81:\n        /* \"#utility.yul\":2337:2339   */\n      0x20\n        /* \"#utility.yul\":2332:2335   */\n      dup3\n        /* \"#utility.yul\":2328:2340   */\n      add\n        /* \"#utility.yul\":2321:2340   */\n      swap1\n      pop\n        /* \"#utility.yul\":1980:2346   */\n      swap2\n      swap1\n      pop\n      jump\t// out\n        /* \"#utility.yul\":2352:2470   */\n    tag_83:\n        /* \"#utility.yul\":2439:2463   */\n      tag_85\n        /* \"#utility.yul\":2457:2462   */\n      dup2\n        /* \"#utility.yul\":2439:2463   */\n      tag_86\n      jump\t// in\n    tag_85:\n        /* \"#utility.yul\":2434:2437   */\n      dup3\n        /* \"#utility.yul\":2427:2464   */\n      mstore\n        /* \"#utility.yul\":2352:2470   */\n      pop\n      pop\n      jump\t// out\n        /* \"#utility.yul\":2476:2698   */\n    tag_17:\n        /* \"#utility.yul\":2569:2573   */\n      0x00\n        /* \"#utility.yul\":2607:2609   */\n      0x20\n        /* \"#utility.yul\":2596:2605   */\n      dup3\n        /* \"#utility.yul\":2592:2610   */\n      add\n        /* \"#utility.yul\":2584:2610   */\n      swap1\n      pop\n        /* \"#utility.yul\":2620:2691   */\n      tag_88\n        /* \"#utility.yul\":2688:2689   */\n      0x00\n        /* \"#utility.yul\":2677:2686   */\n      dup4\n        /* \"#utility.yul\":2673:2690   */\n      add\n        /* \"#utility.yul\":2664:2670   */\n      dup5\n        /* \"#utility.yul\":2620:2691   */\n      tag_63\n      jump\t// in\n    tag_88:\n        /* \"#utility.yul\":2476:2698   */\n      swap3\n      swap2\n      pop\n      pop\n      jump\t// out\n        /* \"#utility.yul\":2704:3123   */\n    tag_31:\n        /* \"#utility.yul\":2870:2874   */\n      0x00\n        /* \"#utility.yul\":2908:2910   */\n      0x20\n        /* \"#utility.yul\":2897:2906   */\n      dup3\n        /* \"#utility.yul\":2893:2911   */\n      add\n        /* \"#utility.yul\":2885:2911   */\n      swap1\n      pop\n        /* \"#utility.yul\":2957:2966   */\n      dup2\n        /* \"#utility.yul\":2951:2955   */\n      dup2\n        /* \"#utility.yul\":2947:2967   */\n      sub\n        /* \"#utility.yul\":2943:2944   */\n      0x00\n        /* \"#utility.yul\":2932:2941   */\n      dup4\n        /* \"#utility.yul\":2928:2945   */\n      add\n        /* \"#utility.yul\":2921:2968   */\n      mstore\n        /* \"#utility.yul\":2985:3116   */\n      tag_90\n        /* \"#utility.yul\":3111:3115   */\n      dup2\n        /* \"#utility.yul\":2985:3116   */\n      tag_67\n      jump\t// in\n    tag_90:\n        /* \"#utility.yul\":2977:3116   */\n      swap1\n      pop\n        /* \"#utility.yul\":2704:3123   */\n      swap2\n      swap1\n      pop\n      jump\t// out\n        /* \"#utility.yul\":3129:3658   */\n    tag_37:\n        /* \"#utility.yul\":3323:3327   */\n      0x00\n        /* \"#utility.yul\":3361:3363   */\n      0x40\n        /* \"#utility.yul\":3350:3359   */\n      dup3\n        /* \"#utility.yul\":3346:3364   */\n      add\n        /* \"#utility.yul\":3338:3364   */\n      swap1\n      pop\n        /* \"#utility.yul\":3410:3419   */\n      dup2\n        /* \"#utility.yul\":3404:3408   */\n      dup2\n        /* \"#utility.yul\":3400:3420   */\n      sub\n        /* \"#utility.yul\":3396:3397   */\n      0x00\n        /* \"#utility.yul\":3385:3394   */\n      dup4\n        /* \"#utility.yul\":3381:3398   */\n      add\n        /* \"#utility.yul\":3374:3421   */\n      mstore\n        /* \"#utility.yul\":3438:3569   */\n      tag_92\n        /* \"#utility.yul\":3564:3568   */\n      dup2\n        /* \"#utility.yul\":3438:3569   */\n      tag_73\n      jump\t// in\n    tag_92:\n        /* \"#utility.yul\":3430:3569   */\n      swap1\n      pop\n        /* \"#utility.yul\":3579:3651   */\n      tag_93\n        /* \"#utility.yul\":3647:3649   */\n      0x20\n        /* \"#utility.yul\":3636:3645   */\n      dup4\n        /* \"#utility.yul\":3632:3650   */\n      add\n        /* \"#utility.yul\":3623:3629   */\n      dup5\n        /* \"#utility.yul\":3579:3651   */\n      tag_83\n      jump\t// in\n    tag_93:\n        /* \"#utility.yul\":3129:3658   */\n      swap3\n      swap2\n      pop\n      pop\n      jump\t// out\n        /* \"#utility.yul\":3664:4193   */\n    tag_43:\n        /* \"#utility.yul\":3858:3862   */\n      0x00\n        /* \"#utility.yul\":3896:3898   */\n      0x40\n        /* \"#utility.yul\":3885:3894   */\n      dup3\n        /* \"#utility.yul\":3881:3899   */\n      add\n        /* \"#utility.yul\":3873:3899   */\n      swap1\n      pop\n        /* \"#utility.yul\":3945:3954   */\n      dup2\n        /* \"#utility.yul\":3939:3943   */\n      dup2\n        /* \"#utility.yul\":3935:3955   */\n      sub\n        /* \"#utility.yul\":3931:3932   */\n      0x00\n        /* \"#utility.yul\":3920:3929   */\n      dup4\n        /* \"#utility.yul\":3916:3933   */\n      add\n        /* \"#utility.yul\":3909:3956   */\n      mstore\n        /* \"#utility.yul\":3973:4104   */\n      tag_95\n        /* \"#utility.yul\":4099:4103   */\n      dup2\n        /* \"#utility.yul\":3973:4104   */\n      tag_78\n      jump\t// in\n    tag_95:\n        /* \"#utility.yul\":3965:4104   */\n      swap1\n      pop\n        /* \"#utility.yul\":4114:4186   */\n      tag_96\n        /* \"#utility.yul\":4182:4184   */\n      0x20\n        /* \"#utility.yul\":4171:4180   */\n      dup4\n        /* \"#utility.yul\":4167:4185   */\n      add\n        /* \"#utility.yul\":4158:4164   */\n      dup5\n        /* \"#utility.yul\":4114:4186   */\n      tag_83\n      jump\t// in\n    tag_96:\n        /* \"#utility.yul\":3664:4193   */\n      swap3\n      swap2\n      pop\n      pop\n      jump\t// out\n        /* \"#utility.yul\":4199:4421   */\n    tag_13:\n        /* \"#utility.yul\":4292:4296   */\n      0x00\n        /* \"#utility.yul\":4330:4332   */\n      0x20\n        /* \"#utility.yul\":4319:4328   */\n      dup3\n        /* \"#utility.yul\":4315:4333   */\n      add\n        /* \"#utility.yul\":4307:4333   */\n      swap1\n      pop\n        /* \"#utility.yul\":4343:4414   */\n      tag_98\n        /* \"#utility.yul\":4411:4412   */\n      0x00\n        /* \"#utility.yul\":4400:4409   */\n      dup4\n        /* \"#utility.yul\":4396:4413   */\n      add\n        /* \"#utility.yul\":4387:4393   */\n      dup5\n        /* \"#utility.yul\":4343:4414   */\n      tag_83\n      jump\t// in\n    tag_98:\n        /* \"#utility.yul\":4199:4421   */\n      swap3\n      swap2\n      pop\n      pop\n      jump\t// out\n        /* \"#utility.yul\":4508:4677   */\n    tag_70:\n        /* \"#utility.yul\":4592:4603   */\n      0x00\n        /* \"#utility.yul\":4626:4632   */\n      dup3\n        /* \"#utility.yul\":4621:4624   */\n      dup3\n        /* \"#utility.yul\":4614:4633   */\n      mstore\n        /* \"#utility.yul\":4666:4670   */\n      0x20\n        /* \"#utility.yul\":4661:4664   */\n      dup3\n        /* \"#utility.yul\":4657:4671   */\n      add\n        /* \"#utility.yul\":4642:4671   */\n      swap1\n      pop\n        /* \"#utility.yul\":4508:4677   */\n      swap3\n      swap2\n      pop\n      pop\n      jump\t// out\n        /* \"#utility.yul\":4683:4988   */\n    tag_35:\n        /* \"#utility.yul\":4723:4726   */\n      0x00\n        /* \"#utility.yul\":4742:4762   */\n      tag_103\n        /* \"#utility.yul\":4760:4761   */\n      dup3\n        /* \"#utility.yul\":4742:4762   */\n      tag_86\n      jump\t// in\n    tag_103:\n        /* \"#utility.yul\":4737:4762   */\n      swap2\n      pop\n        /* \"#utility.yul\":4776:4796   */\n      tag_104\n        /* \"#utility.yul\":4794:4795   */\n      dup4\n        /* \"#utility.yul\":4776:4796   */\n      tag_86\n      jump\t// in\n    tag_104:\n        /* \"#utility.yul\":4771:4796   */\n      swap3\n      pop\n        /* \"#utility.yul\":4930:4931   */\n      dup3\n        /* \"#utility.yul\":4862:4928   */\n      0xffffffffffffffffffffffffffffffffffffffffffffffffffffffffffffffff\n        /* \"#utility.yul\":4858:4932   */\n      sub\n        /* \"#utility.yul\":4855:4856   */\n      dup3\n        /* \"#utility.yul\":4852:4933   */\n      gt\n        /* \"#utility.yul\":4849:4956   */\n      iszero\n      tag_105\n      jumpi\n        /* \"#utility.yul\":4936:4954   */\n      tag_106\n      tag_107\n      jump\t// in\n    tag_106:\n        /* \"#utility.yul\":4849:4956   */\n    tag_105:\n        /* \"#utility.yul\":4980:4981   */\n      dup3\n        /* \"#utility.yul\":4977:4978   */\n      dup3\n        /* \"#utility.yul\":4973:4982   */\n      add\n        /* \"#utility.yul\":4966:4982   */\n      swap1\n      pop\n        /* \"#utility.yul\":4683:4988   */\n      swap3\n      swap2\n      pop\n      pop\n      jump\t// out\n        /* \"#utility.yul\":4994:5185   */\n    tag_33:\n        /* \"#utility.yul\":5034:5038   */\n      0x00\n        /* \"#utility.yul\":5054:5074   */\n      tag_109\n        /* \"#utility.yul\":5072:5073   */\n      dup3\n        /* \"#utility.yul\":5054:5074   */\n      tag_86\n      jump\t// in\n    tag_109:\n        /* \"#utility.yul\":5049:5074   */\n      swap2\n      pop\n        /* \"#utility.yul\":5088:5108   */\n      tag_110\n        /* \"#utility.yul\":5106:5107   */\n      dup4\n        /* \"#utility.yul\":5088:5108   */\n      tag_86\n      jump\t// in\n    tag_110:\n        /* \"#utility.yul\":5083:5108   */\n      swap3\n      pop\n        /* \"#utility.yul\":5127:5128   */\n      dup3\n        /* \"#utility.yul\":5124:5125   */\n      dup3\n        /* \"#utility.yul\":5121:5129   */\n      lt\n        /* \"#utility.yul\":5118:5152   */\n      iszero\n      tag_111\n      jumpi\n        /* \"#utility.yul\":5132:5150   */\n      tag_112\n      tag_107\n      jump\t// in\n    tag_112:\n        /* \"#utility.yul\":5118:5152   */\n    tag_111:\n        /* \"#utility.yul\":5177:5178   */\n      dup3\n        /* \"#utility.yul\":5174:5175   */\n      dup3\n        /* \"#utility.yul\":5170:5179   */\n      sub\n        /* \"#utility.yul\":5162:5179   */\n      swap1\n      pop\n        /* \"#utility.yul\":4994:5185   */\n      swap3\n      swap2\n      pop\n      pop\n      jump\t// out\n        /* \"#utility.yul\":5191:5287   */\n    tag_66:\n        /* \"#utility.yul\":5228:5235   */\n      0x00\n        /* \"#utility.yul\":5257:5281   */\n      tag_114\n        /* \"#utility.yul\":5275:5280   */\n      dup3\n        /* \"#utility.yul\":5257:5281   */\n      tag_115\n      jump\t// in\n    tag_114:\n        /* \"#utility.yul\":5246:5281   */\n      swap1\n      pop\n        /* \"#utility.yul\":5191:5287   */\n      swap2\n      swap1\n      pop\n      jump\t// out\n        /* \"#utility.yul\":5293:5419   */\n    tag_115:\n        /* \"#utility.yul\":5330:5337   */\n      0x00\n        /* \"#utility.yul\":5370:5412   */\n      0xffffffffffffffffffffffffffffffffffffffff\n        /* \"#utility.yul\":5363:5368   */\n      dup3\n        /* \"#utility.yul\":5359:5413   */\n      and\n        /* \"#utility.yul\":5348:5413   */\n      swap1\n      pop\n        /* \"#utility.yul\":5293:5419   */\n      swap2\n      swap1\n      pop\n      jump\t// out\n        /* \"#utility.yul\":5425:5502   */\n    tag_86:\n        /* \"#utility.yul\":5462:5469   */\n      0x00\n        /* \"#utility.yul\":5491:5496   */\n      dup2\n        /* \"#utility.yul\":5480:5496   */\n      swap1\n      pop\n        /* \"#utility.yul\":5425:5502   */\n      swap2\n      swap1\n      pop\n      jump\t// out\n        /* \"#utility.yul\":5508:5688   */\n    tag_107:\n        /* \"#utility.yul\":5556:5633   */\n      0x4e487b7100000000000000000000000000000000000000000000000000000000\n        /* \"#utility.yul\":5553:5554   */\n      0x00\n        /* \"#utility.yul\":5546:5634   */\n      mstore\n        /* \"#utility.yul\":5653:5657   */\n      0x11\n        /* \"#utility.yul\":5650:5651   */\n      0x04\n        /* \"#utility.yul\":5643:5658   */\n      mstore\n        /* \"#utility.yul\":5677:5681   */\n      0x24\n        /* \"#utility.yul\":5674:5675   */\n      0x00\n        /* \"#utility.yul\":5667:5682   */\n      revert\n        /* \"#utility.yul\":5817:5934   */\n    tag_56:\n        /* \"#utility.yul\":5926:5927   */\n      0x00\n        /* \"#utility.yul\":5923:5924   */\n      dup1\n        /* \"#utility.yul\":5916:5928   */\n      revert\n        /* \"#utility.yul\":5940:6171   */\n    tag_72:\n        /* \"#utility.yul\":6080:6114   */\n      0x4e6f7420656e6f7567682062616c616e636520746f206578656375746520796f\n        /* \"#utility.yul\":6076:6077   */\n      0x00\n        /* \"#utility.yul\":6068:6074   */\n      dup3\n        /* \"#utility.yul\":6064:6078   */\n      add\n        /* \"#utility.yul\":6057:6115   */\n      mstore\n        /* \"#utility.yul\":6149:6163   */\n      0x7572207472616e736665722e0000000000000000000000000000000000000000\n        /* \"#utility.yul\":6144:6146   */\n      0x20\n        /* \"#utility.yul\":6136:6142   */\n      dup3\n        /* \"#utility.yul\":6132:6147   */\n      add\n        /* \"#utility.yul\":6125:6164   */\n      mstore\n        /* \"#utility.yul\":5940:6171   */\n      pop\n      jump\t// out\n        /* \"#utility.yul\":6177:6347   */\n    tag_77:\n        /* \"#utility.yul\":6317:6339   */\n      0x416d6f756e74207472616e736665726564203d20000000000000000000000000\n        /* \"#utility.yul\":6313:6314   */\n      0x00\n        /* \"#utility.yul\":6305:6311   */\n      dup3\n        /* \"#utility.yul\":6301:6315   */\n      add\n        /* \"#utility.yul\":6294:6340   */\n      mstore\n        /* \"#utility.yul\":6177:6347   */\n      pop\n      jump\t// out\n        /* \"#utility.yul\":6353:6522   */\n    tag_82:\n        /* \"#utility.yul\":6493:6514   */\n      0x4e657720546f74616c20537570706c79203d2000000000000000000000000000\n        /* \"#utility.yul\":6489:6490   */\n      0x00\n        /* \"#utility.yul\":6481:6487   */\n      dup3\n        /* \"#utility.yul\":6477:6491   */\n      add\n        /* \"#utility.yul\":6470:6515   */\n      mstore\n        /* \"#utility.yul\":6353:6522   */\n      pop\n      jump\t// out\n        /* \"#utility.yul\":6528:6650   */\n    tag_48:\n        /* \"#utility.yul\":6601:6625   */\n      tag_126\n        /* \"#utility.yul\":6619:6624   */\n      dup2\n        /* \"#utility.yul\":6601:6625   */\n      tag_66\n      jump\t// in\n    tag_126:\n        /* \"#utility.yul\":6594:6599   */\n      dup2\n        /* \"#utility.yul\":6591:6626   */\n      eq\n        /* \"#utility.yul\":6581:6644   */\n      tag_127\n      jumpi\n        /* \"#utility.yul\":6640:6641   */\n      0x00\n        /* \"#utility.yul\":6637:6638   */\n      dup1\n        /* \"#utility.yul\":6630:6642   */\n      revert\n        /* \"#utility.yul\":6581:6644   */\n    tag_127:\n        /* \"#utility.yul\":6528:6650   */\n      pop\n      jump\t// out\n        /* \"#utility.yul\":6656:6778   */\n    tag_52:\n        /* \"#utility.yul\":6729:6753   */\n      tag_129\n        /* \"#utility.yul\":6747:6752   */\n      dup2\n        /* \"#utility.yul\":6729:6753   */\n      tag_86\n      jump\t// in\n    tag_129:\n        /* \"#utility.yul\":6722:6727   */\n      dup2\n        /* \"#utility.yul\":6719:6754   */\n      eq\n        /* \"#utility.yul\":6709:6772   */\n      tag_130\n      jumpi\n        /* \"#utility.yul\":6768:6769   */\n      0x00\n        /* \"#utility.yul\":6765:6766   */\n      dup1\n        /* \"#utility.yul\":6758:6770   */\n      revert\n        /* \"#utility.yul\":6709:6772   */\n    tag_130:\n        /* \"#utility.yul\":6656:6778   */\n      pop\n      jump\t// out\n\n    auxdata: 0xa2646970667358221220823d77b06dfb9a5feb89a52c37a6c70f394ee8287effd0dbc4ff6dca142acab264736f6c63430008070033\n}\n",
				"bytecode": {
					"linkReferences": {},
					"object": "608060405261271060005534801561001657600080fd5b5033600160006101000a81548173ffffffffffffffffffffffffffffffffffffffff021916908373ffffffffffffffffffffffffffffffffffffffff16021790555060005460026000600160009054906101000a900473ffffffffffffffffffffffffffffffffffffffff1673ffffffffffffffffffffffffffffffffffffffff1673ffffffffffffffffffffffffffffffffffffffff16815260200190815260200160002081905550610758806100cf6000396000f3fe608060405234801561001057600080fd5b50600436106100575760003560e01c8063477348921461005c5780638da5cb5b1461008c578063902d55a5146100aa578063a9059cbb146100c8578063de0f2be1146100e4575b600080fd5b610076600480360381019061007191906103a2565b6100ee565b604051610083919061052d565b60405180910390f35b610094610137565b6040516100a19190610496565b60405180910390f35b6100b261015d565b6040516100bf919061052d565b60405180910390f35b6100e260048036038101906100dd91906103cf565b610163565b005b6100ec6102cc565b005b6000600260008373ffffffffffffffffffffffffffffffffffffffff1673ffffffffffffffffffffffffffffffffffffffff168152602001908152602001600020549050919050565b600160009054906101000a900473ffffffffffffffffffffffffffffffffffffffff1681565b60005481565b80600260003373ffffffffffffffffffffffffffffffffffffffff1673ffffffffffffffffffffffffffffffffffffffff1681526020019081526020016000205410156101e5576040517f08c379a00000000000000000000000000000000000000000000000000000000081526004016101dc906104b1565b60405180910390fd5b80600260003373ffffffffffffffffffffffffffffffffffffffff1673ffffffffffffffffffffffffffffffffffffffff168152602001908152602001600020600082825461023491906105af565b9250508190555080600260008473ffffffffffffffffffffffffffffffffffffffff1673ffffffffffffffffffffffffffffffffffffffff168152602001908152602001600020600082825461028a9190610559565b925050819055507f5a2050e3f02d2781f60eea7b6796becb3dd7507e14fce659f8f395d1bcce5fc9816040516102c091906104d1565b60405180910390a15050565b600160009054906101000a900473ffffffffffffffffffffffffffffffffffffffff1673ffffffffffffffffffffffffffffffffffffffff163373ffffffffffffffffffffffffffffffffffffffff161415610376576103e86000808282546103359190610559565b925050819055507f36a6bfb04e36ebe40c1792d122008a16ba8db271eec24c015129bf170ffb448460005460405161036d91906104ff565b60405180910390a15b565b600081359050610387816106f4565b92915050565b60008135905061039c8161070b565b92915050565b6000602082840312156103b8576103b761064e565b5b60006103c684828501610378565b91505092915050565b600080604083850312156103e6576103e561064e565b5b60006103f485828601610378565b92505060206104058582860161038d565b9150509250929050565b610418816105e3565b82525050565b600061042b602c83610548565b915061043682610653565b604082019050919050565b600061044e601483610548565b9150610459826106a2565b602082019050919050565b6000610471601383610548565b915061047c826106cb565b602082019050919050565b61049081610615565b82525050565b60006020820190506104ab600083018461040f565b92915050565b600060208201905081810360008301526104ca8161041e565b9050919050565b600060408201905081810360008301526104ea81610441565b90506104f96020830184610487565b92915050565b6000604082019050818103600083015261051881610464565b90506105276020830184610487565b92915050565b60006020820190506105426000830184610487565b92915050565b600082825260208201905092915050565b600061056482610615565b915061056f83610615565b9250827fffffffffffffffffffffffffffffffffffffffffffffffffffffffffffffffff038211156105a4576105a361061f565b5b828201905092915050565b60006105ba82610615565b91506105c583610615565b9250828210156105d8576105d761061f565b5b828203905092915050565b60006105ee826105f5565b9050919050565b600073ffffffffffffffffffffffffffffffffffffffff82169050919050565b6000819050919050565b7f4e487b7100000000000000000000000000000000000000000000000000000000600052601160045260246000fd5b600080fd5b7f4e6f7420656e6f7567682062616c616e636520746f206578656375746520796f60008201527f7572207472616e736665722e0000000000000000000000000000000000000000602082015250565b7f416d6f756e74207472616e736665726564203d20000000000000000000000000600082015250565b7f4e657720546f74616c20537570706c79203d2000000000000000000000000000600082015250565b6106fd816105e3565b811461070857600080fd5b50565b61071481610615565b811461071f57600080fd5b5056fea2646970667358221220823d77b06dfb9a5feb89a52c37a6c70f394ee8287effd0dbc4ff6dca142acab264736f6c63430008070033",
					"opcodes": "PUSH1 0x80 PUSH1 0x40 MSTORE PUSH2 0x2710 PUSH1 0x0 SSTORE CALLVALUE DUP1 ISZERO PUSH2 0x16 JUMPI PUSH1 0x0 DUP1 REVERT JUMPDEST POP CALLER PUSH1 0x1 PUSH1 0x0 PUSH2 0x100 EXP DUP2 SLOAD DUP2 PUSH20 0xFFFFFFFFFFFFFFFFFFFFFFFFFFFFFFFFFFFFFFFF MUL NOT AND SWAP1 DUP4 PUSH20 0xFFFFFFFFFFFFFFFFFFFFFFFFFFFFFFFFFFFFFFFF AND MUL OR SWAP1 SSTORE POP PUSH1 0x0 SLOAD PUSH1 0x2 PUSH1 0x0 PUSH1 0x1 PUSH1 0x0 SWAP1 SLOAD SWAP1 PUSH2 0x100 EXP SWAP1 DIV PUSH20 0xFFFFFFFFFFFFFFFFFFFFFFFFFFFFFFFFFFFFFFFF AND PUSH20 0xFFFFFFFFFFFFFFFFFFFFFFFFFFFFFFFFFFFFFFFF AND PUSH20 0xFFFFFFFFFFFFFFFFFFFFFFFFFFFFFFFFFFFFFFFF AND DUP2 MSTORE PUSH1 0x20 ADD SWAP1 DUP2 MSTORE PUSH1 0x20 ADD PUSH1 0x0 KECCAK256 DUP2 SWAP1 SSTORE POP PUSH2 0x758 DUP1 PUSH2 0xCF PUSH1 0x0 CODECOPY PUSH1 0x0 RETURN INVALID PUSH1 0x80 PUSH1 0x40 MSTORE CALLVALUE DUP1 ISZERO PUSH2 0x10 JUMPI PUSH1 0x0 DUP1 REVERT JUMPDEST POP PUSH1 0x4 CALLDATASIZE LT PUSH2 0x57 JUMPI PUSH1 0x0 CALLDATALOAD PUSH1 0xE0 SHR DUP1 PUSH4 0x47734892 EQ PUSH2 0x5C JUMPI DUP1 PUSH4 0x8DA5CB5B EQ PUSH2 0x8C JUMPI DUP1 PUSH4 0x902D55A5 EQ PUSH2 0xAA JUMPI DUP1 PUSH4 0xA9059CBB EQ PUSH2 0xC8 JUMPI DUP1 PUSH4 0xDE0F2BE1 EQ PUSH2 0xE4 JUMPI JUMPDEST PUSH1 0x0 DUP1 REVERT JUMPDEST PUSH2 0x76 PUSH1 0x4 DUP1 CALLDATASIZE SUB DUP2 ADD SWAP1 PUSH2 0x71 SWAP2 SWAP1 PUSH2 0x3A2 JUMP JUMPDEST PUSH2 0xEE JUMP JUMPDEST PUSH1 0x40 MLOAD PUSH2 0x83 SWAP2 SWAP1 PUSH2 0x52D JUMP JUMPDEST PUSH1 0x40 MLOAD DUP1 SWAP2 SUB SWAP1 RETURN JUMPDEST PUSH2 0x94 PUSH2 0x137 JUMP JUMPDEST PUSH1 0x40 MLOAD PUSH2 0xA1 SWAP2 SWAP1 PUSH2 0x496 JUMP JUMPDEST PUSH1 0x40 MLOAD DUP1 SWAP2 SUB SWAP1 RETURN JUMPDEST PUSH2 0xB2 PUSH2 0x15D JUMP JUMPDEST PUSH1 0x40 MLOAD PUSH2 0xBF SWAP2 SWAP1 PUSH2 0x52D JUMP JUMPDEST PUSH1 0x40 MLOAD DUP1 SWAP2 SUB SWAP1 RETURN JUMPDEST PUSH2 0xE2 PUSH1 0x4 DUP1 CALLDATASIZE SUB DUP2 ADD SWAP1 PUSH2 0xDD SWAP2 SWAP1 PUSH2 0x3CF JUMP JUMPDEST PUSH2 0x163 JUMP JUMPDEST STOP JUMPDEST PUSH2 0xEC PUSH2 0x2CC JUMP JUMPDEST STOP JUMPDEST PUSH1 0x0 PUSH1 0x2 PUSH1 0x0 DUP4 PUSH20 0xFFFFFFFFFFFFFFFFFFFFFFFFFFFFFFFFFFFFFFFF AND PUSH20 0xFFFFFFFFFFFFFFFFFFFFFFFFFFFFFFFFFFFFFFFF AND DUP2 MSTORE PUSH1 0x20 ADD SWAP1 DUP2 MSTORE PUSH1 0x20 ADD PUSH1 0x0 KECCAK256 SLOAD SWAP1 POP SWAP2 SWAP1 POP JUMP JUMPDEST PUSH1 0x1 PUSH1 0x0 SWAP1 SLOAD SWAP1 PUSH2 0x100 EXP SWAP1 DIV PUSH20 0xFFFFFFFFFFFFFFFFFFFFFFFFFFFFFFFFFFFFFFFF AND DUP2 JUMP JUMPDEST PUSH1 0x0 SLOAD DUP2 JUMP JUMPDEST DUP1 PUSH1 0x2 PUSH1 0x0 CALLER PUSH20 0xFFFFFFFFFFFFFFFFFFFFFFFFFFFFFFFFFFFFFFFF AND PUSH20 0xFFFFFFFFFFFFFFFFFFFFFFFFFFFFFFFFFFFFFFFF AND DUP2 MSTORE PUSH1 0x20 ADD SWAP1 DUP2 MSTORE PUSH1 0x20 ADD PUSH1 0x0 KECCAK256 SLOAD LT ISZERO PUSH2 0x1E5 JUMPI PUSH1 0x40 MLOAD PUSH32 0x8C379A000000000000000000000000000000000000000000000000000000000 DUP2 MSTORE PUSH1 0x4 ADD PUSH2 0x1DC SWAP1 PUSH2 0x4B1 JUMP JUMPDEST PUSH1 0x40 MLOAD DUP1 SWAP2 SUB SWAP1 REVERT JUMPDEST DUP1 PUSH1 0x2 PUSH1 0x0 CALLER PUSH20 0xFFFFFFFFFFFFFFFFFFFFFFFFFFFFFFFFFFFFFFFF AND PUSH20 0xFFFFFFFFFFFFFFFFFFFFFFFFFFFFFFFFFFFFFFFF AND DUP2 MSTORE PUSH1 0x20 ADD SWAP1 DUP2 MSTORE PUSH1 0x20 ADD PUSH1 0x0 KECCAK256 PUSH1 0x0 DUP3 DUP3 SLOAD PUSH2 0x234 SWAP2 SWAP1 PUSH2 0x5AF JUMP JUMPDEST SWAP3 POP POP DUP2 SWAP1 SSTORE POP DUP1 PUSH1 0x2 PUSH1 0x0 DUP5 PUSH20 0xFFFFFFFFFFFFFFFFFFFFFFFFFFFFFFFFFFFFFFFF AND PUSH20 0xFFFFFFFFFFFFFFFFFFFFFFFFFFFFFFFFFFFFFFFF AND DUP2 MSTORE PUSH1 0x20 ADD SWAP1 DUP2 MSTORE PUSH1 0x20 ADD PUSH1 0x0 KECCAK256 PUSH1 0x0 DUP3 DUP3 SLOAD PUSH2 0x28A SWAP2 SWAP1 PUSH2 0x559 JUMP JUMPDEST SWAP3 POP POP DUP2 SWAP1 SSTORE POP PUSH32 0x5A2050E3F02D2781F60EEA7B6796BECB3DD7507E14FCE659F8F395D1BCCE5FC9 DUP2 PUSH1 0x40 MLOAD PUSH2 0x2C0 SWAP2 SWAP1 PUSH2 0x4D1 JUMP JUMPDEST PUSH1 0x40 MLOAD DUP1 SWAP2 SUB SWAP1 LOG1 POP POP JUMP JUMPDEST PUSH1 0x1 PUSH1 0x0 SWAP1 SLOAD SWAP1 PUSH2 0x100 EXP SWAP1 DIV PUSH20 0xFFFFFFFFFFFFFFFFFFFFFFFFFFFFFFFFFFFFFFFF AND PUSH20 0xFFFFFFFFFFFFFFFFFFFFFFFFFFFFFFFFFFFFFFFF AND CALLER PUSH20 0xFFFFFFFFFFFFFFFFFFFFFFFFFFFFFFFFFFFFFFFF AND EQ ISZERO PUSH2 0x376 JUMPI PUSH2 0x3E8 PUSH1 0x0 DUP1 DUP3 DUP3 SLOAD PUSH2 0x335 SWAP2 SWAP1 PUSH2 0x559 JUMP JUMPDEST SWAP3 POP POP DUP2 SWAP1 SSTORE POP PUSH32 0x36A6BFB04E36EBE40C1792D122008A16BA8DB271EEC24C015129BF170FFB4484 PUSH1 0x0 SLOAD PUSH1 0x40 MLOAD PUSH2 0x36D SWAP2 SWAP1 PUSH2 0x4FF JUMP JUMPDEST PUSH1 0x40 MLOAD DUP1 SWAP2 SUB SWAP1 LOG1 JUMPDEST JUMP JUMPDEST PUSH1 0x0 DUP2 CALLDATALOAD SWAP1 POP PUSH2 0x387 DUP2 PUSH2 0x6F4 JUMP JUMPDEST SWAP3 SWAP2 POP POP JUMP JUMPDEST PUSH1 0x0 DUP2 CALLDATALOAD SWAP1 POP PUSH2 0x39C DUP2 PUSH2 0x70B JUMP JUMPDEST SWAP3 SWAP2 POP POP JUMP JUMPDEST PUSH1 0x0 PUSH1 0x20 DUP3 DUP5 SUB SLT ISZERO PUSH2 0x3B8 JUMPI PUSH2 0x3B7 PUSH2 0x64E JUMP JUMPDEST JUMPDEST PUSH1 0x0 PUSH2 0x3C6 DUP5 DUP3 DUP6 ADD PUSH2 0x378 JUMP JUMPDEST SWAP2 POP POP SWAP3 SWAP2 POP POP JUMP JUMPDEST PUSH1 0x0 DUP1 PUSH1 0x40 DUP4 DUP6 SUB SLT ISZERO PUSH2 0x3E6 JUMPI PUSH2 0x3E5 PUSH2 0x64E JUMP JUMPDEST JUMPDEST PUSH1 0x0 PUSH2 0x3F4 DUP6 DUP3 DUP7 ADD PUSH2 0x378 JUMP JUMPDEST SWAP3 POP POP PUSH1 0x20 PUSH2 0x405 DUP6 DUP3 DUP7 ADD PUSH2 0x38D JUMP JUMPDEST SWAP2 POP POP SWAP3 POP SWAP3 SWAP1 POP JUMP JUMPDEST PUSH2 0x418 DUP2 PUSH2 0x5E3 JUMP JUMPDEST DUP3 MSTORE POP POP JUMP JUMPDEST PUSH1 0x0 PUSH2 0x42B PUSH1 0x2C DUP4 PUSH2 0x548 JUMP JUMPDEST SWAP2 POP PUSH2 0x436 DUP3 PUSH2 0x653 JUMP JUMPDEST PUSH1 0x40 DUP3 ADD SWAP1 POP SWAP2 SWAP1 POP JUMP JUMPDEST PUSH1 0x0 PUSH2 0x44E PUSH1 0x14 DUP4 PUSH2 0x548 JUMP JUMPDEST SWAP2 POP PUSH2 0x459 DUP3 PUSH2 0x6A2 JUMP JUMPDEST PUSH1 0x20 DUP3 ADD SWAP1 POP SWAP2 SWAP1 POP JUMP JUMPDEST PUSH1 0x0 PUSH2 0x471 PUSH1 0x13 DUP4 PUSH2 0x548 JUMP JUMPDEST SWAP2 POP PUSH2 0x47C DUP3 PUSH2 0x6CB JUMP JUMPDEST PUSH1 0x20 DUP3 ADD SWAP1 POP SWAP2 SWAP1 POP JUMP JUMPDEST PUSH2 0x490 DUP2 PUSH2 0x615 JUMP JUMPDEST DUP3 MSTORE POP POP JUMP JUMPDEST PUSH1 0x0 PUSH1 0x20 DUP3 ADD SWAP1 POP PUSH2 0x4AB PUSH1 0x0 DUP4 ADD DUP5 PUSH2 0x40F JUMP JUMPDEST SWAP3 SWAP2 POP POP JUMP JUMPDEST PUSH1 0x0 PUSH1 0x20 DUP3 ADD SWAP1 POP DUP2 DUP2 SUB PUSH1 0x0 DUP4 ADD MSTORE PUSH2 0x4CA DUP2 PUSH2 0x41E JUMP JUMPDEST SWAP1 POP SWAP2 SWAP1 POP JUMP JUMPDEST PUSH1 0x0 PUSH1 0x40 DUP3 ADD SWAP1 POP DUP2 DUP2 SUB PUSH1 0x0 DUP4 ADD MSTORE PUSH2 0x4EA DUP2 PUSH2 0x441 JUMP JUMPDEST SWAP1 POP PUSH2 0x4F9 PUSH1 0x20 DUP4 ADD DUP5 PUSH2 0x487 JUMP JUMPDEST SWAP3 SWAP2 POP POP JUMP JUMPDEST PUSH1 0x0 PUSH1 0x40 DUP3 ADD SWAP1 POP DUP2 DUP2 SUB PUSH1 0x0 DUP4 ADD MSTORE PUSH2 0x518 DUP2 PUSH2 0x464 JUMP JUMPDEST SWAP1 POP PUSH2 0x527 PUSH1 0x20 DUP4 ADD DUP5 PUSH2 0x487 JUMP JUMPDEST SWAP3 SWAP2 POP POP JUMP JUMPDEST PUSH1 0x0 PUSH1 0x20 DUP3 ADD SWAP1 POP PUSH2 0x542 PUSH1 0x0 DUP4 ADD DUP5 PUSH2 0x487 JUMP JUMPDEST SWAP3 SWAP2 POP POP JUMP JUMPDEST PUSH1 0x0 DUP3 DUP3 MSTORE PUSH1 0x20 DUP3 ADD SWAP1 POP SWAP3 SWAP2 POP POP JUMP JUMPDEST PUSH1 0x0 PUSH2 0x564 DUP3 PUSH2 0x615 JUMP JUMPDEST SWAP2 POP PUSH2 0x56F DUP4 PUSH2 0x615 JUMP JUMPDEST SWAP3 POP DUP3 PUSH32 0xFFFFFFFFFFFFFFFFFFFFFFFFFFFFFFFFFFFFFFFFFFFFFFFFFFFFFFFFFFFFFFFF SUB DUP3 GT ISZERO PUSH2 0x5A4 JUMPI PUSH2 0x5A3 PUSH2 0x61F JUMP JUMPDEST JUMPDEST DUP3 DUP3 ADD SWAP1 POP SWAP3 SWAP2 POP POP JUMP JUMPDEST PUSH1 0x0 PUSH2 0x5BA DUP3 PUSH2 0x615 JUMP JUMPDEST SWAP2 POP PUSH2 0x5C5 DUP4 PUSH2 0x615 JUMP JUMPDEST SWAP3 POP DUP3 DUP3 LT ISZERO PUSH2 0x5D8 JUMPI PUSH2 0x5D7 PUSH2 0x61F JUMP JUMPDEST JUMPDEST DUP3 DUP3 SUB SWAP1 POP SWAP3 SWAP2 POP POP JUMP JUMPDEST PUSH1 0x0 PUSH2 0x5EE DUP3 PUSH2 0x5F5 JUMP JUMPDEST SWAP1 POP SWAP2 SWAP1 POP JUMP JUMPDEST PUSH1 0x0 PUSH20 0xFFFFFFFFFFFFFFFFFFFFFFFFFFFFFFFFFFFFFFFF DUP3 AND SWAP1 POP SWAP2 SWAP1 POP JUMP JUMPDEST PUSH1 0x0 DUP2 SWAP1 POP SWAP2 SWAP1 POP JUMP JUMPDEST PUSH32 0x4E487B7100000000000000000000000000000000000000000000000000000000 PUSH1 0x0 MSTORE PUSH1 0x11 PUSH1 0x4 MSTORE PUSH1 0x24 PUSH1 0x0 REVERT JUMPDEST PUSH1 0x0 DUP1 REVERT JUMPDEST PUSH32 0x4E6F7420656E6F7567682062616C616E636520746F206578656375746520796F PUSH1 0x0 DUP3 ADD MSTORE PUSH32 0x7572207472616E736665722E0000000000000000000000000000000000000000 PUSH1 0x20 DUP3 ADD MSTORE POP JUMP JUMPDEST PUSH32 0x416D6F756E74207472616E736665726564203D20000000000000000000000000 PUSH1 0x0 DUP3 ADD MSTORE POP JUMP JUMPDEST PUSH32 0x4E657720546F74616C20537570706C79203D2000000000000000000000000000 PUSH1 0x0 DUP3 ADD MSTORE POP JUMP JUMPDEST PUSH2 0x6FD DUP2 PUSH2 0x5E3 JUMP JUMPDEST DUP2 EQ PUSH2 0x708 JUMPI PUSH1 0x0 DUP1 REVERT JUMPDEST POP JUMP JUMPDEST PUSH2 0x714 DUP2 PUSH2 0x615 JUMP JUMPDEST DUP2 EQ PUSH2 0x71F JUMPI PUSH1 0x0 DUP1 REVERT JUMPDEST POP JUMP INVALID LOG2 PUSH5 0x6970667358 0x22 SLT KECCAK256 DUP3 RETURNDATASIZE PUSH24 0xB06DFB9A5FEB89A52C37A6C70F394EE8287EFFD0DBC4FF6D 0xCA EQ 0x2A 0xCA 0xB2 PUSH5 0x736F6C6343 STOP ADDMOD SMOD STOP CALLER "
				},
				"gasEstimates": {
					"creation": {
						"codeDepositCost": "376000",
						"executionCost": "73223",
						"totalCost": "449223"
					},
					"external": {
						"TOTAL_SUPPLY()": "2451",
						"getUserBalance(address)": "2819",
						"increaseTotalSupply()": "infinite",
						"owner()": "2514",
						"transfer(address,uint256)": "infinite"
					}
				},
				"methodIdentifiers": {
					"TOTAL_SUPPLY()": "902d55a5",
					"getUserBalance(address)": "47734892",
					"increaseTotalSupply()": "de0f2be1",
					"owner()": "8da5cb5b",
					"transfer(address,uint256)": "a9059cbb"
				}
			},
			"storageLayout": {
				"storage": [
					{
						"astId": 4,
						"contract": "contracts/ethdenver_lessons/D4/VolcanoCoin.sol:VolcanoCoin",
						"label": "TOTAL_SUPPLY",
						"offset": 0,
						"slot": "0",
						"type": "t_uint256"
					},
					{
						"astId": 6,
						"contract": "contracts/ethdenver_lessons/D4/VolcanoCoin.sol:VolcanoCoin",
						"label": "owner",
						"offset": 0,
						"slot": "1",
						"type": "t_address"
					},
					{
						"astId": 22,
						"contract": "contracts/ethdenver_lessons/D4/VolcanoCoin.sol:VolcanoCoin",
						"label": "balances",
						"offset": 0,
						"slot": "2",
						"type": "t_mapping(t_address,t_uint256)"
					}
				],
				"types": {
					"t_address": {
						"encoding": "inplace",
						"label": "address",
						"numberOfBytes": "20"
					},
					"t_mapping(t_address,t_uint256)": {
						"encoding": "mapping",
						"key": "t_address",
						"label": "mapping(address => uint256)",
						"numberOfBytes": "32",
						"value": "t_uint256"
					},
					"t_uint256": {
						"encoding": "inplace",
						"label": "uint256",
						"numberOfBytes": "32"
					}
				}
			},
			"userdoc": {
				"kind": "user",
				"methods": {},
				"version": 1
			}
		}
	}
}