{
	"contracts/ethdenver_lessons/D4/VolcanoCoin.sol": {
		"VolcanoCoin": {
			"abi": [
				{
					"inputs": [],
					"stateMutability": "nonpayable",
					"type": "constructor"
				},
				{
					"anonymous": false,
					"inputs": [
						{
							"indexed": false,
							"internalType": "string",
							"name": "",
							"type": "string"
						},
						{
							"indexed": false,
							"internalType": "uint256",
							"name": "",
							"type": "uint256"
						}
					],
					"name": "totalSupplyChanged",
					"type": "event"
				},
				{
					"inputs": [],
					"name": "TOTAL_SUPPLY",
					"outputs": [
						{
							"internalType": "uint256",
							"name": "",
							"type": "uint256"
						}
					],
					"stateMutability": "view",
					"type": "function"
				},
				{
					"inputs": [
						{
							"internalType": "address",
							"name": "user",
							"type": "address"
						}
					],
					"name": "getUserBalance",
					"outputs": [
						{
							"internalType": "uint256",
							"name": "",
							"type": "uint256"
						}
					],
					"stateMutability": "view",
					"type": "function"
				},
				{
					"inputs": [],
					"name": "increaseTotalSupply",
					"outputs": [],
					"stateMutability": "nonpayable",
					"type": "function"
				},
				{
					"inputs": [],
					"name": "owner",
					"outputs": [
						{
							"internalType": "address",
							"name": "",
							"type": "address"
						}
					],
					"stateMutability": "view",
					"type": "function"
				}
			],
			"devdoc": {
				"kind": "dev",
				"methods": {},
				"version": 1
			},
			"evm": {
				"assembly": "    /* \"contracts/ethdenver_lessons/D4/VolcanoCoin.sol\":65:734  contract VolcanoCoin {... */\n  mstore(0x40, 0x80)\n    /* \"contracts/ethdenver_lessons/D4/VolcanoCoin.sol\":122:127  10000 */\n  0x2710\n    /* \"contracts/ethdenver_lessons/D4/VolcanoCoin.sol\":92:127  uint256 public TOTAL_SUPPLY = 10000 */\n  0x00\n  sstore\n    /* \"contracts/ethdenver_lessons/D4/VolcanoCoin.sol\":229:312  constructor() {... */\n  callvalue\n  dup1\n  iszero\n  tag_1\n  jumpi\n  0x00\n  dup1\n  revert\ntag_1:\n  pop\n    /* \"contracts/ethdenver_lessons/D4/VolcanoCoin.sol\":261:271  msg.sender */\n  caller\n    /* \"contracts/ethdenver_lessons/D4/VolcanoCoin.sol\":253:258  owner */\n  0x01\n  0x00\n    /* \"contracts/ethdenver_lessons/D4/VolcanoCoin.sol\":253:271  owner = msg.sender */\n  0x0100\n  exp\n  dup2\n  sload\n  dup2\n  0xffffffffffffffffffffffffffffffffffffffff\n  mul\n  not\n  and\n  swap1\n  dup4\n  0xffffffffffffffffffffffffffffffffffffffff\n  and\n  mul\n  or\n  swap1\n  sstore\n  pop\n    /* \"contracts/ethdenver_lessons/D4/VolcanoCoin.sol\":281:298  balancePerAddress */\n  0x03\n    /* \"contracts/ethdenver_lessons/D4/VolcanoCoin.sol\":281:305  balancePerAddress[owner] */\n  0x00\n    /* \"contracts/ethdenver_lessons/D4/VolcanoCoin.sol\":299:304  owner */\n  0x01\n  0x00\n  swap1\n  sload\n  swap1\n  0x0100\n  exp\n  swap1\n  div\n  0xffffffffffffffffffffffffffffffffffffffff\n  and\n    /* \"contracts/ethdenver_lessons/D4/VolcanoCoin.sol\":281:305  balancePerAddress[owner] */\n  0xffffffffffffffffffffffffffffffffffffffff\n  and\n  0xffffffffffffffffffffffffffffffffffffffff\n  and\n  dup2\n  mstore\n  0x20\n  add\n  swap1\n  dup2\n  mstore\n  0x20\n  add\n  0x00\n  keccak256\n  pop\n    /* \"contracts/ethdenver_lessons/D4/VolcanoCoin.sol\":65:734  contract VolcanoCoin {... */\n  dataSize(sub_0)\n  dup1\n  dataOffset(sub_0)\n  0x00\n  codecopy\n  0x00\n  return\nstop\n\nsub_0: assembly {\n        /* \"contracts/ethdenver_lessons/D4/VolcanoCoin.sol\":65:734  contract VolcanoCoin {... */\n      mstore(0x40, 0x80)\n      callvalue\n      dup1\n      iszero\n      tag_1\n      jumpi\n      0x00\n      dup1\n      revert\n    tag_1:\n      pop\n      jumpi(tag_2, lt(calldatasize, 0x04))\n      shr(0xe0, calldataload(0x00))\n      dup1\n      0x47734892\n      eq\n      tag_3\n      jumpi\n      dup1\n      0x8da5cb5b\n      eq\n      tag_4\n      jumpi\n      dup1\n      0x902d55a5\n      eq\n      tag_5\n      jumpi\n      dup1\n      0xde0f2be1\n      eq\n      tag_6\n      jumpi\n    tag_2:\n      0x00\n      dup1\n      revert\n        /* \"contracts/ethdenver_lessons/D4/VolcanoCoin.sol\":621:732  function getUserBalance(address user) public view returns(uint) {... */\n    tag_3:\n      tag_7\n      0x04\n      dup1\n      calldatasize\n      sub\n      dup2\n      add\n      swap1\n      tag_8\n      swap2\n      swap1\n      tag_9\n      jump\t// in\n    tag_8:\n      tag_10\n      jump\t// in\n    tag_7:\n      mload(0x40)\n      tag_11\n      swap2\n      swap1\n      tag_12\n      jump\t// in\n    tag_11:\n      mload(0x40)\n      dup1\n      swap2\n      sub\n      swap1\n      return\n        /* \"contracts/ethdenver_lessons/D4/VolcanoCoin.sol\":133:153  address public owner */\n    tag_4:\n      tag_13\n      tag_14\n      jump\t// in\n    tag_13:\n      mload(0x40)\n      tag_15\n      swap2\n      swap1\n      tag_16\n      jump\t// in\n    tag_15:\n      mload(0x40)\n      dup1\n      swap2\n      sub\n      swap1\n      return\n        /* \"contracts/ethdenver_lessons/D4/VolcanoCoin.sol\":92:127  uint256 public TOTAL_SUPPLY = 10000 */\n    tag_5:\n      tag_17\n      tag_18\n      jump\t// in\n    tag_17:\n      mload(0x40)\n      tag_19\n      swap2\n      swap1\n      tag_12\n      jump\t// in\n    tag_19:\n      mload(0x40)\n      dup1\n      swap2\n      sub\n      swap1\n      return\n        /* \"contracts/ethdenver_lessons/D4/VolcanoCoin.sol\":410:566  function increaseTotalSupply() public onlyOwner {... */\n    tag_6:\n      tag_20\n      tag_21\n      jump\t// in\n    tag_20:\n      stop\n        /* \"contracts/ethdenver_lessons/D4/VolcanoCoin.sol\":621:732  function getUserBalance(address user) public view returns(uint) {... */\n    tag_10:\n        /* \"contracts/ethdenver_lessons/D4/VolcanoCoin.sol\":679:683  uint */\n      0x00\n        /* \"contracts/ethdenver_lessons/D4/VolcanoCoin.sol\":702:719  balancePerAddress */\n      0x03\n        /* \"contracts/ethdenver_lessons/D4/VolcanoCoin.sol\":702:725  balancePerAddress[user] */\n      0x00\n        /* \"contracts/ethdenver_lessons/D4/VolcanoCoin.sol\":720:724  user */\n      dup4\n        /* \"contracts/ethdenver_lessons/D4/VolcanoCoin.sol\":702:725  balancePerAddress[user] */\n      0xffffffffffffffffffffffffffffffffffffffff\n      and\n      0xffffffffffffffffffffffffffffffffffffffff\n      and\n      dup2\n      mstore\n      0x20\n      add\n      swap1\n      dup2\n      mstore\n      0x20\n      add\n      0x00\n      keccak256\n      sload\n        /* \"contracts/ethdenver_lessons/D4/VolcanoCoin.sol\":695:725  return balancePerAddress[user] */\n      swap1\n      pop\n        /* \"contracts/ethdenver_lessons/D4/VolcanoCoin.sol\":621:732  function getUserBalance(address user) public view returns(uint) {... */\n      swap2\n      swap1\n      pop\n      jump\t// out\n        /* \"contracts/ethdenver_lessons/D4/VolcanoCoin.sol\":133:153  address public owner */\n    tag_14:\n      0x01\n      0x00\n      swap1\n      sload\n      swap1\n      0x0100\n      exp\n      swap1\n      div\n      0xffffffffffffffffffffffffffffffffffffffff\n      and\n      dup2\n      jump\t// out\n        /* \"contracts/ethdenver_lessons/D4/VolcanoCoin.sol\":92:127  uint256 public TOTAL_SUPPLY = 10000 */\n    tag_18:\n      sload(0x00)\n      dup2\n      jump\t// out\n        /* \"contracts/ethdenver_lessons/D4/VolcanoCoin.sol\":410:566  function increaseTotalSupply() public onlyOwner {... */\n    tag_21:\n        /* \"contracts/ethdenver_lessons/D4/VolcanoCoin.sol\":365:370  owner */\n      0x01\n      0x00\n      swap1\n      sload\n      swap1\n      0x0100\n      exp\n      swap1\n      div\n      0xffffffffffffffffffffffffffffffffffffffff\n      and\n        /* \"contracts/ethdenver_lessons/D4/VolcanoCoin.sol\":351:370  msg.sender == owner */\n      0xffffffffffffffffffffffffffffffffffffffff\n      and\n        /* \"contracts/ethdenver_lessons/D4/VolcanoCoin.sol\":351:361  msg.sender */\n      caller\n        /* \"contracts/ethdenver_lessons/D4/VolcanoCoin.sol\":351:370  msg.sender == owner */\n      0xffffffffffffffffffffffffffffffffffffffff\n      and\n      eq\n        /* \"contracts/ethdenver_lessons/D4/VolcanoCoin.sol\":347:398  if (msg.sender == owner) {... */\n      iszero\n      tag_24\n      jumpi\n        /* \"contracts/ethdenver_lessons/D4/VolcanoCoin.sol\":484:488  1000 */\n      0x03e8\n        /* \"contracts/ethdenver_lessons/D4/VolcanoCoin.sol\":468:480  TOTAL_SUPPLY */\n      0x00\n      dup1\n        /* \"contracts/ethdenver_lessons/D4/VolcanoCoin.sol\":468:488  TOTAL_SUPPLY += 1000 */\n      dup3\n      dup3\n      sload\n      tag_26\n      swap2\n      swap1\n      tag_27\n      jump\t// in\n    tag_26:\n      swap3\n      pop\n      pop\n      dup2\n      swap1\n      sstore\n      pop\n        /* \"contracts/ethdenver_lessons/D4/VolcanoCoin.sol\":503:559  totalSupplyChanged(\"New Total Supply = \" , TOTAL_SUPPLY) */\n      0xb1b0d26955e375136ca55bac4ef6b90b41a617dc655cca6436931ba3a836e769\n        /* \"contracts/ethdenver_lessons/D4/VolcanoCoin.sol\":546:558  TOTAL_SUPPLY */\n      sload(0x00)\n        /* \"contracts/ethdenver_lessons/D4/VolcanoCoin.sol\":503:559  totalSupplyChanged(\"New Total Supply = \" , TOTAL_SUPPLY) */\n      mload(0x40)\n      tag_28\n      swap2\n      swap1\n      tag_29\n      jump\t// in\n    tag_28:\n      mload(0x40)\n      dup1\n      swap2\n      sub\n      swap1\n      log1\n        /* \"contracts/ethdenver_lessons/D4/VolcanoCoin.sol\":347:398  if (msg.sender == owner) {... */\n    tag_24:\n        /* \"contracts/ethdenver_lessons/D4/VolcanoCoin.sol\":410:566  function increaseTotalSupply() public onlyOwner {... */\n      jump\t// out\n        /* \"#utility.yul\":7:146   */\n    tag_31:\n        /* \"#utility.yul\":53:58   */\n      0x00\n        /* \"#utility.yul\":91:97   */\n      dup2\n        /* \"#utility.yul\":78:98   */\n      calldataload\n        /* \"#utility.yul\":69:98   */\n      swap1\n      pop\n        /* \"#utility.yul\":107:140   */\n      tag_33\n        /* \"#utility.yul\":134:139   */\n      dup2\n        /* \"#utility.yul\":107:140   */\n      tag_34\n      jump\t// in\n    tag_33:\n        /* \"#utility.yul\":7:146   */\n      swap3\n      swap2\n      pop\n      pop\n      jump\t// out\n        /* \"#utility.yul\":152:481   */\n    tag_9:\n        /* \"#utility.yul\":211:217   */\n      0x00\n        /* \"#utility.yul\":260:262   */\n      0x20\n        /* \"#utility.yul\":248:257   */\n      dup3\n        /* \"#utility.yul\":239:246   */\n      dup5\n        /* \"#utility.yul\":235:258   */\n      sub\n        /* \"#utility.yul\":231:263   */\n      slt\n        /* \"#utility.yul\":228:347   */\n      iszero\n      tag_36\n      jumpi\n        /* \"#utility.yul\":266:345   */\n      tag_37\n      tag_38\n      jump\t// in\n    tag_37:\n        /* \"#utility.yul\":228:347   */\n    tag_36:\n        /* \"#utility.yul\":386:387   */\n      0x00\n        /* \"#utility.yul\":411:464   */\n      tag_39\n        /* \"#utility.yul\":456:463   */\n      dup5\n        /* \"#utility.yul\":447:453   */\n      dup3\n        /* \"#utility.yul\":436:445   */\n      dup6\n        /* \"#utility.yul\":432:454   */\n      add\n        /* \"#utility.yul\":411:464   */\n      tag_31\n      jump\t// in\n    tag_39:\n        /* \"#utility.yul\":401:464   */\n      swap2\n      pop\n        /* \"#utility.yul\":357:474   */\n      pop\n        /* \"#utility.yul\":152:481   */\n      swap3\n      swap2\n      pop\n      pop\n      jump\t// out\n        /* \"#utility.yul\":487:605   */\n    tag_40:\n        /* \"#utility.yul\":574:598   */\n      tag_42\n        /* \"#utility.yul\":592:597   */\n      dup2\n        /* \"#utility.yul\":574:598   */\n      tag_43\n      jump\t// in\n    tag_42:\n        /* \"#utility.yul\":569:572   */\n      dup3\n        /* \"#utility.yul\":562:599   */\n      mstore\n        /* \"#utility.yul\":487:605   */\n      pop\n      pop\n      jump\t// out\n        /* \"#utility.yul\":611:977   */\n    tag_44:\n        /* \"#utility.yul\":753:756   */\n      0x00\n        /* \"#utility.yul\":774:841   */\n      tag_46\n        /* \"#utility.yul\":838:840   */\n      0x13\n        /* \"#utility.yul\":833:836   */\n      dup4\n        /* \"#utility.yul\":774:841   */\n      tag_47\n      jump\t// in\n    tag_46:\n        /* \"#utility.yul\":767:841   */\n      swap2\n      pop\n        /* \"#utility.yul\":850:943   */\n      tag_48\n        /* \"#utility.yul\":939:942   */\n      dup3\n        /* \"#utility.yul\":850:943   */\n      tag_49\n      jump\t// in\n    tag_48:\n        /* \"#utility.yul\":968:970   */\n      0x20\n        /* \"#utility.yul\":963:966   */\n      dup3\n        /* \"#utility.yul\":959:971   */\n      add\n        /* \"#utility.yul\":952:971   */\n      swap1\n      pop\n        /* \"#utility.yul\":611:977   */\n      swap2\n      swap1\n      pop\n      jump\t// out\n        /* \"#utility.yul\":983:1101   */\n    tag_50:\n        /* \"#utility.yul\":1070:1094   */\n      tag_52\n        /* \"#utility.yul\":1088:1093   */\n      dup2\n        /* \"#utility.yul\":1070:1094   */\n      tag_53\n      jump\t// in\n    tag_52:\n        /* \"#utility.yul\":1065:1068   */\n      dup3\n        /* \"#utility.yul\":1058:1095   */\n      mstore\n        /* \"#utility.yul\":983:1101   */\n      pop\n      pop\n      jump\t// out\n        /* \"#utility.yul\":1107:1329   */\n    tag_16:\n        /* \"#utility.yul\":1200:1204   */\n      0x00\n        /* \"#utility.yul\":1238:1240   */\n      0x20\n        /* \"#utility.yul\":1227:1236   */\n      dup3\n        /* \"#utility.yul\":1223:1241   */\n      add\n        /* \"#utility.yul\":1215:1241   */\n      swap1\n      pop\n        /* \"#utility.yul\":1251:1322   */\n      tag_55\n        /* \"#utility.yul\":1319:1320   */\n      0x00\n        /* \"#utility.yul\":1308:1317   */\n      dup4\n        /* \"#utility.yul\":1304:1321   */\n      add\n        /* \"#utility.yul\":1295:1301   */\n      dup5\n        /* \"#utility.yul\":1251:1322   */\n      tag_40\n      jump\t// in\n    tag_55:\n        /* \"#utility.yul\":1107:1329   */\n      swap3\n      swap2\n      pop\n      pop\n      jump\t// out\n        /* \"#utility.yul\":1335:1864   */\n    tag_29:\n        /* \"#utility.yul\":1529:1533   */\n      0x00\n        /* \"#utility.yul\":1567:1569   */\n      0x40\n        /* \"#utility.yul\":1556:1565   */\n      dup3\n        /* \"#utility.yul\":1552:1570   */\n      add\n        /* \"#utility.yul\":1544:1570   */\n      swap1\n      pop\n        /* \"#utility.yul\":1616:1625   */\n      dup2\n        /* \"#utility.yul\":1610:1614   */\n      dup2\n        /* \"#utility.yul\":1606:1626   */\n      sub\n        /* \"#utility.yul\":1602:1603   */\n      0x00\n        /* \"#utility.yul\":1591:1600   */\n      dup4\n        /* \"#utility.yul\":1587:1604   */\n      add\n        /* \"#utility.yul\":1580:1627   */\n      mstore\n        /* \"#utility.yul\":1644:1775   */\n      tag_57\n        /* \"#utility.yul\":1770:1774   */\n      dup2\n        /* \"#utility.yul\":1644:1775   */\n      tag_44\n      jump\t// in\n    tag_57:\n        /* \"#utility.yul\":1636:1775   */\n      swap1\n      pop\n        /* \"#utility.yul\":1785:1857   */\n      tag_58\n        /* \"#utility.yul\":1853:1855   */\n      0x20\n        /* \"#utility.yul\":1842:1851   */\n      dup4\n        /* \"#utility.yul\":1838:1856   */\n      add\n        /* \"#utility.yul\":1829:1835   */\n      dup5\n        /* \"#utility.yul\":1785:1857   */\n      tag_50\n      jump\t// in\n    tag_58:\n        /* \"#utility.yul\":1335:1864   */\n      swap3\n      swap2\n      pop\n      pop\n      jump\t// out\n        /* \"#utility.yul\":1870:2092   */\n    tag_12:\n        /* \"#utility.yul\":1963:1967   */\n      0x00\n        /* \"#utility.yul\":2001:2003   */\n      0x20\n        /* \"#utility.yul\":1990:1999   */\n      dup3\n        /* \"#utility.yul\":1986:2004   */\n      add\n        /* \"#utility.yul\":1978:2004   */\n      swap1\n      pop\n        /* \"#utility.yul\":2014:2085   */\n      tag_60\n        /* \"#utility.yul\":2082:2083   */\n      0x00\n        /* \"#utility.yul\":2071:2080   */\n      dup4\n        /* \"#utility.yul\":2067:2084   */\n      add\n        /* \"#utility.yul\":2058:2064   */\n      dup5\n        /* \"#utility.yul\":2014:2085   */\n      tag_50\n      jump\t// in\n    tag_60:\n        /* \"#utility.yul\":1870:2092   */\n      swap3\n      swap2\n      pop\n      pop\n      jump\t// out\n        /* \"#utility.yul\":2179:2348   */\n    tag_47:\n        /* \"#utility.yul\":2263:2274   */\n      0x00\n        /* \"#utility.yul\":2297:2303   */\n      dup3\n        /* \"#utility.yul\":2292:2295   */\n      dup3\n        /* \"#utility.yul\":2285:2304   */\n      mstore\n        /* \"#utility.yul\":2337:2341   */\n      0x20\n        /* \"#utility.yul\":2332:2335   */\n      dup3\n        /* \"#utility.yul\":2328:2342   */\n      add\n        /* \"#utility.yul\":2313:2342   */\n      swap1\n      pop\n        /* \"#utility.yul\":2179:2348   */\n      swap3\n      swap2\n      pop\n      pop\n      jump\t// out\n        /* \"#utility.yul\":2354:2659   */\n    tag_27:\n        /* \"#utility.yul\":2394:2397   */\n      0x00\n        /* \"#utility.yul\":2413:2433   */\n      tag_65\n        /* \"#utility.yul\":2431:2432   */\n      dup3\n        /* \"#utility.yul\":2413:2433   */\n      tag_53\n      jump\t// in\n    tag_65:\n        /* \"#utility.yul\":2408:2433   */\n      swap2\n      pop\n        /* \"#utility.yul\":2447:2467   */\n      tag_66\n        /* \"#utility.yul\":2465:2466   */\n      dup4\n        /* \"#utility.yul\":2447:2467   */\n      tag_53\n      jump\t// in\n    tag_66:\n        /* \"#utility.yul\":2442:2467   */\n      swap3\n      pop\n        /* \"#utility.yul\":2601:2602   */\n      dup3\n        /* \"#utility.yul\":2533:2599   */\n      0xffffffffffffffffffffffffffffffffffffffffffffffffffffffffffffffff\n        /* \"#utility.yul\":2529:2603   */\n      sub\n        /* \"#utility.yul\":2526:2527   */\n      dup3\n        /* \"#utility.yul\":2523:2604   */\n      gt\n        /* \"#utility.yul\":2520:2627   */\n      iszero\n      tag_67\n      jumpi\n        /* \"#utility.yul\":2607:2625   */\n      tag_68\n      tag_69\n      jump\t// in\n    tag_68:\n        /* \"#utility.yul\":2520:2627   */\n    tag_67:\n        /* \"#utility.yul\":2651:2652   */\n      dup3\n        /* \"#utility.yul\":2648:2649   */\n      dup3\n        /* \"#utility.yul\":2644:2653   */\n      add\n        /* \"#utility.yul\":2637:2653   */\n      swap1\n      pop\n        /* \"#utility.yul\":2354:2659   */\n      swap3\n      swap2\n      pop\n      pop\n      jump\t// out\n        /* \"#utility.yul\":2665:2761   */\n    tag_43:\n        /* \"#utility.yul\":2702:2709   */\n      0x00\n        /* \"#utility.yul\":2731:2755   */\n      tag_71\n        /* \"#utility.yul\":2749:2754   */\n      dup3\n        /* \"#utility.yul\":2731:2755   */\n      tag_72\n      jump\t// in\n    tag_71:\n        /* \"#utility.yul\":2720:2755   */\n      swap1\n      pop\n        /* \"#utility.yul\":2665:2761   */\n      swap2\n      swap1\n      pop\n      jump\t// out\n        /* \"#utility.yul\":2767:2893   */\n    tag_72:\n        /* \"#utility.yul\":2804:2811   */\n      0x00\n        /* \"#utility.yul\":2844:2886   */\n      0xffffffffffffffffffffffffffffffffffffffff\n        /* \"#utility.yul\":2837:2842   */\n      dup3\n        /* \"#utility.yul\":2833:2887   */\n      and\n        /* \"#utility.yul\":2822:2887   */\n      swap1\n      pop\n        /* \"#utility.yul\":2767:2893   */\n      swap2\n      swap1\n      pop\n      jump\t// out\n        /* \"#utility.yul\":2899:2976   */\n    tag_53:\n        /* \"#utility.yul\":2936:2943   */\n      0x00\n        /* \"#utility.yul\":2965:2970   */\n      dup2\n        /* \"#utility.yul\":2954:2970   */\n      swap1\n      pop\n        /* \"#utility.yul\":2899:2976   */\n      swap2\n      swap1\n      pop\n      jump\t// out\n        /* \"#utility.yul\":2982:3162   */\n    tag_69:\n        /* \"#utility.yul\":3030:3107   */\n      0x4e487b7100000000000000000000000000000000000000000000000000000000\n        /* \"#utility.yul\":3027:3028   */\n      0x00\n        /* \"#utility.yul\":3020:3108   */\n      mstore\n        /* \"#utility.yul\":3127:3131   */\n      0x11\n        /* \"#utility.yul\":3124:3125   */\n      0x04\n        /* \"#utility.yul\":3117:3132   */\n      mstore\n        /* \"#utility.yul\":3151:3155   */\n      0x24\n        /* \"#utility.yul\":3148:3149   */\n      0x00\n        /* \"#utility.yul\":3141:3156   */\n      revert\n        /* \"#utility.yul\":3291:3408   */\n    tag_38:\n        /* \"#utility.yul\":3400:3401   */\n      0x00\n        /* \"#utility.yul\":3397:3398   */\n      dup1\n        /* \"#utility.yul\":3390:3402   */\n      revert\n        /* \"#utility.yul\":3414:3583   */\n    tag_49:\n        /* \"#utility.yul\":3554:3575   */\n      0x4e657720546f74616c20537570706c79203d2000000000000000000000000000\n        /* \"#utility.yul\":3550:3551   */\n      0x00\n        /* \"#utility.yul\":3542:3548   */\n      dup3\n        /* \"#utility.yul\":3538:3552   */\n      add\n        /* \"#utility.yul\":3531:3576   */\n      mstore\n        /* \"#utility.yul\":3414:3583   */\n      pop\n      jump\t// out\n        /* \"#utility.yul\":3589:3711   */\n    tag_34:\n        /* \"#utility.yul\":3662:3686   */\n      tag_81\n        /* \"#utility.yul\":3680:3685   */\n      dup2\n        /* \"#utility.yul\":3662:3686   */\n      tag_43\n      jump\t// in\n    tag_81:\n        /* \"#utility.yul\":3655:3660   */\n      dup2\n        /* \"#utility.yul\":3652:3687   */\n      eq\n        /* \"#utility.yul\":3642:3705   */\n      tag_82\n      jumpi\n        /* \"#utility.yul\":3701:3702   */\n      0x00\n        /* \"#utility.yul\":3698:3699   */\n      dup1\n        /* \"#utility.yul\":3691:3703   */\n      revert\n        /* \"#utility.yul\":3642:3705   */\n    tag_82:\n        /* \"#utility.yul\":3589:3711   */\n      pop\n      jump\t// out\n\n    auxdata: 0xa26469706673582212209eebacab8878858489c94c793ae1b7ccf0bed041b0296fdd386532d510e1c13964736f6c63430008070033\n}\n",
				"bytecode": {
					"linkReferences": {},
					"object": "608060405261271060005534801561001657600080fd5b5033600160006101000a81548173ffffffffffffffffffffffffffffffffffffffff021916908373ffffffffffffffffffffffffffffffffffffffff16021790555060036000600160009054906101000a900473ffffffffffffffffffffffffffffffffffffffff1673ffffffffffffffffffffffffffffffffffffffff1673ffffffffffffffffffffffffffffffffffffffff1681526020019081526020016000205061041c806100c96000396000f3fe608060405234801561001057600080fd5b506004361061004c5760003560e01c806347734892146100515780638da5cb5b14610081578063902d55a51461009f578063de0f2be1146100bd575b600080fd5b61006b600480360381019061006691906101fd565b6100c7565b60405161007891906102b4565b60405180910390f35b610089610110565b604051610096919061026b565b60405180910390f35b6100a7610136565b6040516100b491906102b4565b60405180910390f35b6100c561013c565b005b6000600360008373ffffffffffffffffffffffffffffffffffffffff1673ffffffffffffffffffffffffffffffffffffffff168152602001908152602001600020549050919050565b600160009054906101000a900473ffffffffffffffffffffffffffffffffffffffff1681565b60005481565b600160009054906101000a900473ffffffffffffffffffffffffffffffffffffffff1673ffffffffffffffffffffffffffffffffffffffff163373ffffffffffffffffffffffffffffffffffffffff1614156101e6576103e86000808282546101a591906102e0565b925050819055507fb1b0d26955e375136ca55bac4ef6b90b41a617dc655cca6436931ba3a836e7696000546040516101dd9190610286565b60405180910390a15b565b6000813590506101f7816103cf565b92915050565b600060208284031215610213576102126103a1565b5b6000610221848285016101e8565b91505092915050565b61023381610336565b82525050565b60006102466013836102cf565b9150610251826103a6565b602082019050919050565b61026581610368565b82525050565b6000602082019050610280600083018461022a565b92915050565b6000604082019050818103600083015261029f81610239565b90506102ae602083018461025c565b92915050565b60006020820190506102c9600083018461025c565b92915050565b600082825260208201905092915050565b60006102eb82610368565b91506102f683610368565b9250827fffffffffffffffffffffffffffffffffffffffffffffffffffffffffffffffff0382111561032b5761032a610372565b5b828201905092915050565b600061034182610348565b9050919050565b600073ffffffffffffffffffffffffffffffffffffffff82169050919050565b6000819050919050565b7f4e487b7100000000000000000000000000000000000000000000000000000000600052601160045260246000fd5b600080fd5b7f4e657720546f74616c20537570706c79203d2000000000000000000000000000600082015250565b6103d881610336565b81146103e357600080fd5b5056fea26469706673582212209eebacab8878858489c94c793ae1b7ccf0bed041b0296fdd386532d510e1c13964736f6c63430008070033",
					"opcodes": "PUSH1 0x80 PUSH1 0x40 MSTORE PUSH2 0x2710 PUSH1 0x0 SSTORE CALLVALUE DUP1 ISZERO PUSH2 0x16 JUMPI PUSH1 0x0 DUP1 REVERT JUMPDEST POP CALLER PUSH1 0x1 PUSH1 0x0 PUSH2 0x100 EXP DUP2 SLOAD DUP2 PUSH20 0xFFFFFFFFFFFFFFFFFFFFFFFFFFFFFFFFFFFFFFFF MUL NOT AND SWAP1 DUP4 PUSH20 0xFFFFFFFFFFFFFFFFFFFFFFFFFFFFFFFFFFFFFFFF AND MUL OR SWAP1 SSTORE POP PUSH1 0x3 PUSH1 0x0 PUSH1 0x1 PUSH1 0x0 SWAP1 SLOAD SWAP1 PUSH2 0x100 EXP SWAP1 DIV PUSH20 0xFFFFFFFFFFFFFFFFFFFFFFFFFFFFFFFFFFFFFFFF AND PUSH20 0xFFFFFFFFFFFFFFFFFFFFFFFFFFFFFFFFFFFFFFFF AND PUSH20 0xFFFFFFFFFFFFFFFFFFFFFFFFFFFFFFFFFFFFFFFF AND DUP2 MSTORE PUSH1 0x20 ADD SWAP1 DUP2 MSTORE PUSH1 0x20 ADD PUSH1 0x0 KECCAK256 POP PUSH2 0x41C DUP1 PUSH2 0xC9 PUSH1 0x0 CODECOPY PUSH1 0x0 RETURN INVALID PUSH1 0x80 PUSH1 0x40 MSTORE CALLVALUE DUP1 ISZERO PUSH2 0x10 JUMPI PUSH1 0x0 DUP1 REVERT JUMPDEST POP PUSH1 0x4 CALLDATASIZE LT PUSH2 0x4C JUMPI PUSH1 0x0 CALLDATALOAD PUSH1 0xE0 SHR DUP1 PUSH4 0x47734892 EQ PUSH2 0x51 JUMPI DUP1 PUSH4 0x8DA5CB5B EQ PUSH2 0x81 JUMPI DUP1 PUSH4 0x902D55A5 EQ PUSH2 0x9F JUMPI DUP1 PUSH4 0xDE0F2BE1 EQ PUSH2 0xBD JUMPI JUMPDEST PUSH1 0x0 DUP1 REVERT JUMPDEST PUSH2 0x6B PUSH1 0x4 DUP1 CALLDATASIZE SUB DUP2 ADD SWAP1 PUSH2 0x66 SWAP2 SWAP1 PUSH2 0x1FD JUMP JUMPDEST PUSH2 0xC7 JUMP JUMPDEST PUSH1 0x40 MLOAD PUSH2 0x78 SWAP2 SWAP1 PUSH2 0x2B4 JUMP JUMPDEST PUSH1 0x40 MLOAD DUP1 SWAP2 SUB SWAP1 RETURN JUMPDEST PUSH2 0x89 PUSH2 0x110 JUMP JUMPDEST PUSH1 0x40 MLOAD PUSH2 0x96 SWAP2 SWAP1 PUSH2 0x26B JUMP JUMPDEST PUSH1 0x40 MLOAD DUP1 SWAP2 SUB SWAP1 RETURN JUMPDEST PUSH2 0xA7 PUSH2 0x136 JUMP JUMPDEST PUSH1 0x40 MLOAD PUSH2 0xB4 SWAP2 SWAP1 PUSH2 0x2B4 JUMP JUMPDEST PUSH1 0x40 MLOAD DUP1 SWAP2 SUB SWAP1 RETURN JUMPDEST PUSH2 0xC5 PUSH2 0x13C JUMP JUMPDEST STOP JUMPDEST PUSH1 0x0 PUSH1 0x3 PUSH1 0x0 DUP4 PUSH20 0xFFFFFFFFFFFFFFFFFFFFFFFFFFFFFFFFFFFFFFFF AND PUSH20 0xFFFFFFFFFFFFFFFFFFFFFFFFFFFFFFFFFFFFFFFF AND DUP2 MSTORE PUSH1 0x20 ADD SWAP1 DUP2 MSTORE PUSH1 0x20 ADD PUSH1 0x0 KECCAK256 SLOAD SWAP1 POP SWAP2 SWAP1 POP JUMP JUMPDEST PUSH1 0x1 PUSH1 0x0 SWAP1 SLOAD SWAP1 PUSH2 0x100 EXP SWAP1 DIV PUSH20 0xFFFFFFFFFFFFFFFFFFFFFFFFFFFFFFFFFFFFFFFF AND DUP2 JUMP JUMPDEST PUSH1 0x0 SLOAD DUP2 JUMP JUMPDEST PUSH1 0x1 PUSH1 0x0 SWAP1 SLOAD SWAP1 PUSH2 0x100 EXP SWAP1 DIV PUSH20 0xFFFFFFFFFFFFFFFFFFFFFFFFFFFFFFFFFFFFFFFF AND PUSH20 0xFFFFFFFFFFFFFFFFFFFFFFFFFFFFFFFFFFFFFFFF AND CALLER PUSH20 0xFFFFFFFFFFFFFFFFFFFFFFFFFFFFFFFFFFFFFFFF AND EQ ISZERO PUSH2 0x1E6 JUMPI PUSH2 0x3E8 PUSH1 0x0 DUP1 DUP3 DUP3 SLOAD PUSH2 0x1A5 SWAP2 SWAP1 PUSH2 0x2E0 JUMP JUMPDEST SWAP3 POP POP DUP2 SWAP1 SSTORE POP PUSH32 0xB1B0D26955E375136CA55BAC4EF6B90B41A617DC655CCA6436931BA3A836E769 PUSH1 0x0 SLOAD PUSH1 0x40 MLOAD PUSH2 0x1DD SWAP2 SWAP1 PUSH2 0x286 JUMP JUMPDEST PUSH1 0x40 MLOAD DUP1 SWAP2 SUB SWAP1 LOG1 JUMPDEST JUMP JUMPDEST PUSH1 0x0 DUP2 CALLDATALOAD SWAP1 POP PUSH2 0x1F7 DUP2 PUSH2 0x3CF JUMP JUMPDEST SWAP3 SWAP2 POP POP JUMP JUMPDEST PUSH1 0x0 PUSH1 0x20 DUP3 DUP5 SUB SLT ISZERO PUSH2 0x213 JUMPI PUSH2 0x212 PUSH2 0x3A1 JUMP JUMPDEST JUMPDEST PUSH1 0x0 PUSH2 0x221 DUP5 DUP3 DUP6 ADD PUSH2 0x1E8 JUMP JUMPDEST SWAP2 POP POP SWAP3 SWAP2 POP POP JUMP JUMPDEST PUSH2 0x233 DUP2 PUSH2 0x336 JUMP JUMPDEST DUP3 MSTORE POP POP JUMP JUMPDEST PUSH1 0x0 PUSH2 0x246 PUSH1 0x13 DUP4 PUSH2 0x2CF JUMP JUMPDEST SWAP2 POP PUSH2 0x251 DUP3 PUSH2 0x3A6 JUMP JUMPDEST PUSH1 0x20 DUP3 ADD SWAP1 POP SWAP2 SWAP1 POP JUMP JUMPDEST PUSH2 0x265 DUP2 PUSH2 0x368 JUMP JUMPDEST DUP3 MSTORE POP POP JUMP JUMPDEST PUSH1 0x0 PUSH1 0x20 DUP3 ADD SWAP1 POP PUSH2 0x280 PUSH1 0x0 DUP4 ADD DUP5 PUSH2 0x22A JUMP JUMPDEST SWAP3 SWAP2 POP POP JUMP JUMPDEST PUSH1 0x0 PUSH1 0x40 DUP3 ADD SWAP1 POP DUP2 DUP2 SUB PUSH1 0x0 DUP4 ADD MSTORE PUSH2 0x29F DUP2 PUSH2 0x239 JUMP JUMPDEST SWAP1 POP PUSH2 0x2AE PUSH1 0x20 DUP4 ADD DUP5 PUSH2 0x25C JUMP JUMPDEST SWAP3 SWAP2 POP POP JUMP JUMPDEST PUSH1 0x0 PUSH1 0x20 DUP3 ADD SWAP1 POP PUSH2 0x2C9 PUSH1 0x0 DUP4 ADD DUP5 PUSH2 0x25C JUMP JUMPDEST SWAP3 SWAP2 POP POP JUMP JUMPDEST PUSH1 0x0 DUP3 DUP3 MSTORE PUSH1 0x20 DUP3 ADD SWAP1 POP SWAP3 SWAP2 POP POP JUMP JUMPDEST PUSH1 0x0 PUSH2 0x2EB DUP3 PUSH2 0x368 JUMP JUMPDEST SWAP2 POP PUSH2 0x2F6 DUP4 PUSH2 0x368 JUMP JUMPDEST SWAP3 POP DUP3 PUSH32 0xFFFFFFFFFFFFFFFFFFFFFFFFFFFFFFFFFFFFFFFFFFFFFFFFFFFFFFFFFFFFFFFF SUB DUP3 GT ISZERO PUSH2 0x32B JUMPI PUSH2 0x32A PUSH2 0x372 JUMP JUMPDEST JUMPDEST DUP3 DUP3 ADD SWAP1 POP SWAP3 SWAP2 POP POP JUMP JUMPDEST PUSH1 0x0 PUSH2 0x341 DUP3 PUSH2 0x348 JUMP JUMPDEST SWAP1 POP SWAP2 SWAP1 POP JUMP JUMPDEST PUSH1 0x0 PUSH20 0xFFFFFFFFFFFFFFFFFFFFFFFFFFFFFFFFFFFFFFFF DUP3 AND SWAP1 POP SWAP2 SWAP1 POP JUMP JUMPDEST PUSH1 0x0 DUP2 SWAP1 POP SWAP2 SWAP1 POP JUMP JUMPDEST PUSH32 0x4E487B7100000000000000000000000000000000000000000000000000000000 PUSH1 0x0 MSTORE PUSH1 0x11 PUSH1 0x4 MSTORE PUSH1 0x24 PUSH1 0x0 REVERT JUMPDEST PUSH1 0x0 DUP1 REVERT JUMPDEST PUSH32 0x4E657720546F74616C20537570706C79203D2000000000000000000000000000 PUSH1 0x0 DUP3 ADD MSTORE POP JUMP JUMPDEST PUSH2 0x3D8 DUP2 PUSH2 0x336 JUMP JUMPDEST DUP2 EQ PUSH2 0x3E3 JUMPI PUSH1 0x0 DUP1 REVERT JUMPDEST POP JUMP INVALID LOG2 PUSH5 0x6970667358 0x22 SLT KECCAK256 SWAP15 0xEB 0xAC 0xAB DUP9 PUSH25 0x858489C94C793AE1B7CCF0BED041B0296FDD386532D510E1C1 CODECOPY PUSH5 0x736F6C6343 STOP ADDMOD SMOD STOP CALLER "
				},
				"gasEstimates": {
					"creation": {
						"codeDepositCost": "210400",
						"executionCost": "48854",
						"totalCost": "259254"
					},
					"external": {
						"TOTAL_SUPPLY()": "2451",
						"getUserBalance(address)": "2819",
						"increaseTotalSupply()": "infinite",
						"owner()": "2514"
					}
				},
				"methodIdentifiers": {
					"TOTAL_SUPPLY()": "902d55a5",
					"getUserBalance(address)": "47734892",
					"increaseTotalSupply()": "de0f2be1",
					"owner()": "8da5cb5b"
				}
			},
			"storageLayout": {
				"storage": [
					{
						"astId": 4,
						"contract": "contracts/ethdenver_lessons/D4/VolcanoCoin.sol:VolcanoCoin",
						"label": "TOTAL_SUPPLY",
						"offset": 0,
						"slot": "0",
						"type": "t_uint256"
					},
					{
						"astId": 6,
						"contract": "contracts/ethdenver_lessons/D4/VolcanoCoin.sol:VolcanoCoin",
						"label": "owner",
						"offset": 0,
						"slot": "1",
						"type": "t_address"
					},
					{
						"astId": 14,
						"contract": "contracts/ethdenver_lessons/D4/VolcanoCoin.sol:VolcanoCoin",
						"label": "balances",
						"offset": 0,
						"slot": "2",
						"type": "t_uint256"
					},
					{
						"astId": 56,
						"contract": "contracts/ethdenver_lessons/D4/VolcanoCoin.sol:VolcanoCoin",
						"label": "balancePerAddress",
						"offset": 0,
						"slot": "3",
						"type": "t_mapping(t_address,t_uint256)"
					}
				],
				"types": {
					"t_address": {
						"encoding": "inplace",
						"label": "address",
						"numberOfBytes": "20"
					},
					"t_mapping(t_address,t_uint256)": {
						"encoding": "mapping",
						"key": "t_address",
						"label": "mapping(address => uint256)",
						"numberOfBytes": "32",
						"value": "t_uint256"
					},
					"t_uint256": {
						"encoding": "inplace",
						"label": "uint256",
						"numberOfBytes": "32"
					}
				}
			},
			"userdoc": {
				"kind": "user",
				"methods": {},
				"version": 1
			}
		}
	}
}