{
  "_format": "hh-sol-artifact-1",
  "contractName": "VolcanoCoin",
  "sourceName": "contracts/ethdenver_lessons/D7/VulcanoCoin.sol",
  "abi": [
    {
      "inputs": [],
      "stateMutability": "nonpayable",
      "type": "constructor"
    },
    {
      "anonymous": false,
      "inputs": [
        {
          "indexed": true,
          "internalType": "address",
          "name": "previousOwner",
          "type": "address"
        },
        {
          "indexed": true,
          "internalType": "address",
          "name": "newOwner",
          "type": "address"
        }
      ],
      "name": "OwnershipTransferred",
      "type": "event"
    },
    {
      "anonymous": false,
      "inputs": [
        {
          "indexed": false,
          "internalType": "string",
          "name": "",
          "type": "string"
        },
        {
          "indexed": false,
          "internalType": "uint256",
          "name": "",
          "type": "uint256"
        }
      ],
      "name": "eventTotalSupplyChanged",
      "type": "event"
    },
    {
      "anonymous": false,
      "inputs": [
        {
          "indexed": false,
          "internalType": "string",
          "name": "",
          "type": "string"
        },
        {
          "indexed": false,
          "internalType": "uint256",
          "name": "",
          "type": "uint256"
        }
      ],
      "name": "eventTransfer",
      "type": "event"
    },
    {
      "inputs": [],
      "name": "TOTAL_SUPPLY",
      "outputs": [
        {
          "internalType": "uint256",
          "name": "",
          "type": "uint256"
        }
      ],
      "stateMutability": "view",
      "type": "function"
    },
    {
      "inputs": [
        {
          "internalType": "address",
          "name": "_user",
          "type": "address"
        }
      ],
      "name": "getUserBalance",
      "outputs": [
        {
          "internalType": "uint256",
          "name": "",
          "type": "uint256"
        }
      ],
      "stateMutability": "view",
      "type": "function"
    },
    {
      "inputs": [
        {
          "internalType": "address",
          "name": "_user",
          "type": "address"
        }
      ],
      "name": "getUserPayment",
      "outputs": [
        {
          "components": [
            {
              "internalType": "address",
              "name": "to",
              "type": "address"
            },
            {
              "internalType": "uint256",
              "name": "amount",
              "type": "uint256"
            }
          ],
          "internalType": "struct VolcanoCoin.Payment[]",
          "name": "",
          "type": "tuple[]"
        }
      ],
      "stateMutability": "view",
      "type": "function"
    },
    {
      "inputs": [],
      "name": "increaseTotalSupply",
      "outputs": [],
      "stateMutability": "nonpayable",
      "type": "function"
    },
    {
      "inputs": [],
      "name": "owner",
      "outputs": [
        {
          "internalType": "address",
          "name": "",
          "type": "address"
        }
      ],
      "stateMutability": "view",
      "type": "function"
    },
    {
      "inputs": [],
      "name": "renounceOwnership",
      "outputs": [],
      "stateMutability": "nonpayable",
      "type": "function"
    },
    {
      "inputs": [
        {
          "internalType": "address",
          "name": "_to",
          "type": "address"
        },
        {
          "internalType": "uint256",
          "name": "_amount",
          "type": "uint256"
        }
      ],
      "name": "transfer",
      "outputs": [],
      "stateMutability": "nonpayable",
      "type": "function"
    },
    {
      "inputs": [
        {
          "internalType": "address",
          "name": "newOwner",
          "type": "address"
        }
      ],
      "name": "transferOwnership",
      "outputs": [],
      "stateMutability": "nonpayable",
      "type": "function"
    }
  ],
  "bytecode": "0x608060405261271060015534801561001657600080fd5b5061003361002861007e60201b60201c565b61008660201b60201c565b600154600260003373ffffffffffffffffffffffffffffffffffffffff1673ffffffffffffffffffffffffffffffffffffffff1681526020019081526020016000208190555061014a565b600033905090565b60008060009054906101000a900473ffffffffffffffffffffffffffffffffffffffff169050816000806101000a81548173ffffffffffffffffffffffffffffffffffffffff021916908373ffffffffffffffffffffffffffffffffffffffff1602179055508173ffffffffffffffffffffffffffffffffffffffff168173ffffffffffffffffffffffffffffffffffffffff167f8be0079c531659141344cd1fd0a4f28419497f9722a3daafe3b4186f6b6457e060405160405180910390a35050565b610e38806101596000396000f3fe608060405234801561001057600080fd5b50600436106100885760003560e01c8063902d55a51161005b578063902d55a514610115578063a9059cbb14610133578063de0f2be11461014f578063f2fde38b1461015957610088565b806334aac9961461008d57806347734892146100bd578063715018a6146100ed5780638da5cb5b146100f7575b600080fd5b6100a760048036038101906100a2919061082f565b610175565b6040516100b49190610962565b60405180910390f35b6100d760048036038101906100d2919061082f565b610273565b6040516100e49190610993565b60405180910390f35b6100f56102bc565b005b6100ff6102d0565b60405161010c91906109bd565b60405180910390f35b61011d6102f9565b60405161012a9190610993565b60405180910390f35b61014d60048036038101906101489190610a04565b6102ff565b005b6101576104b6565b005b610173600480360381019061016e919061082f565b610514565b005b6060600360008373ffffffffffffffffffffffffffffffffffffffff1673ffffffffffffffffffffffffffffffffffffffff168152602001908152602001600020805480602002602001604051908101604052809291908181526020016000905b8282101561026857838290600052602060002090600202016040518060400160405290816000820160009054906101000a900473ffffffffffffffffffffffffffffffffffffffff1673ffffffffffffffffffffffffffffffffffffffff1673ffffffffffffffffffffffffffffffffffffffff168152602001600182015481525050815260200190600101906101d6565b505050509050919050565b6000600260008373ffffffffffffffffffffffffffffffffffffffff1673ffffffffffffffffffffffffffffffffffffffff168152602001908152602001600020549050919050565b6102c4610597565b6102ce6000610615565b565b60008060009054906101000a900473ffffffffffffffffffffffffffffffffffffffff16905090565b60015481565b80600260003373ffffffffffffffffffffffffffffffffffffffff1673ffffffffffffffffffffffffffffffffffffffff168152602001908152602001600020541015610381576040517f08c379a000000000000000000000000000000000000000000000000000000000815260040161037890610ac7565b60405180910390fd5b600081116103c4576040517f08c379a00000000000000000000000000000000000000000000000000000000081526004016103bb90610b59565b60405180910390fd5b80600260003373ffffffffffffffffffffffffffffffffffffffff1673ffffffffffffffffffffffffffffffffffffffff16815260200190815260200160002060008282546104139190610ba8565b9250508190555080600260008473ffffffffffffffffffffffffffffffffffffffff1673ffffffffffffffffffffffffffffffffffffffff16815260200190815260200160002060008282546104699190610bdc565b9250508190555061047b3383836106d9565b7f5a2050e3f02d2781f60eea7b6796becb3dd7507e14fce659f8f395d1bcce5fc9816040516104aa9190610c5c565b60405180910390a15050565b6104be610597565b6103e8600160008282546104d29190610bdc565b925050819055507f36a6bfb04e36ebe40c1792d122008a16ba8db271eec24c015129bf170ffb448460015460405161050a9190610cd6565b60405180910390a1565b61051c610597565b600073ffffffffffffffffffffffffffffffffffffffff168173ffffffffffffffffffffffffffffffffffffffff160361058b576040517f08c379a000000000000000000000000000000000000000000000000000000000815260040161058290610d76565b60405180910390fd5b61059481610615565b50565b61059f6107c4565b73ffffffffffffffffffffffffffffffffffffffff166105bd6102d0565b73ffffffffffffffffffffffffffffffffffffffff1614610613576040517f08c379a000000000000000000000000000000000000000000000000000000000815260040161060a90610de2565b60405180910390fd5b565b60008060009054906101000a900473ffffffffffffffffffffffffffffffffffffffff169050816000806101000a81548173ffffffffffffffffffffffffffffffffffffffff021916908373ffffffffffffffffffffffffffffffffffffffff1602179055508173ffffffffffffffffffffffffffffffffffffffff168173ffffffffffffffffffffffffffffffffffffffff167f8be0079c531659141344cd1fd0a4f28419497f9722a3daafe3b4186f6b6457e060405160405180910390a35050565b600360008473ffffffffffffffffffffffffffffffffffffffff1673ffffffffffffffffffffffffffffffffffffffff16815260200190815260200160002060405180604001604052808473ffffffffffffffffffffffffffffffffffffffff16815260200183815250908060018154018082558091505060019003906000526020600020906002020160009091909190915060008201518160000160006101000a81548173ffffffffffffffffffffffffffffffffffffffff021916908373ffffffffffffffffffffffffffffffffffffffff160217905550602082015181600101555050505050565b600033905090565b600080fd5b600073ffffffffffffffffffffffffffffffffffffffff82169050919050565b60006107fc826107d1565b9050919050565b61080c816107f1565b811461081757600080fd5b50565b60008135905061082981610803565b92915050565b600060208284031215610845576108446107cc565b5b60006108538482850161081a565b91505092915050565b600081519050919050565b600082825260208201905092915050565b6000819050602082019050919050565b610891816107f1565b82525050565b6000819050919050565b6108aa81610897565b82525050565b6040820160008201516108c66000850182610888565b5060208201516108d960208501826108a1565b50505050565b60006108eb83836108b0565b60408301905092915050565b6000602082019050919050565b600061090f8261085c565b6109198185610867565b935061092483610878565b8060005b8381101561095557815161093c88826108df565b9750610947836108f7565b925050600181019050610928565b5085935050505092915050565b6000602082019050818103600083015261097c8184610904565b905092915050565b61098d81610897565b82525050565b60006020820190506109a86000830184610984565b92915050565b6109b7816107f1565b82525050565b60006020820190506109d260008301846109ae565b92915050565b6109e181610897565b81146109ec57600080fd5b50565b6000813590506109fe816109d8565b92915050565b60008060408385031215610a1b57610a1a6107cc565b5b6000610a298582860161081a565b9250506020610a3a858286016109ef565b9150509250929050565b600082825260208201905092915050565b7f4e6f7420656e6f7567682062616c616e636520746f206578656375746520796f60008201527f7572207472616e736665722e0000000000000000000000000000000000000000602082015250565b6000610ab1602c83610a44565b9150610abc82610a55565b604082019050919050565b60006020820190508181036000830152610ae081610aa4565b9050919050565b7f7472616e7366657220616d6f756e74206d75737420626520677265617465722060008201527f7468616e20300000000000000000000000000000000000000000000000000000602082015250565b6000610b43602683610a44565b9150610b4e82610ae7565b604082019050919050565b60006020820190508181036000830152610b7281610b36565b9050919050565b7f4e487b7100000000000000000000000000000000000000000000000000000000600052601160045260246000fd5b6000610bb382610897565b9150610bbe83610897565b9250828203905081811115610bd657610bd5610b79565b5b92915050565b6000610be782610897565b9150610bf283610897565b9250828201905080821115610c0a57610c09610b79565b5b92915050565b7f416d6f756e74207472616e736665726564203d20000000000000000000000000600082015250565b6000610c46601483610a44565b9150610c5182610c10565b602082019050919050565b60006040820190508181036000830152610c7581610c39565b9050610c846020830184610984565b92915050565b7f4e657720546f74616c20537570706c79203d2000000000000000000000000000600082015250565b6000610cc0601383610a44565b9150610ccb82610c8a565b602082019050919050565b60006040820190508181036000830152610cef81610cb3565b9050610cfe6020830184610984565b92915050565b7f4f776e61626c653a206e6577206f776e657220697320746865207a65726f206160008201527f6464726573730000000000000000000000000000000000000000000000000000602082015250565b6000610d60602683610a44565b9150610d6b82610d04565b604082019050919050565b60006020820190508181036000830152610d8f81610d53565b9050919050565b7f4f776e61626c653a2063616c6c6572206973206e6f7420746865206f776e6572600082015250565b6000610dcc602083610a44565b9150610dd782610d96565b602082019050919050565b60006020820190508181036000830152610dfb81610dbf565b905091905056fea2646970667358221220783be4420bcbf8ae0d95b72f3d5064a0e836cfe10b047036776e3950687e198664736f6c63430008110033",
  "linkReferences": {},
  "deployedLinkReferences": {}
}