{
  "_format": "hh-sol-artifact-1",
  "contractName": "VolcanoCoin",
  "sourceName": "contracts/ethdenver_lessons/D7/VulcanoCoin.sol",
  "abi": [
    {
      "inputs": [],
      "stateMutability": "nonpayable",
      "type": "constructor"
    },
    {
      "anonymous": false,
      "inputs": [
        {
          "indexed": true,
          "internalType": "address",
          "name": "previousOwner",
          "type": "address"
        },
        {
          "indexed": true,
          "internalType": "address",
          "name": "newOwner",
          "type": "address"
        }
      ],
      "name": "OwnershipTransferred",
      "type": "event"
    },
    {
      "anonymous": false,
      "inputs": [
        {
          "indexed": false,
          "internalType": "string",
          "name": "",
          "type": "string"
        },
        {
          "indexed": false,
          "internalType": "uint256",
          "name": "",
          "type": "uint256"
        }
      ],
      "name": "eventTotalSupplyChanged",
      "type": "event"
    },
    {
      "anonymous": false,
      "inputs": [
        {
          "indexed": false,
          "internalType": "string",
          "name": "",
          "type": "string"
        },
        {
          "indexed": false,
          "internalType": "uint256",
          "name": "",
          "type": "uint256"
        }
      ],
      "name": "eventTransfer",
      "type": "event"
    },
    {
      "inputs": [],
      "name": "TOTAL_SUPPLY",
      "outputs": [
        {
          "internalType": "uint256",
          "name": "",
          "type": "uint256"
        }
      ],
      "stateMutability": "view",
      "type": "function"
    },
    {
      "inputs": [
        {
          "internalType": "address",
          "name": "_user",
          "type": "address"
        }
      ],
      "name": "getUserBalance",
      "outputs": [
        {
          "internalType": "uint256",
          "name": "",
          "type": "uint256"
        }
      ],
      "stateMutability": "view",
      "type": "function"
    },
    {
      "inputs": [
        {
          "internalType": "address",
          "name": "_user",
          "type": "address"
        }
      ],
      "name": "getUserPayment",
      "outputs": [
        {
          "components": [
            {
              "internalType": "address",
              "name": "to",
              "type": "address"
            },
            {
              "internalType": "uint256",
              "name": "amount",
              "type": "uint256"
            }
          ],
          "internalType": "struct VolcanoCoin.Payment[]",
          "name": "",
          "type": "tuple[]"
        }
      ],
      "stateMutability": "view",
      "type": "function"
    },
    {
      "inputs": [],
      "name": "increaseTotalSupply",
      "outputs": [],
      "stateMutability": "nonpayable",
      "type": "function"
    },
    {
      "inputs": [],
      "name": "owner",
      "outputs": [
        {
          "internalType": "address",
          "name": "",
          "type": "address"
        }
      ],
      "stateMutability": "view",
      "type": "function"
    },
    {
      "inputs": [],
      "name": "renounceOwnership",
      "outputs": [],
      "stateMutability": "nonpayable",
      "type": "function"
    },
    {
      "inputs": [
        {
          "internalType": "address",
          "name": "_to",
          "type": "address"
        },
        {
          "internalType": "uint256",
          "name": "_amount",
          "type": "uint256"
        }
      ],
      "name": "transfer",
      "outputs": [],
      "stateMutability": "nonpayable",
      "type": "function"
    },
    {
      "inputs": [
        {
          "internalType": "address",
          "name": "newOwner",
          "type": "address"
        }
      ],
      "name": "transferOwnership",
      "outputs": [],
      "stateMutability": "nonpayable",
      "type": "function"
    }
  ],
  "bytecode": "0x608060405261271060015534801561001657600080fd5b5061003361002861007e60201b60201c565b61008660201b60201c565b600154600260003373ffffffffffffffffffffffffffffffffffffffff1673ffffffffffffffffffffffffffffffffffffffff1681526020019081526020016000208190555061014a565b600033905090565b60008060009054906101000a900473ffffffffffffffffffffffffffffffffffffffff169050816000806101000a81548173ffffffffffffffffffffffffffffffffffffffff021916908373ffffffffffffffffffffffffffffffffffffffff1602179055508173ffffffffffffffffffffffffffffffffffffffff168173ffffffffffffffffffffffffffffffffffffffff167f8be0079c531659141344cd1fd0a4f28419497f9722a3daafe3b4186f6b6457e060405160405180910390a35050565b610e5b806101596000396000f3fe608060405234801561001057600080fd5b50600436106100885760003560e01c8063902d55a51161005b578063902d55a514610115578063a9059cbb14610133578063de0f2be11461014f578063f2fde38b1461015957610088565b806334aac9961461008d57806347734892146100bd578063715018a6146100ed5780638da5cb5b146100f7575b600080fd5b6100a760048036038101906100a29190610830565b610175565b6040516100b49190610963565b60405180910390f35b6100d760048036038101906100d29190610830565b610273565b6040516100e49190610994565b60405180910390f35b6100f56102bc565b005b6100ff6102d0565b60405161010c91906109be565b60405180910390f35b61011d6102f9565b60405161012a9190610994565b60405180910390f35b61014d60048036038101906101489190610a05565b6102ff565b005b6101576104b6565b005b610173600480360381019061016e9190610830565b610514565b005b6060600360008373ffffffffffffffffffffffffffffffffffffffff1673ffffffffffffffffffffffffffffffffffffffff168152602001908152602001600020805480602002602001604051908101604052809291908181526020016000905b8282101561026857838290600052602060002090600202016040518060400160405290816000820160009054906101000a900473ffffffffffffffffffffffffffffffffffffffff1673ffffffffffffffffffffffffffffffffffffffff1673ffffffffffffffffffffffffffffffffffffffff168152602001600182015481525050815260200190600101906101d6565b505050509050919050565b6000600260008373ffffffffffffffffffffffffffffffffffffffff1673ffffffffffffffffffffffffffffffffffffffff168152602001908152602001600020549050919050565b6102c4610598565b6102ce6000610616565b565b60008060009054906101000a900473ffffffffffffffffffffffffffffffffffffffff16905090565b60015481565b80600260003373ffffffffffffffffffffffffffffffffffffffff1673ffffffffffffffffffffffffffffffffffffffff168152602001908152602001600020541015610381576040517f08c379a000000000000000000000000000000000000000000000000000000000815260040161037890610ac8565b60405180910390fd5b600081116103c4576040517f08c379a00000000000000000000000000000000000000000000000000000000081526004016103bb90610b5a565b60405180910390fd5b80600260003373ffffffffffffffffffffffffffffffffffffffff1673ffffffffffffffffffffffffffffffffffffffff16815260200190815260200160002060008282546104139190610ba9565b9250508190555080600260008473ffffffffffffffffffffffffffffffffffffffff1673ffffffffffffffffffffffffffffffffffffffff16815260200190815260200160002060008282546104699190610bdd565b9250508190555061047b3383836106da565b7f5a2050e3f02d2781f60eea7b6796becb3dd7507e14fce659f8f395d1bcce5fc9816040516104aa9190610c7f565b60405180910390a15050565b6104be610598565b6103e8600160008282546104d29190610bdd565b925050819055507f36a6bfb04e36ebe40c1792d122008a16ba8db271eec24c015129bf170ffb448460015460405161050a9190610cf9565b60405180910390a1565b61051c610598565b600073ffffffffffffffffffffffffffffffffffffffff168173ffffffffffffffffffffffffffffffffffffffff16141561058c576040517f08c379a000000000000000000000000000000000000000000000000000000000815260040161058390610d99565b60405180910390fd5b61059581610616565b50565b6105a06107c5565b73ffffffffffffffffffffffffffffffffffffffff166105be6102d0565b73ffffffffffffffffffffffffffffffffffffffff1614610614576040517f08c379a000000000000000000000000000000000000000000000000000000000815260040161060b90610e05565b60405180910390fd5b565b60008060009054906101000a900473ffffffffffffffffffffffffffffffffffffffff169050816000806101000a81548173ffffffffffffffffffffffffffffffffffffffff021916908373ffffffffffffffffffffffffffffffffffffffff1602179055508173ffffffffffffffffffffffffffffffffffffffff168173ffffffffffffffffffffffffffffffffffffffff167f8be0079c531659141344cd1fd0a4f28419497f9722a3daafe3b4186f6b6457e060405160405180910390a35050565b600360008473ffffffffffffffffffffffffffffffffffffffff1673ffffffffffffffffffffffffffffffffffffffff16815260200190815260200160002060405180604001604052808473ffffffffffffffffffffffffffffffffffffffff16815260200183815250908060018154018082558091505060019003906000526020600020906002020160009091909190915060008201518160000160006101000a81548173ffffffffffffffffffffffffffffffffffffffff021916908373ffffffffffffffffffffffffffffffffffffffff160217905550602082015181600101555050505050565b600033905090565b600080fd5b600073ffffffffffffffffffffffffffffffffffffffff82169050919050565b60006107fd826107d2565b9050919050565b61080d816107f2565b811461081857600080fd5b50565b60008135905061082a81610804565b92915050565b600060208284031215610846576108456107cd565b5b60006108548482850161081b565b91505092915050565b600081519050919050565b600082825260208201905092915050565b6000819050602082019050919050565b610892816107f2565b82525050565b6000819050919050565b6108ab81610898565b82525050565b6040820160008201516108c76000850182610889565b5060208201516108da60208501826108a2565b50505050565b60006108ec83836108b1565b60408301905092915050565b6000602082019050919050565b60006109108261085d565b61091a8185610868565b935061092583610879565b8060005b8381101561095657815161093d88826108e0565b9750610948836108f8565b925050600181019050610929565b5085935050505092915050565b6000602082019050818103600083015261097d8184610905565b905092915050565b61098e81610898565b82525050565b60006020820190506109a96000830184610985565b92915050565b6109b8816107f2565b82525050565b60006020820190506109d360008301846109af565b92915050565b6109e281610898565b81146109ed57600080fd5b50565b6000813590506109ff816109d9565b92915050565b60008060408385031215610a1c57610a1b6107cd565b5b6000610a2a8582860161081b565b9250506020610a3b858286016109f0565b9150509250929050565b600082825260208201905092915050565b7f4e6f7420656e6f7567682062616c616e636520746f206578656375746520796f60008201527f7572207472616e736665722e0000000000000000000000000000000000000000602082015250565b6000610ab2602c83610a45565b9150610abd82610a56565b604082019050919050565b60006020820190508181036000830152610ae181610aa5565b9050919050565b7f7472616e7366657220616d6f756e74206d75737420626520677265617465722060008201527f7468616e20300000000000000000000000000000000000000000000000000000602082015250565b6000610b44602683610a45565b9150610b4f82610ae8565b604082019050919050565b60006020820190508181036000830152610b7381610b37565b9050919050565b7f4e487b7100000000000000000000000000000000000000000000000000000000600052601160045260246000fd5b6000610bb482610898565b9150610bbf83610898565b925082821015610bd257610bd1610b7a565b5b828203905092915050565b6000610be882610898565b9150610bf383610898565b9250827fffffffffffffffffffffffffffffffffffffffffffffffffffffffffffffffff03821115610c2857610c27610b7a565b5b828201905092915050565b7f416d6f756e74207472616e736665726564203d20000000000000000000000000600082015250565b6000610c69601483610a45565b9150610c7482610c33565b602082019050919050565b60006040820190508181036000830152610c9881610c5c565b9050610ca76020830184610985565b92915050565b7f4e657720546f74616c20537570706c79203d2000000000000000000000000000600082015250565b6000610ce3601383610a45565b9150610cee82610cad565b602082019050919050565b60006040820190508181036000830152610d1281610cd6565b9050610d216020830184610985565b92915050565b7f4f776e61626c653a206e6577206f776e657220697320746865207a65726f206160008201527f6464726573730000000000000000000000000000000000000000000000000000602082015250565b6000610d83602683610a45565b9150610d8e82610d27565b604082019050919050565b60006020820190508181036000830152610db281610d76565b9050919050565b7f4f776e61626c653a2063616c6c6572206973206e6f7420746865206f776e6572600082015250565b6000610def602083610a45565b9150610dfa82610db9565b602082019050919050565b60006020820190508181036000830152610e1e81610de2565b905091905056fea26469706673582212209454234734f6738a6bc3f0932451a9791a69f51a656d3f0d9c45abfd20c18f1e64736f6c63430008090033",
  "linkReferences": {},
  "deployedLinkReferences": {}
}